:020000040800F2
:10000000D80D002065020008CB3700080931000830
:10001000C9370008FB140008F5470008000000007D
:100020000000000000000000000000005F38000831
:10003000D1150008000000005D380008CD3A000826
:100040007F0200087F0200087F0200087F0200088C
:100050007F0200087F0200087F0200087F0200087C
:100060007F0200087F0200087F0200087F0200086C
:100070007F0200087F0200087F0200087F0200085C
:100080007F0200087F0200087F02000800000000D5
:100090000000000000000000000000007F020008D7
:1000A0007F0200085D3C0008293C00087F02000830
:1000B000913C00087F0200087F0200087F020008D0
:1000C0007F0200087F0200087F0200087F0200080C
:1000D0007F020008AD4100087F0200080000000018
:1000E0007F0200087F0200087F0200080000000075
:1000F0000000000000000000000000007F02000877
:10010000000000007F0200089D3C00087F020008FC
:1001100000000000000000000000000000000000DF
:100120007F020008FD140008091500087F0200087E
:100130007F02000800000000000000000000000036
:100140000000000000000000000000007F02000826
:100150007F02000815150008211500082542000837
:100160007F0200087F02000800000000000000007D
:10017000000000000000000000000000000000007F
:10018000000000007F0200080000000000000000E6
:100190007F0200087F02000800F002F800F052F829
:1001A0000AA090E8000C82448344AAF10107DA45D2
:1001B00001D100F047F8AFF2090EBAE80F0013F0D2
:1001C000010F18BFFB1A43F00103184784530000C6
:1001D000A4530000103A24BF78C878C1FAD8520757
:1001E00024BF30C830C144BF04680C6070470000B1
:1001F0000023002400250026103A28BF78C1FBD830
:10020000520728BF30C148BF0B607047662905F010
:100210001A81642900F03281632900F02484732953
:1002200000F02984002070471FB505F002F900F0A6
:1002300027FC04000020002104F02AFCE0601FBD20
:1002400010B510BD00F01CFD1146FFF7EDFF04F0E6
:1002500035FB00F03AFD03B4FFF7F2FF03BC00F0FA
:100260007DFD00000948804709480047FEE7FEE79A
:10027000FEE7FEE7FEE7FEE7FEE7FEE7FEE7FEE756
:1002800004480549054A064B70470000193C000820
:1002900099010008D8070020D80D0020D8090020B7
:1002A000D809002053EA020C00F069802DE9F04BD8
:1002B0004FF00006002B1FBFB3FA83F503FA05F4D5
:1002C00024FA05F65E4012BF1643B2FA82F502FA2E
:1002D00005F4C5F120051EBF22FA05FC44EA0C0412
:1002E000203556EA044C4FEA144418BF641C4FF002
:1002F00000084FF00009904271EB030C39D300293C
:1003000019BFB1FA81F701FA07F6B0FA80F700FADF
:1003100007F6C7F120071EBF20FA07FC46EA0C06C5
:100320002037B6FBF4FCA7EB0507103F07F01F0BC7
:10033000CBF120060CFA0BFB2CFA06F644BFB346B1
:100340000026202FA4BF5E464FF0000B5BEA060C90
:1003500008BF4FF0010B19EB0B09ABFB027C48EB1C
:100360000608C01B06FB02CC0BFB03CC71EB0C0197
:10037000C1E70B46024641464846BDE8F08B13B53F
:100380004FF000004FF00001AFF30080BDE81C40CB
:10039000704700000FB41CB5084B06AA7B446946A1
:1003A0000090059800F03DFB04460020694600F0EF
:1003B0004BFB20461CBC5DF814FB0000A9060000A6
:1003C0002DE9F0410E460446002020622046E168F7
:1003D000884730B3252805D0D4E901219047206A09
:1003E000401CF2E7E168204600278847050018D046
:1003F000A5F14100192802D820354FF40067324694
:10040000294620462760FFF701FF40B1012804D0AC
:10041000F61D26F007060836D8E7361DD6E728462B
:10042000DAE7206ABDE8F08170B50C460546012A7E
:1004300005D02878800600D5EA69002302E0012370
:1004400005E05B1C934202D2E05C0028F9D1A86968
:10045000E618C01AA861286A184428622846AFF333
:10046000008004E0D5E9012114F8010B9047B44263
:10047000F8D32846AFF3008070BD00002DE9F041AD
:100480000646002410687529314616A510D0AFF332
:100490000080002802DA404213A507E031688A078D
:1004A00001D512A502E0490704D511A5012401E0F8
:1004B000AFF3008000210A2206F1240709E0B0FB17
:1004C000F2FCB0FBF2F302FB1C003030785418460B
:1004D000491C0028F3D123462A463046BDE8F041A6
:1004E00000F032B8000000002D0000002B000000DA
:1004F000200000004FF0000200B5134694469646D7
:10050000203922BFA0E80C50A0E80C50B1F1200126
:10051000BFF4F7AF090728BFA0E80C5048BF0CC0D4
:100520005DF804EB890028BF40F8042B08BF704732
:1005300048BF20F8022B11F0804F18BF00F8012BA4
:1005400070477047704770472DE9F0470D46994650
:100550009246044600F124080168880604D5E06943
:1005600021F01001216000E00120A84201DD471BBD
:1005700000E00027A1697A1902EB0900081AA061BE
:100580002078C00602D42046AFF30080002608E0A1
:10059000D4E901211AF806009047206A401C761C15
:1005A00020624E45F4DB2078C0060AD52046AFF322
:1005B000008006E0D4E9012130209047206A401CE9
:1005C0002062381EA7F10107F4DC07E0D4E901211D
:1005D00018F805009047206A401C2062281EA5F1EB
:1005E0000105F3DC2046AFF300802078000602D539
:1005F0000220BDE8F0870120FBE770472DE9FF4F9F
:100600000C461E464FF0FF378BB0D2E90001DDF8F3
:1006100060800A908A46C1F30A5505B93D4600211B
:1006200008464FF00000BAF1000F00F4400005DA70
:1006300000EB80004FF4400101EA50004FEA90596E
:10064000B9F1010F00DDB9460A9850EA4A000ED010
:1006500044F61050A5F2FF3545432F14B8F1000FB2
:100660001ED07542291E1EDDC9F100021CE0B8F142
:10067000010F4FF0000001D0302103E0F24305E00C
:100680002154401CB042FBDB3046002200212154A3
:100690000B99C1F80880C1E900200FB0BDE8F08FC8
:1006A000BD1B6D1CDEE74A4600DA694206A800F071
:1006B00071FA06AB93E8070003AB83E807005046E6
:1006C0000A9900F052FB8DE80700A0F500501F3892
:1006D00000900398002D0ADD42F21F014A460844AB
:1006E000002303A90390684600F0BBFD09E0A0F5D4
:1006F00000504A461F38002303A90390684600F0C3
:10070000C5FD8DE807000004000C03D04FF0FF305A
:10071000410800E01046B8F1000F03D0002200921B
:1007200015461EE0751E05D400F0AEF93032625554
:100730006D1EF9D5B3460122084302D000227F1C6A
:1007400004E02078302801D100227F1E002A09977A
:1007500084D01DE0112D07DA00F096F93032625591
:100760006D1C50EA0102F5D1084302D00098C8B1CF
:100770000EE00021681E05E0235C625C6354225495
:10078000401E491C8142F7DBAB46A81B401E099066
:10079000002004F80B000B98099AC0F80880C0E903
:1007A000002B7AE711264FF0000857E72DE9F04FAC
:1007B00088460446D21D22F0070191B0D1E900011C
:1007C000CDE90A0104F017F802460B98C00F01D0DA
:1007D0002D2007E02068810701D52B2002E0202191
:1007E00001EAC000032A099001D0072A05DB03466D
:1007F0004146204600F08EF90BE12078800601D5B5
:10080000E06900E00620B8F1650F814606D0B8F136
:10081000660F18D0B8F1670F70D131E00020B9F140
:10082000110F009001DB112301E009F101030AAA75
:1008300001A90CA8FFF7E2FEDDE90C70002609F122
:100840000105834647E001204B4600904FF00047EA
:100850000AAA01A90CA8FFF7D1FEDDE90DB00C9999
:100860005D46002610B909F101000D18B9EB05002D
:1008700003D4C0F1FF3609F10105A5EB09002BE017
:10088000B9F1010F01DA4FF001090020B9F1110FA0
:100890000090484601DD112300E003460AAA01A9A1
:1008A0000CA8FFF7ABFEDDE90C704D460026834631
:1008B000207800070AD4AB4500DA5D4601A8012D77
:1008C00004DD411911F8011C302907D04F4502DA27
:1008D00017F1040F04DA012082460FE06D1EEEE7E7
:1008E000002F02DCED1B3E4403E0781CA84200DD33
:1008F0007D1CB81B00F1010A4FF00047207800076B
:1009000003D4AA4501DB4FF0FF3A0021B7F1004FB5
:100910000DF143088DF8431024D002202B23002F23
:1009200001DA7F422D230A21021EA0F1010000DC22
:100930005FB197FBF1FC97FBF1F201FB1C7C1746C2
:100940000CF1300C08F801CDEEE7A8F101000370BE
:100950002188090501D5452100E06521A0F10108A4
:1009600000F8011C09980FA9A1EB0807FF1D00B1B1
:100970000120411901EBEA70A1693844081A401EB0
:10098000A0612078C00602D42046AFF30080099809
:1009900028B1D4E901219047206A401C20622078C8
:1009A000C00622D52046AFF300801EE0002E04DBF7
:1009B000B34502DD01A8805D00E03020D4E90121CB
:1009C0009047206A401C2062761CAAF101005FEA71
:1009D000000A0AD100F054F8C0680168405CD4E90C
:1009E00001219047206A401C2062281EA5F10105C4
:1009F000DCDC07E0D4E9012118F8010B9047206AFC
:100A0000401C2062381EA7F10107F3DC2046AFF33B
:100A10000080032011B041E601694A1C0261087898
:100A2000704700B58FB0CDE901310021059105492E
:100A30007944CDE9031011466846FFF7C1FC0FB0B9
:100A400000BD0000E5FFFFFF0A6802F8010B0A6025
:100A5000704710B5436913B1AFF3008001E0FFF7B1
:100A6000E3FC012010BD127800F124010A7000227D
:100A70004A700122EDE711684FF0FF32E9E700000C
:100A8000004870479407002030B5B0F10A024FEAE1
:100A9000900E71F100034EEA817EB0EB0E0061EB27
:100AA00091014FEA101E4EEA017E10EB0E0041EB61
:100AB00011114FEA102E4EEA016E10EB0E0041EBC1
:100AC00011214FEA104E4EEA014E10EB0E0041EBA1
:100AD0001141401841F100014FEAD00040EA417055
:100AE0004FEAD10110EB80054FEA810444EA90748B
:100AF00044EB01046D1944EB0404521BA3414FF075
:100B0000000348BF0A3200D530BD401C41F100014E
:100B100030BD00002DE9F0411F4604460326016860
:100B2000072A01F4006004DB08B116A505E016A54C
:100B300003E008B115A500E015A521F01000206024
:100B4000A069C01EA0610FB1401EA0612046AFF396
:100B500000804FB1D4E9012138469047206A401CFB
:100B60002062C01C206206E0206AFAE7D4E9012175
:100B700015F8010B9047761EF8D22046AFF300809F
:100B8000BDE8F0814E414E006E616E00494E460058
:100B9000696E66002DE9F047814616468AB03548F1
:100BA00078440DC88DE80D0032487844801C03ACB1
:100BB0000DC884E80D0041F69B300844372190FBB6
:100BC000F1F290FBF1F5A5F1800501FB12041B3C4D
:100BD00002D56442012000E00020DFF898A08046A2
:100BE0000027FA44AAF1BE0A0EE0E0070AD0324616
:100BF000684607EB470101230AEB810100F046FB41
:100C00008DE8070064107F1C002CEED1194F7F4443
:100C1000AE3F19E0E80715D007EB04100DF1180AF4
:100C200090E80E008AE80E00C068F04201D19819E1
:100C300008903246012306A903A800F027FB03AB66
:100C400083E807006D10641C002DE3D14FF0010311
:100C500032466946B8F1000F03A802D000F001FB4C
:100C600001E000F013FBC9E90001C9F808200AB04F
:100C7000BDE8F08744490000004870477407002031
:100C80007546FFF7F9FFAE4605006946534620F06A
:100C90000700854618B020B5FFF7F2FABDE82040FE
:100CA0004FF000064FF000074FF000084FF0000B28
:100CB00021F00701AC46ACE8C009ACE8C009ACE8DB
:100CC000C009ACE8C0098D46704710B50446AFF3C3
:100CD00000802046BDE81040FFF7BDBA4FF0013C50
:100CE00050F8042B51F8043B9A4221D1A2EB0C039B
:100CF000934313EACC1317D150F8042B51F8043B5B
:100D00009A4215D1A2EB0C03934313EACC130BD1F7
:100D100050F8042B51F8043B9A4209D1A2EB0C0382
:100D2000934313EACC13DBD04FF00000704700BFB1
:100D3000D01A01BAB1FA81F101F0180122FA01F0DA
:100D4000CB40C1F12001DBB2C0B2C01A2CFA01F3D2
:100D5000D11A914311EAC311E6D170470149182015
:100D6000ABBEFEE72600020070475FEA400C08BFFA
:100D700091F0000F4FEA8C234FEAC12243EA515110
:100D80004FEA1C5018BF00F5F0404FEA300018BF82
:100D900041F000415FEA6C5C00F02980BCF1FF3F4C
:100DA00008BF40F080407047130C06BF12044FF09C
:100DB000100C4FF0000C130E04BF12020CF1080CC3
:100DC000130F04BF12010CF1040C930F04BF920027
:100DD0000CF1020CD30F04BF52000CF1010C1146B0
:100DE0004FF00002A0F11F00A0EB0C00704711F0C3
:100DF000004F08BF704731F000413FF4D5AF0B0CF6
:100E000006BF09044FF0100C4FF0000C0B0E04BF8E
:100E100009020CF1080C0B0F04BF09010CF1040CC2
:100E20008B0F04BF89000CF1020CCB0F04BF4900EB
:100E30000CF1010CCCF12003A0EB0C0022FA03F31F
:100E400002FA0CF241EA030100F10100704720F0C0
:100E50007F4C80EA030023F07F47ACEB070303F5E8
:100E60007C5300F0004003F1FF032DE980494FEA75
:100E7000154B09B44FEA144325EA0B4E24EA034804
:100E80000FF2042606EB132749083E785FEA320288
:100E900003FB0667C7F5000707FB06F64FEA543762
:100EA0004FEAD64606F1020607FB066CCCF1005C61
:100EB0004FEA1C472CEA074C07FB06F40CFB06F52F
:100EC00004EB15464FEA961634BF00204FF0004061
:100ED0004FEAD13706FB07FC4FEA1C4C0CFB0BF723
:100EE000D21B03FB0CF761EB07010CFB0EF7B0EB19
:100EF000074072EB17420CFB08F734BFA2EB074226
:100F0000B2EB074261EB17414FEA0C444FEA9107FD
:100F100006FB07FC4FEA1C4C0CFB0BF7B0EBC74081
:100F200072EB573203FB0CF734BFA2EBC742B2EBB4
:100F3000C74261EB57310CFB0EF7B0EBC70072EB09
:100F400057720CFB08F734BFA2EBC702B2EBC70223
:100F500061EB5771039F4FEA816141EA921104EB03
:100F6000CC044FEAD1374FEA826206FB07FC42EA23
:100F700090124FEA80604FEA1C4C0CFB0BF7D21B1F
:100F800003FB0CF761EB07010CFB0EF7B0EB07401E
:100F900072EB17420CFB08F734BFA2EB0742B2EB2F
:100FA000074261EB17414FEA8C554FEA910704EB7A
:100FB0009C2406FB07FC4FEA1C4C0CFB0BF7B0EB28
:100FC000C74072EB573203FB0CF734BFA2EBC742AA
:100FD000B2EBC74261EB57310CFB0EF7B0EBC70029
:100FE00072EB57720CFB08F734BFA2EBC702B2EBEF
:100FF000C70261EB577115EB4C254FEA816141EA5D
:1010000092114FEA82624FEAD13742EA901206FB10
:1010100007FC44F100044FEA80604FEA1C4C0CFBD3
:101020000BF7D21B03FB0CF761EB07010CFB0EF770
:10103000B0EB074072EB17420CFB08F734BFA2EB92
:101040000742B2EB074261EB174115EB1C154FEA63
:10105000813141EA92414FEA823242EA90424FEABC
:1010600080304FEA0C7644F1000448EA03434EEA2C
:101070000B484FF0000EB2EB080C71EB030724BFD6
:10108000624639464EEB0E0E4FF0000B00185241EF
:1010900049414BEB0B0BB2EB080C71EB03077BF1F7
:1010A000000B24BF624639464EEB0E0E4FF0000B8C
:1010B0000018524149414BEB0B0BB2EB080C71EBA2
:1010C00003077BF1000B24BF624639464EEB0E0E40
:1010D00051EA020718BF46F0010616EB0E7655F1ED
:1010E000000254F1000103D5BDE88901BDE8008884
:1010F000BDE88901BDE80048B619524141EB010144
:10110000A3F10103704780807F7E7D7C7B7A7978B4
:10111000777676757473727171706F6E6E6D6C6CBC
:101120006B6A6A696868676666656464636362615E
:101130006160605F5F5E5E5D5D5C5C5B5B5A5A59DF
:10114000595858575756565555555454535352524B
:101150005251515050504F4F4F4E4E4D4D4D4C4CA3
:101160004C4B4B4B4A4A4A494949484848474747EC
:101170004746464645454544444444434343434229
:10118000424242414141002B9C4630D477002BD053
:101190001CB54FEA370703B44FF010004FF01001B1
:1011A000BAF1000F06D0BCF1000FDCBF40F0080020
:1011B00040F008014FF000000FBCBDE810400BF1FB
:1011C000010BBBF1010F08BF5FEA170722BF12F145
:1011D000010211F101014FF0004143F1000300F061
:1011E000004043EA00007047F9D35708D0E746EAC9
:1011F000064613F1400F4FEA16461FDD13F1200F8C
:10120000DFBF16430A46002120335B42BED0C3F144
:10121000200746EA064602FA07F74FEA164646EA6C
:101220000706C3F1200722FA03F201FA07F721FAB1
:1012300003F14FF0000342EA0702A7E746EA02067D
:1012400046EA06464FEA164646EA0106BCBF46EAAB
:101250000646360C4FF000034FF000024FF000013D
:1012600094E72DE9804C9A46934670B491E8380093
:1012700007C831EA400C48BF34EA430C03D5FFF7F6
:10128000E6FDFFF780FFF0BCBDE8008C2DE9804C47
:101290009A46934670B491E8380007C810F0804F22
:1012A00008BF13F0804F03D100F005F8FFF76BFF84
:1012B000F0BCBDE8008C20F07F4780EA030023F0FB
:1012C0007F4C07EB0C03A3F57C5300F00040A3F127
:1012D000FE0392F0000F00F0B38095F0000F00F0D5
:1012E00077802DE901494FEA11404FEA144621EA7F
:1012F000004800FB06FC24EA064708FB06F607FB4D
:1013000008F800FB07F718EB06484CEB164C4FEAC1
:10131000124B18EB07484FEA15464CEB174022EAF0
:101320000B4E0BFB06FC25EA06470EFB06F607FBF9
:101330000EFE0BFB07F71EEB064E4CEB164C4FF068
:1013400000061EEB074E4CEB174B18EB0B0840F159
:10135000000018EB0E0B58EB000840F100008F1A4C
:101360004FF000013CBFC943661B14BFB5EB040C32
:1013700000213CBFC943F61B4FEA17444EEA8E0ECC
:1013800027EA04454FEA1C4704FB07622CEA074C96
:1013900005FB07F70CFB05F604FB0CFC16EB0746F8
:1013A00042EB174216EB0C4642EB1C421BEB0606C7
:1013B00058EB0202414146EA9E0601D5BDE801898B
:1013C000B619524141EB0101A3F10103BDE80189C6
:1013D0004FEA14454FEA114724EA054621EA074C33
:1013E00005FB07F406FB07F70CFB06F105FB0CFCFD
:1013F00011EB074144EB17444FEA124711EB0C4144
:1014000044EB1C4422EA074C05FB07F206FB07F7F6
:101410000CFB06F605FB0CFC16EB074642EB1742ED
:1014200016EB0C4642EB1C456A1854F1000148BF0C
:101430007047B619524141EB0101A3F10103704716
:1014400095F0000F37D04FEA11424FEA144721EAD6
:10145000024624EA074C02FB07F106FB07F70CFBE8
:1014600006F402FB0CFC14EB074441EB17414FEA76
:10147000154714EB0C4441EB1C4125EA074C02FBD9
:1014800007F506FB07F70CFB06F602FB0CFC16EB58
:10149000074645EB174516EB0C4645EB1C42121967
:1014A00051F1000148BF7047B619524141EB0101AB
:1014B000A3F1010370474FEA14454FEA114724EAAC
:1014C000054621EA074C05FB07F106FB07F70CFB75
:1014D00006F24FF0000605FB0CFC12EB074241EB55
:1014E000174112EB0C4251EB1C4148BF7047921858
:1014F00041EB0101A3F101037047FEE7014800F051
:10150000C5B800002C040020014800F0BFB800005E
:101510000C030020014800F0B9B80000CC03002003
:10152000014800F0B3B800006C03002001681823E4
:10153000CAB2103AB2FBF3F2054B6FF30901032A6A
:101540009B5CC36500D9091D816508467047000092
:101550004A54000810B5014600208B698A6A4FF092
:10156000C07453B1B3F5005F15D072B1012A0CD02D
:10157000022A0AD0032A09D104E01AB1012A06D0AE
:10158000022A03D1C96AC90100D5012010BDC96A68
:10159000A142FAD010BD002AF7D0012AF2D0022AC7
:1015A000F3D0032AF3D010BD30B50468256825F4C4
:1015B00080252560046863608368402B036803D03E
:1015C00099600068C26030BD9A600068C16030BD3B
:1015D000704772B6FEE72DE9F0410446876D00F0D2
:1015E000C5FA064694F835000025022806D080206A
:1015F000606584F834500120BDE8F08120680168FE
:1016000021F0160101602068416921F080014161EB
:10161000206C08B9A06C20B12068016821F0080195
:1016200001602068016821F0010101600CE000F018
:101630009DFA801B052807D920206065032084F8C7
:10164000350084F83450D7E720680068C007EED131
:1016500094F85C103F208840B860012084F8350081
:1016600084F834500020C7E790F83510022903D0E1
:101670008021416501207047052180F83510006800
:10168000016821F001010160002070472DE9F84355
:1016900004464FF00009CDF8009063484FF416510E
:1016A000A56D0068B0FBF1F72E6894F85C10082077
:1016B00000FA01F131420FD021680A6852070BD5B8
:1016C0000A6822F004020A6094F85C108840A8605E
:1016D000606D40F00100606594F85C104FF0010807
:1016E00008FA01F0304208D021684969090604D59A
:1016F000A860606D40F00200606594F85C10042002
:101700008840304208D021680968890704D5A8605C
:10171000606D40F00400606594F85C101020884013
:10172000304218D021680968090714D5A8602068DC
:101730000168490304D50068000308D5A16C07E0DF
:101740000168C90503D4016821F008010160216C1A
:1017500009B12046884794F85C1020208840304228
:1017600031D021680968C9062DD5A86094F83500E4
:1017700005282068016806D0490347D500680003A2
:101780001DD4616C1CE021F01601016020684169E4
:1017900021F080014161206C08B9A06C20B1206863
:1017A000016821F00801016094F85C103F20884036
:1017B000A86084F8358084F83490216D1FE0E16BD7
:1017C00009B120468847606D00282BD0606DC007A6
:1017D00014D0052084F835002068016821F001014B
:1017E00001600098401C0090B84203D8206800684F
:1017F000C007F6D184F8358084F83490E16C002974
:1018000010D001B02046BDE8F04308470168C90583
:10181000D5D4016821F01001016084F8358084F886
:101820003490CCE7BDE8F883880000202DE9F04132
:10183000044600F09BF906465CB1022084F83500AE
:10184000002584F834502068016821F0010101600E
:101850000DE00120BDE8F08100F088F9801B05282B
:1018600005D920206065032084F83500F2E7206860
:101870000068C007F0D12268116820480140D4E90F
:1018800001031843D4E9033633431843636918430B
:10189000A3691843E3691843236A18430843616A3C
:1018A000042903D1D4E90B131943084310602068BD
:1018B0004069666A20F0070130460E43012704287C
:1018C0000CD1A06A0643E06A40B12046FFF742FE11
:1018D00020B14020606584F83570BAE72068466121
:1018E0002046FFF723FE94F85C203F219140816061
:1018F000656584F835700020ACE700003F8010F08B
:101900002DE9F0410446866D90F834000025012849
:101910000DD0012084F8340094F835700020012F98
:1019200007D084F8340002252846BDE8F081022063
:10193000FBE7022784F8357060652046FFF734FE28
:1019400094F85C103F208840B0602068016841F046
:1019500016010160206C20B12068016841F0080187
:1019600001602068016841F001010160DCE70000CE
:101970002DE9F84FDFF8B8A10022012403254FF02C
:101980000F090AF1040BAAF1040E00BF0B6804FA58
:1019900002F63340B34273D10F7907F00307012FEA
:1019A00001D0022F16D187684FEA420805FA08FCD9
:1019B00027EA0C07D1F80CC00CFA08FC4CEA070C1B
:1019C000C0F808C04768B7430E79C6F300169640C2
:1019D0003E4346600E79F643B6070DD0C768560001
:1019E00005FA06FC27EA0C07D1F808C00CFA06FC39
:1019F0004CEA070CC0F80CC00E7906F00306022E64
:101A000010D1D60800EB8608D8F8206057074FEAB7
:101A1000D76C09FA0CF7BE430F6907FA0CF7374386
:101A2000C8F8207006684FEA420C05FA0CF7BE436E
:101A30000F7907F0030707FA0CF7374307604E6882
:101A400016F4403F6DD03B4E376847F4804737600F
:101A5000366822F0030706F480460096364E07EB00
:101A6000060CDCF8086897073F0F09FA07F826EA22
:101A70000806DFF8C880404503D14FF000081EE09B
:101A80004FE0DFF8BC80404502D14FF0010816E07E
:101A9000DFF8B080404502D14FF002080FE0DFF8D8
:101AA000A880404502D14FF0030808E0DFF89C8091
:101AB000404502D14FF0040801E04FF0070808FA52
:101AC00007F848EA0608CCF80888DAF800605746B4
:101AD000D1F804C09E435FEACC2C00D51E433E6083
:101AE000DBF800605F46D1F804C09E435FEA8C2CAF
:101AF00000D51E433E60DEF800607746D1F804C092
:101B00009E435FEA8C3C00D51E433E60084F083F71
:101B10003E68D1F804C09E435FEACC3C00D51E432A
:101B20003E60521C102AFFF431AFBDE8F88F000070
:101B3000083C0140443802400030014000000240AF
:101B40000004024000080240000C02400010024065
:101B5000426921EA02030A4043EA02418161704777
:101B60000AB1816170470904FBE700000148806801
:101B7000704700007C000020024881680278114410
:101B8000816070477C0000200B4810B5016841F46B
:101B900000710160016841F480610160016841F4F5
:101BA00080710160032000F06FF80F2000F006F84C
:101BB00000F024F8002010BD003C024070B50D4D2F
:101BC00004464FF47A712878B1FBF0F00A490968AD
:101BD000B1FBF0F000F00CFB48B9102C07D200224A
:101BE0002146501E00F030F800206C6070BD0120CE
:101BF00070BD00007C000020880000200A4808B565
:101C0000016841F480410160006800F48040009068
:101C10000548001F016841F080510160006800F034
:101C20008050009008BD000044380240002809DBC5
:101C300000F01F02012191404009800000F1E020E6
:101C4000C0F8001170470000F0B40E4B1B680C4642
:101C5000C3F30223C3F10705042D00D90425191D80
:101C6000072901D2002300E0DB1E012606FA05F158
:101C7000491E214099409E40761E16403143F0BCDB
:101C800002F0D1BD0CED00E0064900F00702086843
:101C90004FF6FF03184040EA0220034A1043086051
:101CA000704700000CED00E00000FA052DE9F04758
:101CB0000E46050065D0DFF81481D8F80000F7B2B1
:101CC00000F00700B04207D288F80070D8F8000092
:101CD00000F00700B04254D128683D4C810712D56E
:101CE000400703D5206840F4E050206028780007C2
:101CF00003D5206840F4604020602068A96820F087
:101D0000F000084320602878C0072DD0304968686B
:101D10000839012812D0022813D0032811D00968ED
:101D2000890700292DDA216821F003010143216090
:101D3000FFF71CFF814641F2883A0EE009688903EB
:101D4000EFE709688901ECE7FFF710FFA0EB090155
:101D5000514502D90320BDE8F0872068696800F08A
:101D60000C00B0EB810FEFD1D8F80010404601F025
:101D70000701B14207D90770006800F00700B042C0
:101D800001D00120E7E72878400705D52068E968F9
:101D900020F4E050084320602878000706D520682A
:101DA000296920F4604040EAC100206000F038F862
:101DB0002168084AC1F30311515CC8400649086014
:101DC00006480068FFF7FAFE0020C4E7003C024026
:101DD000083802405254000888000020800000208B
:101DE0000448054900680968044AC1F38221515C2E
:101DF000C84070478800002008380240625400083C
:101E00000448054900680968044AC1F34231515C3D
:101E1000C84070478800002008380240625400081B
:101E2000154810B5006810F00C02144813D014497E
:101E3000042A0FD0082A0ED10F4C241F22682368D1
:101E400002F03F025B0207D52068C0F38810A0FBB8
:101E5000010106E0084610BD2168C1F38811A1FB0D
:101E600000010023FEF71EFA2168C1F30141491C5D
:101E70004900B0FBF1F010BD083802400024F40026
:101E800040787D012DE9F84F04006ED02078DFF80E
:101E90004C93C007A9F104054AD009F10400016878
:101EA000C1F38101012908D00068C0F38100022834
:101EB0000AD1D9F80000400206D52868800337D53A
:101EC00060680028E1D033E06068B0F5803F10D052
:101ED000B0F5A02F286810D020F480302860286842
:101EE00020F4802028606068A8B1FFF73FFE064616
:101EF0000DE0286840F48030F4E740F4802028604A
:101F0000F7E700BFFFF732FE801B642873D828680C
:101F10008003F7D50CE0FFF729FE064605E000BF79
:101F2000FFF724FE801B6428F0D828688003F7D4CC
:101F30002078DFF8AC8280074FF0000A3ED5A74832
:101F4000001D016811F00C0F08D00068C0F381007B
:101F500002280BD1D9F80000400207D42868800776
:101F600016D5E068012800D112E033E1E068B8B18D
:101F70000120C8F80000FFF7F9FD064605E000BFA4
:101F8000FFF7F4FD801B0228C0D828688007F7D52A
:101F90002868216920F0F80040EAC10028600DE0BF
:101FA000C8F800A0FFF7E2FD064604E0FFF7DEFDFB
:101FB000801B02281FD828688007F7D420780007E4
:101FC00022D5864F87486169703771B10121016060
:101FD000FFF7CCFD064604E0FFF7C8FD801B022892
:101FE00009D838688007F7D50EE0C0F800A0FFF7E1
:101FF000BDFD064605E082E0FFF7B8FD801B022824
:102000007DD838688007F7D42078400768D5DFF896
:10201000CCB100270BF13C0BDBF80000C0000BD467
:10202000DBF8001041F08051CBF80010DBF8000025
:10203000012700F0805000906B4E3068C00510D42E
:10204000306840F480703060FFF790FD009005E04C
:10205000FFF78CFD0099401A022850D83068C0055F
:10206000F6D55E4EA0686C3601280FD00528306882
:1020700010D020F001003060306820F004003060A3
:10208000A068B8B1FFF772FD00900FE0306840F033
:102090000100F4E740F004003060F7E7FFF766FD69
:1020A0000099411A41F28830814266D83068800731
:1020B000F4D50EE0FFF75AFD009007E0FFF756FD5C
:1020C0000099411A41F28830814256D83068800721
:1020D000F4D42FB1DBF8001021F08051CBF80010C0
:1020E000A069C8B33D49091D0968C1F381010229EE
:1020F0004AD00228504607D0C8F8600000E03CE013
:10210000FFF734FD04463BE04746C8F86000FFF7A0
:102110002DFD064605E000BFFFF728FD801B0228C5
:102120002BD828688001F7D4D4E907010843A16AB5
:102130002E4A490802EB0141626A41EA82110843D2
:1021400094F82C1040EA0161C9F8001001203866AB
:10215000FFF70CFD044606E03EE000BFFFF706FD7A
:10216000001B022809D828688001F7D534E000BF99
:10217000FFF7FCFC001B022802D90320BDE8F88F02
:1021800028688001F4D427E00128F7D0D9F80000AE
:10219000E26900F4800191421CD1226A00F03F0103
:1021A000914217D147F6C071626A0140B1EB821FBC
:1021B00010D1A26A4FF0FF3300F4403103EB52021A
:1021C000B1EB024F06D194F82C1000F07060B0EB28
:1021D000016F01D00120D1E70020CFE70438024091
:1021E00000004742800E4742007000400000FFFFA1
:1021F00010B5401EB0F1807F01D3012010BD4FF01B
:10220000E02460610F21601702F00DFB0020A06147
:1022100007202061002010BD7047704770B590F80E
:102220003C20012A2CD0012480F83C40022280F876
:102230003D2003685A689D6822F070060A683243A0
:102240005A60104B02689A420ED0B2F1804F0BD008
:102250000D4B9A4208D00D4B9A4205D00C4B9A4236
:1022600002D00C4B9A4204D1496825F080031943EF
:10227000916080F83D40002180F83C10084670BD18
:10228000022070BD00000140000400400008004032
:10229000000C00400040014010B5040003D094F849
:1022A0003D0010B107E0012010BD002084F83C0083
:1022B000204600F01FF8022084F83D00211D206810
:1022C00001F0F2FC012084F8460084F83E0084F816
:1022D0003F0084F8400084F8410084F8420084F80C
:1022E000430084F8440084F8450084F83D00002051
:1022F00010BD000008B5154A0168154891420ED17D
:10230000016841F4003101600068002200F40030EF
:10231000009011461920FFF797FC192010E00D4A94
:10232000914211D1016841F48021016000680022CE
:1023300000F48020009011461A20FFF785FC1A2037
:10234000BDE80840FFF772BC08BD00000044014032
:1023500044380240004801402DE9F0410D46040098
:1023600003D094F83D0018B108E00120BDE8F081E9
:10237000002084F83C00204600F040F8022084F859
:102380003D002068816844F2070291438160211D6D
:10239000206801F089FC226890689169166A2B68B0
:1023A000AF69034340F20330814341EA0721A86843
:1023B000EF6908434FF6FC418843E96840EA07208B
:1023C000014328692F6A000140EA07300843696821
:1023D0006D6926F0AA0646EA05152943936022682E
:1023E000906154F8460B0162012004F81F09E07562
:1023F0002076E0762077A0750020B7E7F0B587B0AB
:10240000044614216846FEF775F82D492668002316
:102410002B4A1039022403252A48B6F1804F24D0D4
:10242000294FBE421FD1166846F008061660126892
:1024300002F0080205920A6842F001020A60096887
:102440000095CDE9014301F00101CDE90441039379
:102450006946FFF78DFA002211463220FFF7F4FBA0
:102460003220FFF7E3FB07B0F0BD136843F0010330
:102470001360126802F0010205920A6842F001023C
:102480000A600A6802F0010205920A6842F002023C
:102490000A600968012601F00201059120218DE8FA
:1024A0005200CDE903566946FFF762FA08208DE82D
:1024B0005100CDE9035669460448FFF759FAD2E7BF
:1024C0004038024000000240000C0040000402407E
:1024D00070B590F83E60044690F83F5090F8423056
:1024E00090F84320022021B1042914D0012E25D1D7
:1024F0001EE0012E22D1012B20D184F83E0084F869
:10250000420001220021206801F01AFC2068C16805
:1025100041F002012FE0012D10D1012A0ED184F8E3
:102520003F0084F843000421206801F009FC1EE00C
:10253000012D03D1012B01D1012A01D0012070BD51
:1025400084F83E0084F83F0084F8420084F8430099
:1025500001220021206801F0F3FB01220421206800
:1025600001F0EEFB2068C16841F00201C160206803
:10257000C16841F00401C1602068016841F00101B7
:102580000160002070BD000010B54FF0804104686C
:102590004B00154A8C4204D1496A994200D9491C22
:1025A00011600068114C1249A04206D10F48243036
:1025B0000068984200D9401C086091ED000ADFEDE8
:1025C0000D0A0D48B8EEC00A80EE201ADFED0B0AA6
:1025D00080ED001A92ED000A0948B8EEC00A80EEBC
:1025E000201A80ED001A10BD40000020000C0040B1
:1025F00044000020005069454800002000007E454E
:102600004C00002070B50446006801694FF00005D9
:10261000C943890715D4C168C943890711D4E91E84
:10262000016101202077206880698007204602D060
:10263000FFF7AAFF04E000F02EF9204600F01EFA92
:10264000257720680169C943490717D4C168C94380
:10265000490713D46FF0040101610220207720683C
:10266000806910F4407F204602D0FFF78DFF04E020
:1026700000F011F9204600F001FA25772068016981
:10268000C943090716D4C168C943090712D46FF0BA
:1026900008010161042020772068C0698007204676
:1026A00002D0FFF771FF04E000F0F5F8204600F0DB
:1026B000E5F9257720680169C943C90617D4C168BF
:1026C000C943C90613D46FF01001016108202077B7
:1026D0002068C06910F4407F204602D0FFF754FF05
:1026E00004E000F0D8F8204600F0C8F9257720680B
:1026F0000169C943C90708D1C168C943C90704D1E1
:10270000891E0161204600F081FA20680169C943F1
:10271000090609D4C168C943090605D46FF08001D0
:1027200001612046FFF778FD20680169C943490629
:1027300009D4C168C943490605D46FF0400101615D
:10274000204600F064FA20680169C94389060BD469
:10275000C168C943890607D46FF020010161204692
:10276000BDE87040FFF759BD70BD0000F0B587B0FF
:10277000044614216846FDF7BDFE2C4B2268002458
:102780002B4902252B482C4E9A4221D10A6842F04F
:1027900001020A600A6802F0010205920A6842F02A
:1027A00002020A60096801F00201059140210091CE
:1027B000CDE901546946CDE90345FFF7D9F8232057
:1027C0000090CDE9015469463046CDE9034515E056
:1027D0001A4F0323BA4215D1086840F0020008607E
:1027E0000868694600F0020005904FF47070009090
:1027F0001220CDE90104CDE903353046FFF7B8F8E2
:1028000007B0F0BD0E4EB242FAD10A6842F00102A2
:102810000A60096801F0010105910C210091CDE9E0
:102820000154CDE903436946E8E700000004004095
:10283000303802400000024000040240000800401E
:102840000040014070B5044690F83C000025012886
:102850000FD0012084F83C006AB1042A0FD0082A66
:1028600011D00C2A13D00125002084F83C00284602
:1028700070BD022070BD206801F070FAF4E7206896
:1028800001F094FAF0E7206801F0BCFAECE7206868
:1028900001F0E4FAE8E7704710B5040003D094F8BB
:1028A0003D0010B107E0012010BD002084F83C007D
:1028B000204600F01EF8022084F83D00211D20680B
:1028C00001F0F2F9012084F8460084F83E0084F813
:1028D0003F0084F8400084F8410084F8420084F806
:1028E000430084F8440084F8450084F83D0000204B
:1028F00010BD704770B5044690F83C0000260D46A8
:1029000001280FD0012084F83C006AB1042A1DD0B0
:10291000082A2FD00C2A3FD00126002084F83C0042
:10292000304670BD022070BD206801F017FA2068A3
:10293000816941F0080181612068816921F0040109
:102940008161206881692A69114311E0206801F0E2
:102950002DFA2068816941F40061816120688169F4
:1029600021F480618161206881692A6941EA02213C
:102970008161D2E7206801F045FA2068C16941F021
:102980000801C1612068C16921F00401C1612068AA
:10299000C1692A69114311E0206801F05FFA2068DB
:1029A000C16941F40061C1612068C16921F480619D
:1029B000C1612068C1692A6941EA0221C161ACE7AD
:1029C00010B5040003D094F83D0010B107E00120D9
:1029D00010BD002084F83C00204600F01FF80220C3
:1029E00084F83D00211D206801F05EF9012084F883
:1029F000460084F83E0084F83F0084F8400084F8E4
:102A0000410084F8420084F8430084F8440084F8CC
:102A1000450084F83D00002010BD000008B5134AB1
:102A200001681348914207D1016841F00201016039
:102A3000006800F0020009E00E4A914208D10168E6
:102A400041F004010160006800F00400009008BD3E
:102A500009488142FBD10648001D016841F48031DC
:102A60000160006800F48030F0E7000000040040DE
:102A7000403802400008004000400140704700001C
:102A800010B50446022249B104290ED0082913D0FA
:102A900094F84100012816D0012010BD94F83E00A2
:102AA0000128F9D184F83E200FE094F83F00012876
:102AB000F2D184F83F2008E094F840000128EBD1DF
:102AC00084F8402001E084F841200122206801F0D0
:102AD00037F912492068884203D1426C42F400421F
:102AE0004264206888420ED0B0F1804F0BD00C4970
:102AF000884208D00B49884205D00B49884202D051
:102B00000A49884204D1816801F00701062903D0EF
:102B1000016841F001010160002010BD000001408A
:102B20000004004000080040000C0040004001404C
:102B300030B500250446022249B1042912D00829E3
:102B400044D094F8410001284BD0012030BD94F8C6
:102B50003E000128F9D184F83E202068C26842F086
:102B6000020209E094F83F000128EED184F83F20EA
:102B70002068C26842F00402C2600122206801F0AD
:102B8000DFF81D492068884203D1426C42F40042BC
:102B90004264206888420ED0B0F1804F0BD01749B4
:102BA000884208D01649884205D01649884202D08A
:102BB0001549884204D1816801F00701062903D034
:102BC000016841F001010160284630BD94F84000E1
:102BD0000128BAD184F840202068C26842F0080277
:102BE000CAE784F841200C2901D00125ECE72068D0
:102BF000C26842F01002BFE700000140000400403C
:102C000000080040000C0040004001407047704741
:102C100070477047F8B5016804460868CA684B6990
:102C200010F00F0F4FF0000559D003F0010602F429
:102C30009077374365D0C10705D0D10503D5216C06
:102C400041F001012164410705D5D90703D0216C6A
:102C500041F002012164810705D5D90703D0216C19
:102C600041F004012164010707D502F0200131433E
:102C700003D0216C41F008012164216C00293AD075
:102C8000800604D5900602D5204601F0A9F92068F7
:102C90004069216CC0F38010090700D460B320465E
:102CA00001F069F920684069400621D52068143098
:102CB00050E8001F21F0400140E80012002AF5D141
:102CC000A06BA8B16C490165A06BFEF7CDFC002894
:102CD00011D0A06B016D01B0BDE8F040084783063C
:102CE0000FD593060DD52046BDE8F84001F078B920
:102CF0002046FFF78EFFF8BD2046FFF78AFF2564C8
:102D0000F8BD266B2023012E79D1C60677D5D606CD
:102D100075D50868486800904869400640D5A16BA1
:102D2000086840680004000CEAD0A28D8242E7D90E
:102D3000E085C869B0F5807F2DD020680C3050E860
:102D4000001F21F4807140E80012002AF5D12068AC
:102D5000143050E8001F21F0010140E80012002A61
:102D6000F5D12068143050E8001F21F0400140E800
:102D70000012002AF5D184F83E30256320680C301B
:102D800050E8001F21F0100140E80012002AF5D1A0
:102D9000A06BFEF720FCA08DE18D401A81B229E0E6
:102DA000A08DE18D401A81B2E08D0028A8D00029C5
:102DB000A6D020680C3050E8002F22F4907240E832
:102DC0000026002EF5D12068143050E8002F22F0A4
:102DD000010240E80026002EF5D184F83E3025633C
:102DE00020680C3050E8002F22F0100240E8002349
:102DF000002BF5D12046FFF70BFFF8BDFFE70506D6
:102E00002BD5150629D594F83D002128F5D1A068C9
:102E1000B0F5805F01D12069B0B1206A411C216208
:102E2000216800784860E08C401E0004000CE084BB
:102E3000E3D12068C16821F08001C1602068C168C9
:102E400041F04001C160D8E7206A0088C0F3080063
:102E50004860206A801C2062E5E74006CDD5500618
:102E6000CBD5CA68204622F04002CA6084F83D30C3
:102E700000F048F9C1E70000D13E000870B5040039
:102E800004D094F83D00002510B106E0012070BD8B
:102E900084F83C50204600F023F8242084F83D00BC
:102EA0002068C16821F40051C160204601F0F8F8A3
:102EB0002068016921F4904101612068416921F095
:102EC0002A0141612068C16841F40051C160256454
:102ED000202084F83D0084F83E00002070BD0000F2
:102EE0002DE9F04786B0044614216846FDF702FB41
:102EF0005848DFF85CC12768564914380222032677
:102F0000554B00254FF0400A4FF4806967454AD180
:102F10000F6847F010070F60096801F01001059174
:102F2000016841F0010101600068694600F001009C
:102F3000059070028DE86500072004901846FEF7A2
:102F400017FD474E45484FF000683060C6E90185DF
:102F5000C6E903597561B561F56135624F46304682
:102F60007562FEF763FC08B1FEF733FBA663B4633A
:102F70003C4E3A48C6E903577561B561F561356263
:102F80007830756286E801053046FEF74FFC08B1DF
:102F9000FEF71FFB6663002211462520B463FEF78F
:102FA00053FE25204FE0DFF8C0C067454DD10F68C4
:102FB00047F020070F60096801F0200105910168C2
:102FC00041F0010101600068694600F001000590D0
:102FD0004FF4C0508DE86500082004901846FEF7B5
:102FE000C7FC224E1D484FF02067C6E903597561A2
:102FF000B561F56135626030756286E88104C84666
:103000003046FEF713FC08B1FEF7E3FA6663B463DB
:103010001248174E18383060C6E90175C6E90358E2
:103020007561B561F561356230467562FEF7FEFB8C
:1030300008B1FEF7CEFAA663002211464720B4631A
:10304000FEF702FE4720FEF7F1FD06B0BDE8F0876F
:103050000010014044380240000002404064024039
:103060000C0300206C03002000140140CC0300205E
:103070002C0400207047000070B5044690F83D0015
:10308000202836D191B38AB394F83C00012830D07F
:10309000012084F83C002162A284E284002525649A
:1030A000212084F83D00636B1348D863636B134899
:1030B0001864636B1248D864606B13460565266814
:1030C000606B321DFEF71CFC21686FF04000086049
:1030D00084F83C502068143050E8001F41F0800113
:1030E00040E80012002AF5D1002070BDFFE7012062
:1030F000FBE70220F9E700002B3F00086D3F0008C6
:10310000E13E000870477047FEE7000000B595B04B
:103110001CA310930D2112A2CDE911122B4B0C937D
:1031200021A21391CDE90D1235A3089328A20F9186
:10313000CDE9091247A3049338A20B91CDE90512FA
:103140005BA300934FA20791CDE9011203910D23D8
:103150005FA268A1FDF71EF915B080B200BD0000A6
:103160007B6420785F7D202D20736574204420636C
:103170006F6E737420666F7220504944202D3E207C
:103180004F6B00007B6920785F7D202D2073657474
:10319000204920636F6E737420666F72205049441B
:1031A000202D3E204F6B00007B7020785F7D202D0E
:1031B00020736574205020636F6E737420666F7285
:1031C00020504944202D3E204F6B00000055000840
:1031D0007B4D206C20725F7D202D206765742076EA
:1031E000656C6F6369747920666F722077686565B6
:1031F0006C732C206D6D2F73202D3E204F6B0000C3
:103200007B725F7D202D20726573657420656E630F
:103210006F64657273202D3E204F6B007B525F7D83
:10322000202D2067657420616E676C6520726F7455
:103230006174696F6E206F6620776865656C732CAA
:103240002072616469616E73202D3E207B6C207258
:103250007D0000007B565F7D202D20676574207601
:10326000656C6F6369747920666F72207768656535
:103270006C732C206D2F73202D3E207B6C20727D73
:10328000000000007B445F7D202D20676574206472
:10329000697374616E636520666F72207768656517
:1032A0006C732C206D6D202D3E207B6C20727D0078
:1032B0007B455F7D202D2067657420656E636F649C
:1032C000657220646174612D3E7B6C20727D00000C
:1032D0007B4F206C20725F7D202D20736574205001
:1032E000574D20666F72206D6F746F72202D3E20D7
:1032F0004F6B0000257325632573256325732563B4
:10330000257325632573256325732563257325633D
:10331000257325632573256325732563257325632D
:1033200000000000154808B5016841F48001016003
:103330000068002200F48000009011463920FEF75A
:1033400083FC3920FEF772FC002211463A20FEF77A
:103350007BFC3A20FEF76AFC002211464520FEF76E
:1033600073FC4520FEF762FC002211464620FEF762
:103370006BFCBDE808404620FEF758BC30380240E0
:103380002DE9F04387B014216846FDF7B3F82748CC
:103390000024016841F004010160016801F00401AA
:1033A0000591016841F001010160016801F001012E
:1033B0000591016841F00201016000681C4F00F0B6
:1033C00002004FF460450590002229463846FEF77A
:1033D000C7FBDFF86080002280214046FEF7C0FB7B
:1033E000DFF8549043F21006002231464846FEF7BB
:1033F000B7FB00950125CDE9015469463846039491
:10340000FEF7B6FA80200090CDE9015469464046A7
:103410000394FEF7ADFA0096CDE90154694648469B
:103420000394FEF7A5FA07B0BDE8F08330380240F8
:1034300000080240000002400004024010B588B0BD
:103440001C216846FDF756F8144813490024016012
:103450004FF4A071C0E9011444F62061C0E90314DF
:103460008461FEF719FF08B172B6FEE70B48FFF75B
:1034700013FA08B172B6FEE7009401940294002298
:10348000694606480494FFF7DDF9002801D072B6BA
:10349000FEE708B010BD000000440140F401002028
:1034A00010B588B01C216846FDF724F8134812496E
:1034B000002401602021C0E9011444F63821C0E94C
:1034C00003148461FEF7E8FE08B172B6FEE70B480C
:1034D000FFF7E2F908B172B6FEE700940194029496
:1034E0000022694605480494FFF7ACF9002801D092
:1034F00072B6FEE708B010BD004801403C02002053
:1035000030B58BB024216846FCF7F4FF0024164840
:1035100009944FF080450A94C0E90054611EC0E947
:103520000241046184610220CDE900040120CDE95B
:1035300002040494CDE90540079469460A480894BA
:10354000FEF70AFF08B172B6FEE7099409A906481A
:103550000A94FEF763FE08B172B6FEE7E86840F031
:103560000400E8600BB030BD8C00002010B58AB0BC
:10357000002407941C2168460894FCF7BBFF2248EE
:10358000204901603221C0E901144FF47A71C0E989
:1035900003148461FFF714FA08B172B6FEE70794CA
:1035A00007A919480894FEF739FE08B172B6FEE77C
:1035B0006020CDE900040294002269461248049478
:1035C000FFF798F908B172B6FEE7042269460E4883
:1035D000FFF790F908B172B6FEE7082269460A487B
:1035E000FFF788F908B172B6FEE70C226946064873
:1035F000FFF780F908B172B6FEE70348FFF7B6F8A7
:103600000AB010BD00040040D400002010B58AB0FC
:10361000002407941C2168460894FCF76BFF22489D
:10362000204901602021C0E9011444F63821C0E995
:1036300003148461FFF7C4F908B172B6FEE707947A
:1036400007A919480894FEF7E9FD08B172B6FEE72C
:103650006020CDE9000402940022694612480494D7
:10366000FFF748F908B172B6FEE7042269460E4832
:10367000FFF740F908B172B6FEE7082269460A482A
:10368000FFF738F908B172B6FEE70C226946064822
:10369000FFF730F908B172B6FEE70348FFF766F8A6
:1036A0000AB010BD000800401C01002010B58CB00D
:1036B00024216846FCF71EFF00241548099413498D
:1036C0000A94C0E90014611EC0E9024104618461EA
:1036D0000220CDE900040120CDE902040494CDE9E3
:1036E0000540079469460A480894FEF735FE08B17C
:1036F00072B6FEE7099409A905480A94FEF78EFD03
:10370000002801D072B6FEE70CB010BD000C0040DE
:103710006401002010B588B01C216846FCF7EAFE61
:1037200016481549002401608915C0E901144FF4B9
:103730007A71C0E903148461FFF742F908B172B6E7
:10374000FEE76020CDE900040294002269460B48A0
:103750000494FFF7CFF808B172B6FEE70422694679
:103760000648FFF7C7F808B172B6FEE70348FEF750
:10377000FDFF08B010BD000000400140AC0100207A
:1037800010B50F480D4C4FF4E131C0E90041002164
:1037900081600C22C160C0E904128161C161FFF740
:1037A0006DFB08B172B6FEE706492020C1F80001A2
:1037B000E06840F02400E06010BD0000001001400F
:1037C0008402002004E000E0FEE7FEE770B52DED86
:1037D000028B0446B0EE608A10EE100A01F0B8FDCC
:1037E00041EC100B0FA153EC102B2046FCF7D2FD3F
:1037F000C5B22C44202004F8010B18EE100A01F089
:10380000A7FD41EC100B07A153EC102B2046FCF751
:10381000C1FDC0B25F2222542844BDEC028B801C43
:1038200070BD00002566000070B514460E460246C5
:1038300009A12046FCF7AEFDC5B22C44202004F8B7
:10384000010B324604A12046FCF7A4FDC0B25F2262
:1038500022542844801C70BD2564000070477047C6
:1038600040F666014843B421B0FBF1F0024900F58F
:10387000AF700860704700003448014040F66601B0
:103880004843B421B0FBF1F0024900F5AF70086085
:10389000704700003408004040F666014843B421F8
:1038A000B0FBF1F0024900F5AF700860704700000E
:1038B0003808004040F666014843B421B0FBF1F0FF
:1038C000024900F5AF700860704700003C080040F6
:1038D0000F48124990ED000A0E48D0ED000A30EE74
:1038E000601ADFED0D0A21EE201A81ED001A0C4955
:1038F000D0ED011A91ED001A0A4971EE611A61EEDC
:10390000A00AC1ED000A80ED000A80ED011A70479F
:103910004800002000000020000048422C00002049
:103920004C000020300000202DE9F04100F0B6FFEF
:1039300001F064F84E4D50246C6300214D48FFF7B0
:103940009FF8AC6304214B48FFF79AF84A480024DB
:103950003C210460494804604948FEF7B9FD2D0444
:103960006FF000466E63771EAF633C214548FEF75B
:10397000AFFD6E63AF6344490120086000214348F6
:10398000FFF7D6F840482838016841F0010101608E
:103990003F4804603E494FF47A70091D0860081DD5
:1039A0000460001D046000213A48FFF769F8042113
:1039B0003848FFF765F808213648FFF761F80C2111
:1039C0003448FFF75DF8344840F2DC5505600021CB
:1039D0003248FFF7ADF830482838016841F001015E
:1039E00001602F48056000212E48FFF749F82C4858
:1039F000001D056004212B48FFF742F828480830D5
:103A0000056008212748FFF73BF825480C30046083
:103A10000C212448FFF734F87D20FFF721FFB42064
:103A2000FFF72CFFB420FFF737FFA020FFF742FF7E
:103A30001D487D219FED1D0A0180B42141808180B8
:103A4000A021C1805D210181194880ED000A1A483A
:103A50009FED180A80ED000A19489FED180A80EDC5
:103A6000000A18489FED180A80ED000ABDE8F081B1
:103A700000400140AC010020400000204400002034
:103A80008C0000206401002034440140F401002037
:103A900034040040D4000020344801403C0200209F
:103AA000340800401C010020680700200000FA4490
:103AB000580000200000C8425C0000200000FA43CB
:103AC00060000020380000200000000070B5294D83
:103AD0003221294C6868B0FBF1F201FB12021AB9DD
:103AE000227842F0020222701422B0FBF2F302FBB1
:103AF00013021AB9227842F004022270B0FBF1F2EC
:103B000001FB120119B9217841F0080121704FF42D
:103B1000FA71B0FBF1F201FB120020B94FF4005131
:103B20001648FEF715F868684FF00003401C6860FF
:103B3000227891060DD5124EA9683668B14206D397
:103B400022F0200141F040012170AB6001E0491CEE
:103B5000A960A0F5EA412F3900D16B602078C0063A
:103B600003D508480168491C0160BDE87040FEF7B4
:103B700003B8000070000020280000200008024068
:103B8000680000206C00002030B593B030216846FA
:103B9000FCF7B0FC14210CA8FCF7ACFC1C4800247A
:103BA000016841F080510160006800F08050119080
:103BB0001848016841F4404101600068022500F4A2
:103BC000404011900120039010200490009506952C
:103BD0000820CDE907404020CDE9090504200B90DD
:103BE0006846FEF74FF908B172B6FEE70F20CDE93F
:103BF0000C058020CDE90E0401210CA81094FEF7DD
:103C000055F8002801D072B6FEE713B030BD0000B1
:103C100040380240007000400248016841F47001E1
:103C20000160704788ED00E010B5094C1021204676
:103C3000FDF78EFF07480068C00704D0012210215D
:103C40002046FDF78DFFBDE810400348FEF7DABCC3
:103C500000040240104801403C02002010B58021C1
:103C60000748FDF775FF07480068C00702D00649FE
:103C700000200860BDE810400448FEF7C3BC000007
:103C8000000002401044014024040040F4010020E0
:103C90000148FEF7B7BC00008C0000200148FEF789
:103CA000B1BC000064010020F0B502681D4B1E4C41
:103CB0009F031E4D1E4E984207D0B84205D0A04229
:103CC00003D0A84201D0B04204D122F0700C4A685F
:103CD00042EA0C02984210D0B8420ED0A0420CD05A
:103CE000A8420AD0B04208D0124CA04205D0124CD3
:103CF000A04202D0114CA04203D122F44074CA6801
:103D000022434C6922F08002224302608A68C26228
:103D10000A688262984201D1096901630121416107
:103D2000F0BD000000000140000400400008004019
:103D3000000C0040004001400044014000480140A8
:103D400010B501F01F030121046A99408C430462FD
:103D5000016A9A401143016210BD000030B5026A49
:103D600022F001020262026A4368846924F073054A
:103D70000C682C4322F002058A682A430A4DA842A7
:103D80000BD122F00805CA6823F440732A434D6919
:103D900022F004021D438B692B4343608461496810
:103DA0004163026230BD00000000014030B5026A8C
:103DB00022F010020262026A436884690D6824F4EA
:103DC000E64444EA05248D6822F0200242EA051206
:103DD0000B4DA8420ED1CD6822F0800242EA0512B6
:103DE0004D6923F4406343EA85038D6922F0400264
:103DF00043EA85034360846149688163026230BDA0
:103E00000000014030B5026A22F480720262036A47
:103E10004268C46923F4007324F073050C682C43D2
:103E20008D6843EA05230C4DA8420ED1CD6823F4DA
:103E3000006343EA05234D6922F4405242EA051229
:103E40008D6923F4806342EA05124260C4614968C7
:103E5000C163036230BD00000000014030B5026A5A
:103E600022F480520262046A4268C3690D6823F436
:103E7000E64343EA05238D6824F4005444EA0534FC
:103E8000064DA84204D14D6922F4804242EA8512CF
:103E90004260C36149680164046230BD00000140B2
:103EA00009485A2101704121417045218170422108
:103EB000C17049210171432141715F218171014626
:103EC00007220248FFF7D8B8AC0400208402002083
:103ED00010B5806B0021C185C184FEF79AFE10BD2C
:103EE00070B5846B2068406994F83D10C0F3C01031
:103EF0000025212904D118B1E584204600F062F89C
:103F00002068406994F83E10C0F38010222904D143
:103F100018B1E585204600F02EF8206C40F0100026
:103F200020642046FEF775FE70BD10B50146806B1B
:103F300009680968C90516D40021C18401681431D3
:103F400051E8002F22F0800241E80023002BF5D138
:103F500001680C3151E8002F42F0400241E8002393
:103F6000002BF5D110BDFFF7CDF810BD10B5806B5B
:103F7000FFF7C9F810BD01680C3151E8002F22F499
:103F8000907241E80023002BF5D10168143151E80B
:103F9000002F22F0010241E80023002BF5D1016B34
:103FA000012909D101680C3151E8002F22F01002DB
:103FB00041E80023002BF5D1202180F83E1000219C
:103FC0000163704701680C3151E8002F22F0C002F4
:103FD00041E80023002BF5D1202180F83D107047E7
:103FE00008B590F83E10222901D0022008BD826851
:103FF0004FF480539A4201D1016921B1816A9A42FA
:104000001BD04AB10AE00268816A5268C2F3080212
:104010000A80816A891C08E0026972B102685268EC
:1040200002F07F020A70816A491C8162C18D491EBB
:104030000904090CC18503D019E002685268F1E750
:104040000168CA6822F02002CA600168CA6822F4C6
:104050008072CA6001684A6922F001024A61202127
:1040600080F83E10016B012903D0FFF703F8002010
:1040700008BD0021016301680C3151E8002F22F0D6
:10408000100241E80023002BF5D101680A68D2062E
:1040900002D50A6849680091818DFEF7B9FDE6E70F
:1040A00070B5044600680169E26821F4405111438B
:1040B00001612169A068E26908436169114308430D
:1040C0002168CA6849F20C639A430243CA602068B7
:1040D0004169A26921F4407111434161314920686D
:1040E000884202D03049884202D1FDF789FE01E0C2
:1040F000FDF776FEE2690023192164253226B2F528
:10410000004F626828D0A0FB0101930F9200FCF7DA
:10411000C9F80146B0FBF5F06FF01802504301EB0F
:10412000800006EB0010B0FBF5F000F0F002B1FBF0
:10413000F5F002EB0012B1FBF5F06FF018035843F5
:1041400001EB800006EB0010B0FBF5F000F00F0073
:1041500021681044886070BDA0FB010192185B418A
:10416000FCF7A0F80146B0FBF5F00201B1FBF5F059
:104170006FF01803584301EB800006EBC000B0FB62
:10418000F5F000F0F80002EB4002B1FBF5F0584307
:1041900001EB800006EBC000B0FBF5F000F007007B
:1041A000D6E70000001001400014014016484368A3
:1041B0001748164A01785354491CC9B20A44017081
:1041C00012F8012C202A02D05F2A07D002E043789F
:1041D0005B1C437000230D2A14D000E00123002251
:1041E00013430CD00B4A0C4B117000210170427824
:1041F0001A7041700948017841F0010101700848C6
:10420000FEF708BD0122EBE7001001408C040020FE
:10421000700000203C0000206400002028000020E6
:10422000840200200148FEF7F5BC0000C80200200F
:104230002DE9F05F2DED088B00221446FA48FB496A
:1042400006788D78012E20D1F9480078401E2D2D5A
:1042500001D0022317E0032308E0CF5C02EB8202C7
:1042600027F030075B1C07EB4202DBB28342F4DB32
:1042700052420AE0CF5C02EB820227F030075B1C5F
:1042800007EB4202DBB28342F4DB022E3FD12D2D3D
:1042900001D0022018E0032008E000BF23F0300323
:1042A00002EB8202401C03EB4202C0B20B5C202BEB
:1042B000F4D152420BE000BF23F0300302EB820244
:1042C000401C03EB4202C0B20B5C202BF4D10B1854
:1042D0005B782D2B0FD1801C07E000BF23F030034B
:1042E00004EB840403EB4404401CC0B20B5C5F2B62
:1042F000F4D164420BE0401CC0B20B5C5F2B06D0D3
:1043000023F0300304EB840403EB4404F3E7CC48CC
:1043100091F800C0CB4DC94990ED000A2878DFF82C
:104320001493DFF814A391ED008AC74EC74F40F0F5
:104330002000BCF1520F56D014DC9FEDC51ADFF8F7
:1043400014B34FF4AA73ACF1440CC3F10001BCF1F7
:104350000C0F6ED2DFE80CF0433A6D8C316DF66DC8
:104360006D6E6D35BCF1640F7DD012DCDFF8E88234
:10437000BCF1530F78D0BCF1540F76D0BCF1560F7E
:1043800057D1B749B548D1ED000AB64991ED000AB9
:104390004CE0BCF1690F69D0BCF1700F67D0BCF183
:1043A000720F46D14FF0804100204862AE4908604C
:1043B000C9F80000CAF800002CE1A848FEF7A6FEE4
:1043C0000BE011B220B200F029FB23E1A34AD9F897
:1043D0000010DAF80000FFF727FA0246F9E09F48DC
:1043E000F0EE480A22E0F0EE008A20EE280A10EEF5
:1043F000100A00F0ADFF9FED9D9B53EC192B00F0D0
:1044000037FC00F05BFB68EE280A0AEE100A10EE9B
:10441000900A00F09DFF53EC192B00F029FC00F0EE
:104420004DFB00EE900A8D48B0EE4A0AFFF7CEF938
:10443000D3E7F5E09A4201DB1A4602E08A4200DC4B
:104440000A4600EE102A8B48B8EEC00AC0EE010AF8
:1044500000EE104AB8EEC00ACBED000AC0EE010A29
:10446000C0ED000AD6E06EE073E0A4E062E05BE03D
:104470009A4201DB1A4602E08A4200DC0A4640F218
:10448000A6504142844201DB044602E08C4200DC3B
:104490000C4600EE102A7848B8EEC00AC0EE019A29
:1044A00000EE104AB8EEC00A80EE019AC0ED009A04
:1044B000724880ED009A19EE100A00F049FF9FED56
:1044C00070BB53EC1B2B00F05BFD9FED6FAB53EC0F
:1044D0001A2B00F055FD41EC180B19EE900A00F074
:1044E00037FF53EC182B00F01BFB00F0E7FACBF87A
:1044F000000019EE100A00F02BFF53EC1B2B00F00C
:104500003FFD53EC1A2B00F03BFD41EC180B19EE6C
:10451000900A00F01DFF53EC182B00F02FFE00F066
:10452000CDFA5449086075E000EE102A5848B8EEFC
:10453000C00A04E000EE102A5648B8EEC00A80ED2A
:10454000000A67E04DE000EE102A5348B8EEC00ABA
:10455000F5E7062A2AD2DFE802F02903070B0F133A
:10456000A0B2FFF77DF921E0A0B2FFF787F91DE0C7
:10457000A0B2FFF791F919E0A0B2FFF79BF915E09F
:104580000921002C08DDC823634393FBF1F131605E
:10459000287040F26E5008E06FF0C7036343B3FB2E
:1045A000F1F1316028704FF4B960386008EB4200D7
:1045B00020F8024C2EE008EB420038A130F8022C23
:1045C0002648FBF7E7FE254A80B20D211154401C16
:1045D00082B2BDEC088BBDE8F05F20493048FEF7A1
:1045E0004BBD4FF47A7822B1012A0CD0022A17D1A0
:1045F0000CE02C4829A102681848FBF7CBFE28786C
:1046000020F010002870287840F020002870C6F8AC
:1046100000803C60BDEC088BBDE8F05FFFF740BC5C
:10462000BDEC088BBDE8F09F640000208C040020E6
:104630003C00002040000020440000204C000020EE
:1046400048000020280000206800002040080040AA
:1046500000007A443400002068070020AC040020E9
:10466000300000202C000020240C0040E17A14AE21
:1046700047E1BA3F380000205000002054000020DD
:1046800014AE47E17A14CE3F000000000000E03F86
:1046900058000020600000205C000020256400001D
:1046A000840200206C00002010B524482DED088BFA
:1046B00030EE608A90ED000A20EE080A10EE100A33
:1046C00000F046FE41EC1B0B1D4890ED000A20EE69
:1046D000080A10EE100A00F03BFE1A4C94ED041B81
:1046E00053EC112B00F01CFA41EC190B94ED010A6C
:1046F000154838EE400AD0ED000A20EE200A10EEF0
:10470000100A00F025FE41EC1A0B53EC192B51EC6A
:104710001B0B00F005FA53EC1A2B00F001FA00F025
:10472000FFFB00B284ED018A00F1090184ED049BD6
:10473000132900D20020BDEC088B10BD58000020CA
:1047400060000020080000205C00002010B5254813
:104750002DED088B30EE608A90ED000A20EE080AFD
:1047600010EE100A00F0F4FD41EC1B0B1E4890ED1A
:10477000000A20EE080A10EE100A00F0E9FD1B4CBA
:1047800094ED061B53EC112B00F0CAF941EC190B08
:1047900094ED020A164838EE400AD0ED000A20EEE9
:1047A000200A10EE100A00F0D3FD41EC1A0B53EC76
:1047B000192B51EC1B0B00F0B3F953EC1A2B00F042
:1047C000AFF900F0ADFB00B2208084ED028A00F169
:1047D000090184ED069B132900D20020BDEC088B53
:1047E00010BD0000580000206000002008000020DC
:1047F0005C000020FEE703B401984100009850EAF5
:10480000C12018BF04204A0D18BF40F0010040F23B
:10481000FF72B2EB515F08BF40F00200012808BFF1
:10482000052002B070470907090E002804DB00F1DB
:10483000E02080F80014704700F00F0000F1E02045
:1048400080F8141D70470000074910B58863074CB5
:10485000002289142046FDF783F920460122BDE895
:1048600010405103FDF77CB90040014000040240B4
:10487000084910B58863084C012289142046FDF7C9
:104880006FF92046BDE8104000224FF40051FDF7BB
:1048900067B90000004001400004024010B5064C1A
:1048A000012211032046FDF75BF920460122BDE8F5
:1048B00010405103FDF754B900040240FDF764F9BC
:1048C000FFF762F9FEF75CFDFEF72CFDFEF718FE20
:1048D000FEF79CFEFEF7EAFEFEF71CFFFEF750FF18
:1048E000FEF744FEFEF7AAFDFEF7DAFD2A48294945
:1048F0000C2201604FF4E131416000218160C16010
:10490000C0E904128161C161FEF7B8FA08B172B65C
:10491000FEE7002211461C20FDF796F91C20FDF74A
:1049200085F9FFF701F81D4C2078C00705D0FFF787
:104930007FFC207820F0010020702078400705D50A
:10494000FEF7C6FF207820F00400207020780007D2
:1049500013D5D4ED010A94ED030AFFF7A5FE054631
:10496000D4ED020A94ED040AFFF7F0FE294600F0A8
:1049700055F8207820F00800207020784106D3D523
:1049800020F040009FED060A84ED040A84ED030A3E
:104990002070C9E700140140C80200202800002050
:1049A00000000000084910B54863084C00224FF48D
:1049B00080412046FDF7D4F820460122BDE8104092
:1049C000D103FDF7CDB800000040014000080240CF
:1049D000084910B54863084C012291032046FDF7B1
:1049E000BFF82046BDE8104000224FF40041FDF71B
:1049F000B7B80000004001400008024010B5064C66
:104A0000012291032046FDF7ABF820460122BDE8C4
:104A10001040D103FDF7A4B80008024070B50C4661
:104A20004142002801DB024600E00A46642A01DD1B
:104A3000012300E000236542002C01DB224600E058
:104A40002A46642A01DD012200E0002213431DD022
:104A5000002803DD80B2FFF70BFF06E002D1FFF76D
:104A60001DFF02E088B2FFF7EFFE002C04DDA0B2CC
:104A7000BDE87040FFF7ACBF03D1BDE87040FFF761
:104A8000BDBFA8B2BDE87040FFF78CBF70BD00008D
:104A900010B500290AD00878002807D005487844C6
:104AA000FCF71CF9002801D0002010BD0248784412
:104AB00010BD0000D20A0000CA0A000021F0004226
:104AC000A2F16052B2F5801F01F0004328BFD2F17D
:104AD0007F6C0BD95FEA001C43EAC20242EB5070C4
:104AE00018BF704728BF20F001007047B2F5801F43
:104AF000BCBF184670474FEA410C1CF5001F02D29C
:104B0000084600F09BBC70B500F0E4FA0000008994
:104B1000FFF7F6BF4FF00040A0F58000704700009F
:104B200010B591EA030F48BF83F0004300F12E83D4
:104B3000841A71EB030C05D2121943EB0C03001B12
:104B400061EB0C01DFF824E14FEA1154A4EB135C94
:104B50001EEA430F18BF9EEA445F73D023EA0E0398
:104B6000DCF1200E21EA045143F4801332D322FAFF
:104B70000CFE10EB0E0023FA0CFE41EB0E01CCF103
:104B8000200E03FA0EFE10EB0E0051F10001B1F5FC
:104B9000801FCCF1200E32D201EB045112FA0EF23A
:104BA000BDE8104058BF7047401C38BF5FEA420262
:104BB00018BF7047002814BF20F0010041F1000128
:104BC0004FEA410313F5001F38BF7047A1F1C04100
:104BD00000F0CEBA012A43EB0302ACF1200CDCF169
:104BE0001F0E32BF4FF0000E23FA0CF310EB030040
:104BF00041EB0451B4EB115FD0D0A1EB045101F5AE
:104C0000801149085FEA300001EB04510ED350F1E6
:104C1000000038BF12FA0EFE08D1BDE81040C9E707
:104C2000401C38BF5FEA4202CAD1C3E7BDE810406A
:104C30004FEA410313F5001F38BF7047A1F1C0418F
:104C400000F096BA9EEA445F08D011EA5E0FBDE814
:104C5000104004BF01F0004100207047BDE8104043
:104C600070B500F037FA00BF64FBBE3E0000E0FF05
:104C70002DE9C04130B4DFF8A0C23CEA111418BFDE
:104C80003CEA131400F0EC8081EA03051CEA1114DD
:104C900044EAD57418BF1CEA131500F0C780A4EBD2
:104CA00005044FF0004545EAC12145EAC32341EA26
:104CB000505143EA525304F17F74994204F5003491
:104CC0004FEAC0204FEAC22208BF904200F09C8009
:104CD0004FEA13650FF24016765D4FEA134506FB67
:104CE00005F7C7F1807706FB07F74FEAD737A7FB31
:104CF00003687642C8F58038A7FB06CE38BFA8F116
:104D0000010807FB08E64FF0000EA6FB028CE6FB4D
:104D100003CEDCF1000CCEF1004E38BFAEF1010E37
:104D2000A6FB0C584FF000074FF00005E6FB0E877E
:104D3000A1FB08C6A0FB07CE16EB0E0645F1000549
:104D4000E1FB076515F1E04E7EBFA4F580345FEA14
:104D500046066D4116F1800745F100054FEA172719
:104D60004FEA066647EA0567A6F1DE46B6F1805FC0
:104D70004FEA15251FD9384624F0010C05EBC47104
:104D8000BCF1FE6F01EB0C1102D8F0BCBDE8008154
:104D900024425CBF01F5801E9EEAC47F02D4F0BCB1
:104DA000BDE80081244238D4F0BCA1F1C041BDE887
:104DB000004100F0DDB94FEAD22242EA43524FEA05
:104DC000D323A7FB02864FEAD02040EA415007FBDD
:104DD00003661EEA0E0F4FEAD12105FB026658BF9B
:104DE000A6EB0056B6EB00564FEA520E4EEAC37ED3
:104DF00018EB0E0E56EB530EBDD518EB02085E41B4
:104E00007F1C55F10005B6E74FF480154FF0000701
:104E10004FF000064FF00008ADE7F0BC4FF0000087
:104E200001F1C04101F00041BDE8008111EA0C1F11
:104E30000CEA131500D00CE013EA0C1F00F02580DB
:104E40004FF00000F0BC81EA030101F00041BDE831
:104E50000081F0BCBDE8004181EA030100F088B99F
:104E6000F0BCBDE8004170B500F034F9097EFC3EAD
:104E700000F007B881EA03014FF0000001F00041A3
:104E8000704781EA030100F073B9F0BCBDE800414E
:104E90004FF0000021497047FFFDFBF9F7F5F4F2F0
:104EA000F0EEEDEBE9E8E6E4E3E1E0DEDDDBDAD8C5
:104EB000D7D5D4D3D1D0CFCDCCCBCAC8C7C6C5C423
:104EC000C2C1C0BFBEBDBCBBBAB9B8B7B6B5B4B33A
:104ED000B2B1B0AFAEADACABAAA9A8A8A7A6A5A425
:104EE000A3A3A2A1A09F9F9E9D9C9C9B9A999998E9
:104EF0009797969595949393929191908F8F8E8E8C
:104F00008D8C8C8B8B8A8989888887878685858418
:104F100084838382828181800000FF070000F87F04
:104F20004FEA41034FEA5353A3F58063D3F11E03C5
:104F3000C8BFD3F1210C0CDD4FF0004242EAC12280
:104F400042EA505232FA03FC8CEAE17CACEBE170AD
:104F50007047102BC4BF0020704703F5787CBCF16C
:104F6000FF3F04D06FF0004282EA2100704770B525
:104F700000F0B0F84992248000207047F2E700006A
:104F8000DFF848C170B51CEA111E1EBF1CEA1315DC
:104F90009EEA0C0F95EA0C0F00F06F8081EA030483
:104FA00023EA4C134EEAD47E21EA4C1141F48011DD
:104FB00043F48013AE44A1FB024CA0FB0365AEF1A9
:104FC0007F7E361955EB0C05A1FB034C4CF1000319
:104FD000A0FB021C16EB0C06654153F100030942CD
:104FE00018BF46F0010613F4007F0BD14FEA0331DE
:104FF0004FEA0530340341EA155140EA16506FF08C
:1050000003020AE04FEAC3214FEAC520F40241EA55
:10501000555140EA56506FF0020202EB2E4201EB6E
:10502000025585EACE710AD05FEA440C18BF24F01D
:10503000004450F1000041F1000120EAD47040F238
:10504000FE7C624500D270BDA84214BF4FF0804480
:105050004FF04044002E08BF0024BEF1806FA8BF6F
:10506000A1F1C041BDE8704080F282804FF00000A5
:1050700001F1C04101F0004170479EEA0C0F0CEABB
:10508000131518BF95EA0C0F06D04FF0000081EA07
:10509000030E0EF0004170BD00F01CF88900013EC7
:1050A00000F007B800F009B84FEA430C5FEA5C5C17
:1050B00008D081EA030100F05BB84FEA410C5FEAD7
:1050C0005C5CF6D14FF00000014970470000FF071B
:1050D0000000F87F0EF1020E2EF0030E5EF8046B56
:1050E000364205D4012A43EB030515F5001F12D8FB
:1050F000012841EB010C1CF5001F0CD80ED14FEA22
:10510000D17C15F5001F0CEB4C0C0CF1020C08BF08
:105110004CEBD37C04E04FF0080C01E04FEAD37C69
:105120000CEB4C0526FA05F606F00706B6F1040C62
:1051300006D20EEB860CBDE870404CF0010C6047C7
:10514000DFE80CF0090B02024FF000414FF00000C5
:10515000A1F5002170BD19461046012851EB01044C
:1051600018BFD4F5001484BF002001F0004170BDC9
:105170000808A0F500114FEA3101704710B591EA17
:10518000030F48BF83F000433FF5D2AC841A71EBA4
:10519000030C07D212198CF0004C43EB0C03001BDC
:1051A00061EB0C01DFF8A4E14FEA1154A4EB135CAE
:1051B0001EEA430F18BF9EEA445F00F0B08023EA66
:1051C0006E03524221EA0451C3EB6E0338BF5B1EEB
:1051D000DCF1200E25D322FA0CFE10EB0E0043FA70
:1051E0000CFE41EB0E01CCF1200E03FA0EFE10EB8B
:1051F0000E0051F10001CCF1200E29D412FA0EF26A
:1052000001EB0451BDE8104058BF7047401C1CBF63
:10521000B2F1004F704700280CBF491C20F001007C
:10522000704712EB020E43EB030218BF4FF0010E62
:105230004EEA4202ACF1200CDCF11E0E54D943FAC6
:105240000CFE10EB0E0051F1FF31CCF11E0ED5D546
:105250000EF1010E12FA0EFE404141EB010101EB8D
:10526000445C5FEA5C5C10D910EBDE7001EB04512A
:1052700038BFBEF1004FBDE8104018BF704700288E
:105280000CBF491C20F00100704730D24FEAD42CEB
:1052900011F5001124F400641BD0B1FA81F20B3A2D
:1052A000A41AA41ED2F12003914030FA03F319434B
:1052B000904001EBCC71002C01EB0451BDE8104093
:1052C000A8BF704701F1C0414FF0000001F000415C
:1052D0007047B0FA80F310FA03F100D110BDE41A60
:1052E000173C4805C90AE4E701EB045110BD491019
:1052F00001EB0451BDE810404FEA300002E04FF0EE
:10530000000170474A0008BF0042F8D0B2F5001F04
:1053100028BF704701F000414FF0000070479EEA3F
:10532000445F07D011EA5E0FBDE8104004BF0021C2
:1053300000207047BDE8104070B5FFF7CBFE00BFFE
:1053400040DFF63E83F00041104670470000E0FF6A
:1053500043004FEAD30C4FEA3C0C43401FBF4007C9
:105360000CF1605113F0FE4F70471CF0006F03D139
:1053700000200CF0004170470CF0004343EA5070ED
:1053800010B540EACC0000F00EF800BF000000921B
:105390004FEA0001FFF7ECBE4FF000414FF0000074
:1053A000A1F5002170470EF1020E2EF0030E5EF8FB
:1053B000044B244204D44FEA4102B2F17F4F11D88A
:1053C0004FEA4003B3F17F4F0CD80ED14FEAD07CA7
:1053D000B2F17F4F0CEB4C0C0CF1020C08BF4CEB04
:1053E000D17C04E04FF0080C01E04FEAD17C0CEBDB
:1053F0004C0324FA03F404F00704B4F1040C06D2BD
:105400000EEB840CBDE810404CF0010C6047DFE867
:105410000CF0070802024FF00040A0F5800010BD1C
:105420000846420018BFD2F1807288BF00F00040E9
:1054300010BD4FF04070E1EE100A7047FF2141EAC5
:10544000D050C0057047FBF7B1B900061016000632
:10545000101600000000000000000102030406070F
:1054600008090000000001020304000002400000DF
:10547000000000A00000000005400000000000C87F
:10548000000000000C4000000000409C00000000F4
:10549000194000000020BCBE0000000034400000A5
:1054A000BFC91B8E00000004B5400000504BCFD098
:1054B0006607E2CF010000006C4100003E8251AA65
:1054C000DFEEA73401000000D9420000DCB5A0E205
:1054D0003A301F97FFFFFFFFB4450000FD25A0C82D
:1054E000E9A3C14FFFFFFFFFFF3F00000000008066
:1054F00000000000FF3F00000000008000000000EE
:105500007B47206C20725F7D202D20736574207690
:10551000656C6F6369747920616E6420616E677574
:105520006C61722076656C6F6369747920666F7246
:1055300020726F626F74206D6D2F732C2072616406
:105540002A313030302F73202D3E204F6B00000069
:105550008C550008000000208C000000D4010008D9
:10556000185600088C0000204C0D0000F0010008C7
:105570001C00000043000000F8FFFFFF0C000000CB
:105580000E0000000F0000002E00000000000000D0
:10559000000000000000000000000000000000000B
:1055A00000000000000000000000000000000000FB
:1055B00000000000000000000000000000000000EB
:1055C00000000000000000000000000000000000DB
:1055D00000000000000000000000000000000000CB
:1055E00000000000000000000000000000000000BB
:1055F00000000000000000000000000000000000AB
:105600000000000000000000010000001000000089
:08561000000000000024F4007A
:040000050800019955
:00000001FF
