:020000040800F2
:10000000B80900203902000833260008B52100088D
:10001000312600082F040008452F000800000000CA
:10002000000000000000000000000000372600086B
:10003000C50400080000000035260008B9270008A4
:10004000530200085302000853020008530200083C
:10005000530200085302000853020008530200082C
:10006000530200085302000853020008530200081C
:10007000530200085302000853020008530200080C
:100080005302000853020008530200080000000059
:100090000000000000000000000000005302000803
:1000A00053020008912800085D2800085302000848
:1000B000C5280008D1280008530200085302000890
:1000C00053020008530200085302000853020008BC
:1000D000530200080D2E0008530200080000000023
:1000E00053020008530200085302000800000000F9
:1000F00000000000000000000000000053020008A3
:1001000000000000530200085302000853020008D8
:1001100000000000000000000000000000000000DF
:10012000530200085302000831040008530200087B
:100130005302000800000000000000000000000062
:100140000000000000000000000000005302000852
:1001500053020008530200083D040008530200083F
:1001600053020008530200080000000000000000D5
:10017000000000000000000000000000000000007F
:100180000000000053020008000000000000000012
:10019000530200085302000800F002F800F03CF897
:1001A0000AA090E8000C82448344AAF10107DA45D2
:1001B00001D100F031F8AFF2090EBAE80F0013F0E8
:1001C000010F18BFFB1A43F001031847D42E00009B
:1001D000F42E0000103A24BF78C878C1FAD852072C
:1001E00024BF30C830C144BF04680C6070470000B1
:1001F0000023002400250026103A28BF78C1FBD830
:10020000520728BF30C148BF0B6070471FB502F0CE
:1002100031FF1FBD10B510BD00F0CFF81146FFF73C
:10022000F5FF02F0A1FE00F0EDF803B4FFF7F2FFD6
:1002300003BC00F0F5F80000094880470948004772
:10024000FEE7FEE7FEE7FEE7FEE7FEE7FEE7FEE786
:10025000FEE7FEE704480549054A064B70470000E3
:100260004D28000899010008B8030020B8090020B3
:10027000B8050020B805002053EA020C00F06980A0
:100280002DE9F04B4FF00006002B1FBFB3FA83F5AA
:1002900003FA05F424FA05F65E4012BF1643B2FADB
:1002A00082F502FA05F4C5F120051EBF22FA05FC0D
:1002B00044EA0C04203556EA044C4FEA144418BFB3
:1002C000641C4FF000084FF00009904271EB030CE2
:1002D00039D3002919BFB1FA81F701FA07F6B0FA4C
:1002E00080F700FA07F6C7F120071EBF20FA07FCC7
:1002F00046EA0C062037B6FBF4FCA7EB0507103FD7
:1003000007F01F0BCBF120060CFA0BFB2CFA06F6BC
:1003100044BFB3460026202FA4BF5E464FF0000B1B
:100320005BEA060C08BF4FF0010B19EB0B09ABFBA6
:10033000027C48EB0608C01B06FB02CC0BFB03CC7F
:1003400071EB0C01C1E70B46024641464846BDE849
:10035000F08B13B54FF000004FF00001AFF30080B9
:10036000BDE81C4070474FF0000200B513469446AC
:100370009646203922BFA0E80C50A0E80C50B1F1FD
:100380002001BFF4F7AF090728BFA0E80C5048BF11
:100390000CC05DF804EB890028BF40F8042B08BFAF
:1003A000704748BF20F8022B11F0804F18BF00F8AB
:1003B000012B7047704770477047754600F02CF866
:1003C000AE4605006946534620F00700854618B042
:1003D00020B5FFF73FFFBDE820404FF000064FF08B
:1003E00000074FF000084FF0000B21F00701AC466A
:1003F000ACE8C009ACE8C009ACE8C009ACE8C00989
:100400008D46704710B50446AFF300802046BDE826
:100410001040FFF70ABF0000004870475403002057
:1004200001491820ABBEFEE7260002007047FEE738
:10043000014800F0A5B8000074020020014800F057
:100440009FB80000D402002001681823CAB2103AF5
:10045000B2FBF3F2054B6FF30901032A9B5CC36502
:1004600000D9091D81650846704700007E300008EC
:1004700010B5014600208B698A6A4FF0C07453B1F1
:10048000B3F5005F15D072B1012A0CD0022A0AD050
:10049000032A09D104E01AB1012A06D0022A03D1A5
:1004A000C96AC90100D5012010BDC96AA142FAD0AC
:1004B00010BD002AF7D0012AF2D0022AF3D0032A75
:1004C000F3D010BD704772B6FEE72DE9F041044647
:1004D000876D00F08DFA064694F835000025022855
:1004E00006D08020606584F834500120BDE8F0819A
:1004F0002068016821F0160101602068416921F03F
:1005000080014161206C08B9A06C20B120680168AD
:1005100021F0080101602068016821F001010160FB
:100520000CE000F065FA801B052807D920206065E3
:10053000032084F8350084F83450D7E72068006839
:10054000C007EED194F85C103F208840B8600120CD
:1005500084F8350084F834500020C7E790F835104F
:10056000022903D08021416501207047052180F8D0
:1005700035100068016821F001010160002070471A
:100580002DE9F84304464FF00009CDF80090634888
:100590004FF41651A56D0068B0FBF1F72E6894F882
:1005A0005C10082000FA01F131420FD021680A687E
:1005B00052070BD50A6822F004020A6094F85C1016
:1005C0008840A860606D40F00100606594F85C10A0
:1005D0004FF0010808FA01F0304208D0216849695B
:1005E000090604D5A860606D40F00200606594F8CB
:1005F0005C1004208840304208D0216809688907CF
:1006000004D5A860606D40F00400606594F85C104B
:1006100010208840304218D021680968090714D595
:10062000A86020680168490304D50068000308D564
:10063000A16C07E00168C90503D4016821F0080135
:100640000160216C09B12046884794F85C10202095
:100650008840304231D021680968C9062DD5A8608C
:1006600094F8350005282068016806D0490347D56D
:10067000006800031DD4616C1CE021F016010160CC
:100680002068416921F080014161206C08B9A06CAB
:1006900020B12068016821F00801016094F85C1025
:1006A0003F208840A86084F8358084F83490216D1C
:1006B0001FE0E16B09B120468847606D00282BD010
:1006C000606DC00714D0052084F8350020680168EB
:1006D00021F0010101600098401C0090B84203D84D
:1006E00020680068C007F6D184F8358084F834901B
:1006F000E16C002910D001B02046BDE8F043084766
:100700000168C905D5D4016821F01001016084F8A1
:10071000358084F83490CCE7BDE8F88334000020BD
:100720002DE9F041044600F063F906465CB1022071
:1007300084F83500002584F834502068016821F0E1
:10074000010101600DE00120BDE8F08100F050F9E9
:10075000801B052805D920206065032084F835001A
:10076000F2E720680068C007F0D1226811682048CD
:100770000140D4E901031843D4E903363343184355
:1007800063691843A3691843E3691843236A18434C
:100790000843616A042903D1D4E90B1319430843C0
:1007A000106020684069666A20F0070130460E43F9
:1007B000012704280CD1A06A0643E06A40B1204614
:1007C000FFF756FE20B14020606584F83570BAE727
:1007D000206846612046FFF737FE94F85C203F21F1
:1007E00091408160656584F835700020ACE70000B9
:1007F0003F8010F02DE9F84FDFF8B8A10022012466
:1008000003254FF00F090AF1040BAAF1040E00BFF3
:100810000B6804FA02F63340B34273D10F7907F044
:100820000307012F01D0022F16D187684FEA420833
:1008300005FA08FC27EA0C07D1F80CC00CFA08FCF2
:100840004CEA070CC0F808C04768B7430E79C6F3F6
:10085000001696403E4346600E79F643B6070DD02B
:10086000C768560005FA06FC27EA0C07D1F808C04D
:100870000CFA06FC4CEA070CC0F80CC00E7906F026
:100880000306022E10D1D60800EB8608D8F82060A7
:1008900057074FEAD76C09FA0CF7BE430F6907FAFE
:1008A0000CF73743C8F8207006684FEA420C05FA87
:1008B0000CF7BE430F7907F0030707FA0CF737432D
:1008C00007604E6816F4403F6DD03B4E376847F4E2
:1008D00080473760366822F0030706F480460096AA
:1008E000364E07EB060CDCF8086897073F0F09FA4D
:1008F00007F826EA0806DFF8C880404503D14FF024
:1009000000081EE04FE0DFF8BC80404502D14FF008
:10091000010816E0DFF8B080404502D14FF0020830
:100920000FE0DFF8A880404502D14FF0030808E04F
:10093000DFF89C80404502D14FF0040801E04FF001
:10094000070808FA07F848EA0608CCF80888DAF831
:1009500000605746D1F804C09E435FEACC2C00D516
:100960001E433E60DBF800605F46D1F804C09E4342
:100970005FEA8C2C00D51E433E60DEF800607746AF
:10098000D1F804C09E435FEA8C3C00D51E433E6014
:10099000084F083F3E68D1F804C09E435FEACC3C54
:1009A00000D51E433E60521C102AFFF431AFBDE853
:1009B000F88F0000083C01404438024000300140FC
:1009C000000002400004024000080240000C024007
:1009D00000100240426921EA02030A4043EA024150
:1009E000816170470AB1816170470904FBE700002B
:1009F0000148806870470000280000200248816894
:100A00000278114481607047280000200B4810B51F
:100A1000016841F400710160016841F48061016086
:100A2000016841F480710160032000F06FF80F202D
:100A300000F006F800F024F8002010BD003C024051
:100A400070B50D4D04464FF47A712878B1FBF0F083
:100A50000A490968B1FBF0F000F00CFB48B9102C12
:100A600007D200222146501E00F030F800206C60B2
:100A700070BD012070BD000028000020340000205F
:100A80000A4808B5016841F480410160006800F43B
:100A9000804000900548001F016841F080510160CE
:100AA000006800F08050009008BD0000443802400B
:100AB000002809DB00F01F0201219140400980005D
:100AC00000F1E020C0F8001170470000F0B40E4BB8
:100AD0001B680C46C3F30223C3F10705042D00D99C
:100AE0000425191D072901D2002300E0DB1E012681
:100AF00006FA05F1491E214099409E40761E164097
:100B00003143F0BC02F01FBA0CED00E0064900F0E2
:100B1000070208684FF6FF03184040EA0220034A24
:100B200010430860704700000CED00E00000FA057B
:100B30002DE9F0470E46050065D0DFF81481D8F89E
:100B40000000F7B200F00700B04207D288F800704A
:100B5000D8F8000000F00700B04254D128683D4C9E
:100B6000810712D5400703D5206840F4E05020608B
:100B70002878000703D5206840F460402060206892
:100B8000A96820F0F000084320602878C0072DD025
:100B9000304968680839012812D0022813D0032888
:100BA00011D00968890700292DDA216821F0030195
:100BB00001432160FFF71CFF814641F2883A0EE0B5
:100BC00009688903EFE709688901ECE7FFF710FF7F
:100BD000A0EB0901514502D90320BDE8F087206848
:100BE000696800F00C00B0EB810FEFD1D8F800106D
:100BF000404601F00701B14207D90770006800F0D4
:100C00000700B04201D00120E7E72878400705D56A
:100C10002068E96820F4E050084320602878000745
:100C200006D52068296920F4604040EAC1002060B0
:100C300000F038F82168084AC1F30311515CC8403C
:100C40000649086006480068FFF7FAFE0020C4E77E
:100C5000003C024008380240863000083400002082
:100C60002C0000200448054900680968044AC1F3C3
:100C70008221515CC840704734000020083802408F
:100C8000963000080448054900680968044AC1F321
:100C90004231515CC840704734000020083802409F
:100CA00096300008154810B5006810F00C02144882
:100CB00013D01449042A0FD0082A0ED10F4C241F38
:100CC0002268236802F03F025B0207D52068C0F368
:100CD0008810A0FB010106E0084610BD2168C1F3A1
:100CE0008811A1FB00010023FFF7C6FA2168C1F3B8
:100CF0000141491C4900B0FBF1F010BD0838024029
:100D00000024F40040787D012DE9F84F04006ED0F6
:100D10002078DFF84C93C007A9F104054AD009F107
:100D200004000168C1F38101012908D00068C0F303
:100D3000810002280AD1D9F80000400206D52868AF
:100D4000800337D560680028E1D033E06068B0F5F3
:100D5000803F10D0B0F5A02F286810D020F480304C
:100D60002860286820F4802028606068A8B1FFF718
:100D70003FFE06460DE0286840F48030F4E740F47A
:100D800080202860F7E700BFFFF732FE801B642851
:100D900073D828688003F7D50CE0FFF729FE0646D4
:100DA00005E000BFFFF724FE801B6428F0D8286808
:100DB0008003F7D42078DFF8AC8280074FF0000A78
:100DC0003ED5A748001D016811F00C0F08D000683F
:100DD000C0F3810002280BD1D9F80000400207D4EB
:100DE0002868800716D5E068012800D112E033E1B9
:100DF000E068B8B10120C8F80000FFF7F9FD064629
:100E000005E000BFFFF7F4FD801B0228C0D828686A
:100E10008007F7D52868216920F0F80040EAC10072
:100E200028600DE0C8F800A0FFF7E2FD064604E0E8
:100E3000FFF7DEFD801B02281FD828688007F7D443
:100E40002078000722D5864F87486169703771B1D5
:100E500001210160FFF7CCFD064604E0FFF7C8FD65
:100E6000801B022809D838688007F7D50EE0C0F843
:100E700000A0FFF7BDFD064605E082E0FFF7B8FDE4
:100E8000801B02287DD838688007F7D42078400777
:100E900068D5DFF8CCB100270BF13C0BDBF8000084
:100EA000C0000BD4DBF8001041F08051CBF80010EB
:100EB000DBF80000012700F0805000906B4E306896
:100EC000C00510D4306840F480703060FFF790FDAA
:100ED000009005E0FFF78CFD0099401A022850D8D9
:100EE0003068C005F6D55E4EA0686C3601280FD07C
:100EF0000528306810D020F001003060306820F004
:100F000004003060A068B8B1FFF772FD00900FE0F8
:100F1000306840F00100F4E740F004003060F7E78B
:100F2000FFF766FD0099411A41F28830814266D888
:100F300030688007F4D50EE0FFF75AFD009007E017
:100F4000FFF756FD0099411A41F28830814256D888
:100F500030688007F4D42FB1DBF8001021F0805105
:100F6000CBF80010A069C8B33D49091D0968C1F359
:100F7000810102294AD00228504607D0C8F86000F3
:100F800000E03CE0FFF734FD04463BE04746C8F88C
:100F90006000FFF72DFD064605E000BFFFF728FDC6
:100FA000801B02282BD828688001F7D4D4E90701D8
:100FB0000843A16A2E4A490802EB0141626A41EAEC
:100FC0008211084394F82C1040EA0161C9F800101E
:100FD00001203866FFF70CFD044606E03EE000BF46
:100FE000FFF706FD001B022809D828688001F7D505
:100FF00034E000BFFFF7FCFC001B022802D90320ED
:10100000BDE8F88F28688001F4D427E00128F7D0E4
:10101000D9F80000E26900F4800191421CD1226AF3
:1010200000F03F01914217D147F6C071626A01405A
:10103000B1EB821F10D1A26A4FF0FF3300F44031B0
:1010400003EB5202B1EB024F06D194F82C1000F0E2
:101050007060B0EB016F01D00120D1E70020CFE735
:101060000438024000004742800E474200700040B2
:101070000000FFFF10B5401EB0F1807F01D30120BA
:1010800010BD4FF0E02460610F21601701F05BFF9D
:101090000020A06107202061002010BD704770472C
:1010A00070B590F83C20012A2CD0012480F83C40F7
:1010B000022280F83D2003685A689D6822F070067D
:1010C0000A6832435A60104B02689A420ED0B2F15D
:1010D000804F0BD00D4B9A4208D00D4B9A4205D051
:1010E0000C4B9A4202D00C4B9A4204D1496825F02D
:1010F00080031943916080F83D40002180F83C1046
:10110000084670BD022070BD000001400004004090
:1011100000080040000C00400040014010B50400F1
:1011200003D094F83D0010B107E0012010BD00206D
:1011300084F83C00204600F01FF8022084F83D00AF
:10114000211D206801F0CAFB012084F8460084F8C4
:101150003E0084F83F0084F8400084F8410084F8A1
:10116000420084F8430084F8440084F8450084F881
:101170003D00002010BD000030B587B004461421AA
:101180006846FFF7F0F8324821680024814236D1E2
:101190003048016841F002010160006800F002007F
:1011A00005902C481038016841F001010160016888
:1011B00001F001010591016841F002010160006840
:1011C000022500F00200059040200090CDE9015476
:1011D00069462148CDE90345FFF70CFB012000904B
:1011E000CDE9015469461D48CDE90345FFF702FBEF
:1011F000002211461D20FFF769FC1D2012E0154852
:10120000174A001D914211D1016841F4003101607B
:101210000068002200F40030059011461920FFF705
:1012200055FC1920FFF744FC07B030BD0D4A914230
:10123000FAD1016841F4802101600068002200F4C5
:101240008020059011461A20FFF740FC1A20E9E79C
:101250000004004040380240000002400004024008
:10126000004401400048014070B5044690F83C003D
:101270000025012817D0012684F83C60022084F85C
:101280003D002068826822F0770222F47F4282606B
:101290000868502838D00DDC20284FD005DC90B3EA
:1012A000102811D14AE0022070BD302846D04028D5
:1012B0000AD13BE060282FD070280DD0B0F5805FB8
:1012C00003D0B0F5005F12D0012584F83D60002006
:1012D00084F83C00284670BDCB68D1E90121206824
:1012E00001F055FB2068816841F0770109E0CB6887
:1012F000D1E90121206801F04AFB2068816841F4AE
:1013000080418160E1E719E0CA684968206801F01E
:10131000F3FB5021206806E0CA684968206801F0A4
:1013200033FC6021206801F03CFBCEE7CA684968C5
:10133000206801F0E1FB40212068F4E722680146C3
:101340001046F0E72DE9F0410D46040003D094F873
:101350003D0018B108E00120BDE8F081002084F8CC
:101360003C00204600F040F8022084F83D00206850
:10137000816844F2070291438160211D206801F0D9
:10138000ADFA226890689169166A2B68AF690343C9
:1013900040F20330814341EA0721A868EF6908431E
:1013A0004FF6FC418843E96840EA07200143286979
:1013B0002F6A000140EA0730084369686D6926F02A
:1013C000AA0646EA0515294393602268906154F8FD
:1013D000460B0162012004F81F09E0752076E076D3
:1013E0002077A0750020B7E7F0B587B00446142138
:1013F0006846FEF7B8FF294926680023274A1039B6
:10140000022403252648B6F1804F1DD0254FBE4249
:1014100018D1166846F008061660126802F0080235
:1014200005920A6842F001020A6009680095CDE958
:10143000014301F00101CDE9044103934FEA0D019D
:10144000FFF7D8F907B0F0BD136843F0010313604C
:10145000126802F0010205920A6842F001020A6075
:101460000A6802F0010205920A6842F002020A606C
:101470000968012601F00201059120218DE8520042
:10148000CDE903566946FFF7B5F908208DE851000C
:10149000CDE9035669460448D2E7000040380240CF
:1014A00000000240000C00400004024070B590F8BB
:1014B0003E60044690F83F5090F8423090F8432048
:1014C000022021B104290ED0012E1BD114E0012EDF
:1014D00018D1012B16D184F83E0084F84200012275
:1014E0000021206820E0012D0CD1012A0AD184F8C6
:1014F0003F0084F8430014E0012D03D1012B01D1FA
:10150000012A01D0012070BD84F83E0084F83F001C
:1015100084F8420084F8430001220021206801F091
:1015200029FA01220421206801F024FA20680168C8
:1015300041F001010160002070BD000002684FF021
:1015400080418A4206D1496A1F4AB1F1004F00D951
:10155000491C11601D4A016891421BD1007F1C4942
:10156000042818D00828DFED1B0A19D0012826D03E
:1015700002280FD11548383000680968401A00EE7B
:10158000100A1549B8EE400A0860144880EE201A87
:1015900080ED001A70470D483C3000684860704785
:1015A0000A48403000684968401A00EE100A0C49A9
:1015B000B8EE400A08600B4880EE201AE8E70348BE
:1015C00034300068086070470C00002000040040C0
:1015D0000000002000006842140000201C000020D1
:1015E00018000020200000202DE9F041054690F869
:1015F0003C0000260C46012810D0012085F83C0054
:1016000072B1042A1CD0082A2CD00C2A50D00126F2
:10161000002085F83C003046BDE8F0810220FBE761
:10162000D4E90012E368286801F078FA2868816933
:1016300021F00C01816128688169A26811430FE0E3
:10164000D4E90012E368286801F0B0FA28688169DB
:1016500021F44061816128688169A26841EA022120
:101660008161D5E72868D4E9002C277B016A21F441
:1016700080710162C169036A21F0030141EA0C0132
:1016800021F0F00C39074FF420674CEA116123F484
:10169000206307EA02221A43C16102622868C16915
:1016A00021F00C01C1612868C169A268114328E0DA
:1016B0002868D4E90027E168036A23F480530362B1
:1016C000D0F81CC0036A2CF4407C4CEA07274FF684
:1016D000FF7C27F470470CEA013139434FF420476F
:1016E00023F4204307EA02321A43C16102622868E8
:1016F000C16921F44061C1612868C169A26841EAF9
:101700000221C16184E710B5040003D094F83D00C4
:1017100010B107E0012010BD002084F83C002046F5
:1017200000F01EF8022084F83D00211D206801F021
:10173000D5F8012084F8460084F83E0084F83F0084
:1017400084F8400084F8410084F8420084F84300A3
:1017500084F8440084F8450084F83D00002010BD62
:101760007047000030B50446002551B104290DD062
:10177000082910D094F8412094F84500012A11D18D
:101780000EE094F83E2094F84200F7E794F83F20EA
:1017900094F84300F2E794F8402094F84400EDE711
:1017A000012801D0012030BD022059B1042912D0F6
:1017B000082919D084F8410084F845000C293ED04E
:1017C00001253AE084F83E0084F842002068C268AF
:1017D00042F0020210E084F83F0084F843002068E1
:1017E000C26842F0040207E084F8400084F8440034
:1017F0002068C26842F00802C2600122206801F03D
:10180000B9F81149206888420ED0B0F1804F0BD052
:101810000E49884208D00E49884205D00D498842B9
:1018200002D00D49884204D1816801F007010629E0
:1018300003D0016841F001010160284630BD2068F5
:10184000C26842F01002D7E70000014000040040E7
:1018500000080040000C00400040014070B5044604
:10186000006801694FF00005C943890715D4C168B4
:10187000C943890711D4E91E01610120207720683E
:1018800080698007204602D0FFF758FE04E000F090
:1018900004F9204600F0E6F9257720680169C9437C
:1018A000490717D4C168C943490713D46FF004012D
:1018B0000161022020772068806910F4407F204673
:1018C00002D0FFF73BFE04E000F0E7F8204600F00E
:1018D000C9F9257720680169C943090716D4C16889
:1018E000C943090712D46FF0080101610420207771
:1018F0002068C0698007204602D0FFF71FFE04E081
:1019000000F0CBF8204600F0ADF92577206801699A
:10191000C943C90617D4C168C943C90613D46FF0B7
:1019200010010161082020772068C06910F4407F11
:10193000204602D0FFF702FE04E000F0AEF8204699
:1019400000F090F9257720680169C943C90708D1DB
:10195000C168C943C90704D1891E0161204600F04E
:1019600049FA20680169C943090609D4C168C94315
:10197000090605D46FF0800101612046FFF78EFB58
:1019800020680169C943490609D4C168C9434906A9
:1019900005D46FF040010161204600F02CFA206868
:1019A0000169C94389060BD4C168C943890607D4B4
:1019B0006FF0200101612046BDE87040FFF76FBB6A
:1019C00070BD000010B586B0044614216846FEF7CD
:1019D000CAFC2368174C002117480222A34211D1E8
:1019E000036843F002030360006800F00200059002
:1019F0004FF470700090CDE90121CDE903126946E2
:101A00000E4813E00E4CA34212D1036843F00103C9
:101A10000360006800F0010005900C200090CDE903
:101A200001210320CDE9031069460648FEF7E2FED6
:101A300006B010BD000800403038024000040240EB
:101A4000004001400000024070B5044690F83C00A0
:101A5000002501280FD0012084F83C006AB1042A37
:101A60000FD0082A11D00C2A13D00125002084F8A9
:101A70003C00284670BD022070BD206800F09AFF2F
:101A8000F4E7206800F0BEFFF0E7206800F0E6FF12
:101A9000ECE7206801F00EF8E8E7704710B50400A5
:101AA00003D094F83D0010B107E0012010BD0020E4
:101AB00084F83C00204600F01EF8022084F83D0027
:101AC000211D206800F00AFF012084F8460084F8F8
:101AD0003E0084F83F0084F8400084F8410084F818
:101AE000420084F8430084F8440084F8450084F8F8
:101AF0003D00002010BD704770B5044690F83C00D2
:101B000000260D4601280FD0012084F83C006AB160
:101B1000042A1DD0082A2FD00C2A3FD001260020ED
:101B200084F83C00304670BD022070BD206800F093
:101B300041FF2068816941F0080181612068816965
:101B400021F004018161206881692A69114311E053
:101B5000206800F057FF2068816941F400618161CD
:101B60002068816921F480618161206881692A6926
:101B700041EA02218161D2E7206800F06FFF20680E
:101B8000C16941F00801C1612068C16921F0040107
:101B9000C1612068C1692A69114311E0206800F021
:101BA00089FF2068C16941F40061C1612068C16991
:101BB00021F48061C1612068C1692A6941EA02217A
:101BC000C161ACE710B5040003D094F83D0010B13A
:101BD00007E0012010BD002084F83C00204600F002
:101BE0001FF8022084F83D00211D206800F076FED9
:101BF000012084F8460084F83E0084F83F0084F811
:101C0000400084F8410084F8420084F8430084F8DE
:101C1000440084F8450084F83D00002010BD000019
:101C200008B500680C49884208D10C48016841F0A9
:101C300004010160006800F004000BE008498842DC
:101C400009D10648001D016841F480310160006837
:101C500000F48030009008BD000800404038024089
:101C6000004001407047000010B50446022249B10F
:101C700004290ED0082913D094F84100012816D069
:101C8000012010BD94F83E000128F9D184F83E20CF
:101C90000FE094F83F000128F2D184F83F2008E0DB
:101CA00094F840000128EBD184F8402001E084F84A
:101CB00041200122206800F05DFE12492068884220
:101CC00003D1426C42F400424264206888420ED044
:101CD000B0F1804F0BD00C49884208D00B498842A4
:101CE00005D00B49884202D00A49884204D1816854
:101CF00001F00701062903D0016841F001010160EC
:101D0000002010BD00000140000400400008004019
:101D1000000C00400040014030B50025044602227E
:101D200049B1042912D0082944D094F8410001286F
:101D30004BD0012030BD94F83E000128F9D184F841
:101D40003E202068C26842F0020209E094F83F0099
:101D50000128EED184F83F202068C26842F00402D6
:101D6000C2600122206800F005FE1D4920688842FB
:101D700003D1426C42F400424264206888420ED093
:101D8000B0F1804F0BD01749884208D016498842DD
:101D900005D01649884202D01549884204D181688D
:101DA00001F00701062903D0016841F0010101603B
:101DB000284630BD94F840000128BAD184F840206C
:101DC0002068C26842F00802CAE784F841200C2962
:101DD00001D00125ECE72068C26842F01002BFE79D
:101DE000000001400004004000080040000C0040DA
:101DF000004001407047704770477047F8B5016870
:101E000004460868CA684B6910F00F0F4FF00005D0
:101E100059D003F0010602F49077374365D0C1072B
:101E200005D0D10503D5216C41F0010121644107A2
:101E300005D5D90703D0216C41F002012164810747
:101E400005D5D90703D0216C41F0040121640107B5
:101E500007D502F02001314303D0216C41F0080185
:101E60002164216C00293AD0800604D5900602D561
:101E7000204600F0E5FE20684069216CC0F3801028
:101E8000090700D460B3204600F0B3FE2068406923
:101E9000400621D52068143050E8001F21F0400191
:101EA00040E80012002AF5D1A06BA8B16C49016589
:101EB000A06BFEF753FB002811D0A06B016D01B0A1
:101EC000BDE8F040084783060FD593060DD52046A0
:101ED000BDE8F84000F0B4BE2046FFF78EFFF8BD25
:101EE0002046FFF78AFF2564F8BD266B2023012ECC
:101EF00079D1C60677D5D60675D5086848680090AA
:101F00004869400640D5A16B086840680004000C91
:101F1000EAD0A28D8242E7D9E085C869B0F5807F1A
:101F20002DD020680C3050E8001F21F4807140E86B
:101F30000012002AF5D12068143050E8001F21F06B
:101F4000010140E80012002AF5D12068143050E861
:101F5000001F21F0400140E80012002AF5D184F86A
:101F60003E30256320680C3050E8001F21F010013E
:101F700040E80012002AF5D1A06BFEF7A6FAA08D6A
:101F8000E18D401A81B229E0A08DE18D401A81B225
:101F9000E08D0028A8D00029A6D020680C3050E899
:101FA000002F22F4907240E80026002EF5D1206820
:101FB000143050E8002F22F0010240E80026002EE5
:101FC000F5D184F83E30256320680C3050E8002FAE
:101FD00022F0100240E80023002BF5D12046FFF745
:101FE0000BFFF8BDFFE705062BD5150629D594F89C
:101FF0003D002128F5D1A068B0F5805F01D12069AE
:10200000B0B1206A411C2162216800784860E08CF0
:10201000401E0004000CE084E3D12068C16821F078
:102020008001C1602068C16841F04001C160D8E70B
:10203000206A0088C0F308004860206A801C206283
:10204000E5E74006CDD55006CBD5CA68204622F03C
:102050004002CA6084F83D3000F0ABF8C1E70000F0
:10206000E32B000870B5040004D094F83D0000256F
:1020700010B106E0012070BD84F83C50204600F00D
:1020800023F8242084F83D002068C16821F4005121
:10209000C160204600F034FE2068016921F49041BF
:1020A00001612068416921F02A0141612068C1680D
:1020B00041F40051C1602564202084F83D0084F87B
:1020C0003E00002070BD00002DE9F04186B00646BC
:1020D00014216846FEF747F92F493068884257D1E6
:1020E0002E480024016841F010010160006800F0F2
:1020F0001000059029481438016841F00101016081
:102100000068694600F0010005904FF4C06000903F
:102110000220CDE901040320039007200490204809
:10212000FEF768FB204D1F484FF000672860C5E9A7
:1021300001744FF48068C5E903486C61AC61EC61DF
:102140002C6228466C62FEF7EBFA08B1FEF7BBF989
:10215000B563AE631348154D7830E5E802074020BB
:10216000A5E81101114845F81449AC61EC612C62F5
:102170006C62FEF7D5FA08B1FEF7A5F97563002287
:1021800011462520AE63FEF7A1FC2520FEF790FC4A
:1021900006B0BDE8F0810000001001404438024064
:1021A000000002404064024074020020D40200207B
:1021B00070477047FEE700002DE9F04186B014211A
:1021C0006846FEF7D0F826480024016841F0040173
:1021D0000160016801F004010591016841F001010D
:1021E0000160016801F001010591016841F00201FF
:1021F000016000681B4E00F002004FF4604505903E
:10220000002229463046FEF7EDFB174F00228021C1
:102210003846FEF7E7FBDFF85480002220214046D5
:10222000FEF7E0FB00950125CDE9015469463046F3
:102230000394FEF7DFFA80200090CDE9015469464F
:1022400038460394FEF7D6FA20200090CDE90154D9
:10225000694640460394FEF7CDFA06B0BDE8F0812A
:1022600030380240000802400000024000040240F2
:1022700010B588B01C216846FEF775F8144813495C
:10228000002401604FF4A071C0E9011444F62061FC
:10229000C0E903148461FEF741FF08B172B6FEE79E
:1022A0000B48FFF7FBFB08B172B6FEE70094019400
:1022B00002940022694606480494FFF7C5FB0028F3
:1022C00001D072B6FEE708B010BD00000044014026
:1022D000A001002010B588B01C216846FEF743F825
:1022E00013481249002401602021C0E9011444F67A
:1022F0003821C0E903148461FEF710FF08B172B6FB
:10230000FEE70B48FFF7CAFB08B172B6FEE7009480
:10231000019402940022694605480494FFF794FB57
:10232000002801D072B6FEE708B010BD0048014099
:10233000E801002030B58BB024216846FEF713F881
:102340000024164809944FF080450A94C0E90054CF
:10235000611EC0E90241046184610320CDE90004EB
:102360000120CDE902040494CDE9054007946946B3
:102370000A480894FEF7E6FF08B172B6FEE7099432
:1023800009A906480A94FEF78BFE08B172B6FEE76B
:10239000E86840F00400E8600BB030BD3800002071
:1023A00070B58AB0002432480494059406940794CA
:1023B000089409940094019402942C4903940160B8
:1023C0002021C0E901144CF25031C0E903148461AA
:1023D000FEF7A4FE08B172B6FEE74FF480500490F9
:1023E00004A92348FEF740FF08B172B6FEE7204873
:1023F000FFF789F908B172B6FEE7089408A91C48EE
:102400000994FEF74DFE08B172B6FEE70126CDE94C
:10241000004602940022694615480394FFF7E4F849
:1024200008B172B6FEE702250095042269461048FD
:102430000195FFF7D9F808B172B6FEE7CDE900467D
:10244000082269460A48FFF7CFF808B172B6FEE7DE
:1024500000950C22694606480195FFF7C5F800284B
:1024600001D072B6FEE70AB070BD00000004004063
:102470008000002010B58AB0002407941C21684613
:102480000894FDF770FF2248204901602021C0E92F
:10249000011444F63821C0E903148461FFF792FB6C
:1024A00008B172B6FEE7079407A919480894FEF729
:1024B000F7FD08B172B6FEE76020CDE90004029492
:1024C0000022694612480494FFF716FB08B172B661
:1024D000FEE7042269460E48FFF70EFB08B172B60C
:1024E000FEE7082269460A48FFF706FB08B172B604
:1024F000FEE70C2269460648FFF7FEFA08B172B6FD
:10250000FEE70348FFF75EFA0AB010BD000800407E
:10251000C800002010B58CB024216846FDF723FFC9
:1025200000241548099413490A94C0E90014611E57
:10253000C0E90241046184610120CDE90004CDE9D4
:1025400002040494CDE90540079469460A480894BA
:10255000FEF7F8FE08B172B6FEE7099409A906482D
:102560000A94FEF79DFD002801D072B6FEE70CB07C
:1025700010BD0000000C00401001002010B588B014
:102580001C216846FDF7EFFE16481549002401603E
:102590008915C0E9011440F2E731C0E903148461F0
:1025A000FFF710FB08B172B6FEE76020CDE900042A
:1025B0000294002269460B480494FFF79DFA08B183
:1025C00072B6FEE7042269460648FFF795FA08B19D
:1025D00072B6FEE70348FFF7F5F908B010BD00003A
:1025E000004001405801002010B50F480D4C4FF439
:1025F000E131C0E90041002181600C22C160C0E9E5
:1026000004128161C161FFF72DFD08B172B6FEE7CA
:1026100006492020C1F80001E06840F02400E06095
:1026200010BD0000001001403002002004E000E076
:10263000FEE7FEE77047704740F6660148437821A1
:10264000B0FBF1F0024900F5AF7008607047000080
:102650003408004040F6660148437821B0FBF1F0B1
:10266000024900F5AF70086070470000380800406C
:1026700040F6660148437821B0FBF1F0024900F5CD
:10268000AF700860704700003C08004040F66601EB
:1026900048437821B0FBF1F0024900F5AF700860C3
:1026A000704700004008004040F66601484378212A
:1026B000B0FBF1F0024900F5AF7008607047000010
:1026C00034480140304910B5C820486300212F48E4
:1026D000FFF7CAFA00F0BEFC2D49002008602D4922
:1026E00008603C212C48FEF7E1FE4FF080406FF07F
:1026F00000414163491E816328490120086000218F
:102700002748FFF709FB25482838016841F00101F7
:10271000016000212348FFF725F804212148FFF735
:1027200021F808211F48FFF71DF80C211D48FFF76D
:1027300019F81D4840F2DC54046000211B48FFF7E3
:10274000EBFA19482838016841F001010160184886
:10275000046000211748FFF787FA1548001D046040
:1027600004211448FFF780FA11480830046008215A
:102770001048FFF779FA0E480C300460BDE81040AD
:102780000C210C48FFF770BA0040014058010020AE
:102790000C000020100000203800002034440140CC
:1027A000A00100208000002034480140E801002002
:1027B00034080040C8000020FEF720B930B593B0BF
:1027C00030216846FDF7CFFD14210CA8FDF7CBFDA5
:1027D0001C480024016841F080510160006800F04D
:1027E000805011901848016841F440410160006830
:1027F000022500F440401190012003901020049025
:10280000009506950820CDE907404020CDE909054F
:1028100004200B906846FEF777FA08B172B6FEE71F
:102820000F20CDE90C058020CDE90E0401210CA874
:102830001094FEF77DF9002801D072B6FEE713B0C0
:1028400030BD00004038024000700040024801687E
:1028500041F470010160704788ED00E010B5094C4B
:1028600020212046FEF7B6F807480068C00704D0CC
:10287000012220212046FEF7B5F8BDE810400348AC
:10288000FEF7ECBF0004024010480140E8010020C0
:1028900010B580210748FEF79DF807480068C0077B
:1028A00002D0064900200860BDE810400448FEF749
:1028B000D5BF000000000240104401402404004045
:1028C000A00100200148FEF7C9BF00003800002029
:1028D0000148FEF7C3BF000080000020F0B5026889
:1028E0001D4B1E4C9F031E4D1E4E984207D0B842F2
:1028F00005D0A04203D0A84201D0B04204D122F0BA
:10290000700C4A6842EA0C02984210D0B8420ED0CD
:10291000A0420CD0A8420AD0B04208D0124CA0422B
:1029200005D0124CA04202D0114CA04203D122F497
:102930004074CA6822434C6922F08002224302603C
:102940008A68C2620A688262984201D10969016399
:1029500001214161F0BD0000000001400004004081
:1029600000080040000C00400040014000440140CD
:102970000048014010B501F01F030121046A99408D
:102980008C430462016A9A401143016210BD10B584
:10299000846842EA032224F47F440A43224382608B
:1029A00010BD826822F070020A4342F00701816084
:1029B0007047000030B5026A22F001020262026A2A
:1029C0004368846924F073050C682C4322F00205E7
:1029D0008A682A430A4DA8420BD122F00805CA682A
:1029E00023F440732A434D6922F004021D438B698E
:1029F0002B434360846149684163026230BD00003B
:102A00000000014030B5026A22F010020262026A40
:102A1000436884690D6824F4E64444EA05248D681B
:102A200022F0200242EA05120B4DA8420ED1CD68D9
:102A300022F0800242EA05124D6923F4406343EA22
:102A400085038D6922F0400243EA85034360846177
:102A500049688163026230BD0000014030B5026AFE
:102A600022F480720262036A4268C46923F400732C
:102A700024F073050C682C438D6843EA05230C4D44
:102A8000A8420ED1CD6823F4006343EA05234D69C3
:102A900022F4405242EA05128D6923F4806342EA2F
:102AA00005124260C4614968C163036230BD000021
:102AB0000000014030B5026A22F480520262046ACA
:102AC0004268C3690D6823F4E64343EA05238D6831
:102AD00024F4005444EA0534064DA84204D14D695B
:102AE00022F4804242EA85124260C361496801646F
:102AF000046230BD0000014010B5036A046A24F08E
:102B000001040462846924F0F00444EA021423F00E
:102B10000A020A438461026210BD000070B5046AB3
:102B200024F0010404628469056A124EB0420ED09A
:102B3000B0F1804F0BD0104EB04208D00F4EB042D3
:102B400005D00F4EB04202D00E4EB04203D124F059
:102B50000304144301E044F001041A0724F0F004D4
:102B600044EA126225F00A0301F00A011943826166
:102B7000016270BD000001400004004000080040F8
:102B8000000C00400040014010B5036A23F0100320
:102B900003628369046A23F4704343EA023224F037
:102BA000A00343EA01118261016210BD30B5046ADD
:102BB00024F0100404628469056A24F4407444EA31
:102BC000022222F470444FF6FF7202EA03322243DB
:102BD000A02425F0A00304EA0111194382610162D7
:102BE00030BD10B5806B0021C185C184FFF705F9A8
:102BF00010BD01680C3151E8002F22F4907241E8B9
:102C00000023002BF5D10168143151E8002F22F088
:102C1000010241E80023002BF5D1016B012909D104
:102C200001680C3151E8002F22F0100241E8002326
:102C3000002BF5D1202180F83E1000210163704760
:102C400008B590F83E10222901D0022008BD826804
:102C50004FF480539A4201D1016921B1816A9A42AD
:102C60001BD04AB10AE00268816A5268C2F30802C6
:102C70000A80816A891C08E0026972B102685268A0
:102C800002F07F020A70816A491C8162C18D491E6F
:102C90000904090CC18503D019E002685268F1E704
:102CA0000168CA6822F02002CA600168CA6822F47A
:102CB0008072CA6001684A6922F001024A612021DB
:102CC00080F83E10016B012903D0FFF771FA002054
:102CD00008BD0021016301680C3151E8002F22F08A
:102CE000100241E80023002BF5D101680A68D206E2
:102CF00002D50A6849680091818DFFF77DF8E6E703
:102D000070B5044600680169E26821F4405111433E
:102D100001612169A068E2690843616911430843C0
:102D20002168CA6849F20C639A430243CA6020686A
:102D30004169A26921F44071114341613149206820
:102D4000884202D03049884202D1FDF79BFF01E062
:102D5000FDF788FFE2690023192164253226B2F5C8
:102D6000004F626828D0A0FB0101930F9200FDF78D
:102D700083FA0146B0FBF5F06FF01802504301EB07
:102D8000800006EB0010B0FBF5F000F0F002B1FBA4
:102D9000F5F002EB0012B1FBF5F06FF018035843A9
:102DA00001EB800006EB0010B0FBF5F000F00F0027
:102DB00021681044886070BDA0FB010192185B413E
:102DC000FDF75AFA0146B0FBF5F00201B1FBF5F050
:102DD0006FF01803584301EB800006EBC000B0FB16
:102DE000F5F000F0F80002EB4002B1FBF5F05843BB
:102DF00001EB800006EBC000B0FBF5F000F007002F
:102E0000D6E7000000100140001401400C48436860
:102E10000D480C4A01785354491CC9B20A44017048
:102E200012F8012C5F2A08D1084A117000210170A4
:102E30000748017841F0010101700648FEF7DEBF46
:102E4000001001403403002024000020090000206D
:102E50000800002030020020374930B4354A0B7892
:102E6000002094785B1E2D2C01D0022117E0032155
:102E700008E0545C00EB800024F03004491C04EBB3
:102E80004000C9B29942F4DB40420AE0545C00EBD6
:102E9000800024F03004491C04EB4000C9B2994280
:102EA000F4DB244913784A78412BA2F1310117D081
:102EB000502B08D0532B33D1052931D2DFE801F054
:102EC0002B2D32353800522A2AD1002803DB30BCA2
:102ED00080B200F0A9B8404230BC80B200F08EB899
:102EE00005291DD2DFE801F003070B0F130030BCEA
:102EF00080B2FFF7A1BB30BC80B2FFF7ABBB30BCE8
:102F000080B2FFF7B5BB30BC80B2FFF7BFBB30BCAF
:102F100080B2FFF7C9BB094901E00849091D0860F3
:102F200030BC704705490831F9E704490C31F6E730
:102F30000349F4E73403002009000020340800406E
:102F400034480140FEE70907090E002804DB00F1C0
:102F5000E02080F80014704700F00F0000F1E0203E
:102F600080F8141D7047000008B5FDF74FFDFFF70E
:102F700025FCFFF721F91F48016841F48001016039
:102F80000068002200F48000009011463A20FDF70E
:102F90009DFD3A20FDF78CFD002211464620FDF7ED
:102FA00095FD4620FDF784FDFFF7C4F9FFF762FAAF
:102FB000FFF7B0FAFFF7E2FAFFF716FBFFF7F0F9B9
:102FC000FFF756F9FFF786F9002211461C20FDF79E
:102FD0007DFD1C20FDF76CFDFFF774FB064C20788F
:102FE000C007FCD0FFF738FF207820F001002070E8
:102FF000F5E700003038024008000020084910B50D
:103000004863084C00224FF480412046FDF7EAFC5B
:1030100020460122BDE81040D103FDF7E3BC0000CB
:103020000040014000080240084910B54863084CC0
:10303000012291032046FDF7D5FC2046BDE8104053
:1030400000224FF40041FDF7CDBC000000400140DC
:103050000008024010B5064C012291032046FDF7FE
:10306000C1FC20460122BDE81040D103FDF7BABCE7
:10307000000802404FF04070E1EE100A7047000671
:1030800010160006101600000000000000000102EB
:103090000304060708090000000001020304000001
:1030A000C03000080000002038000000D4010008F3
:1030B000F83000083800002080090000F001000806
:1030C0000000000000000000000000000000000000
:1030D00000000000000000000000000000000000F0
:1030E00000000000000000000100000010000000CF
:0830F000000000000024F400C0
:040000050800019955
:00000001FF
