:020000040800F2
:10000000580A002041020008DF2900086125000885
:10001000DD29000833060008013700080000000051
:10002000000000000000000000000000912A00080D
:10003000F106000800000000152A0008C92C00087D
:100040005B0200085B0200085B0200085B0200081C
:100050005B0200085B0200085B0200085B0200080C
:100060005B0200085B0200085B0200085B020008FC
:100070005B0200085B0200085B0200085B020008EC
:100080005B0200085B0200085B0200080000000041
:100090000000000000000000000000005B020008FB
:1000A0005B020008112E0008DD2D00085B0200082D
:1000B000452E0008512E00085B0200085B02000874
:1000C0005B0200085B0200085B0200085B0200089C
:1000D0005B0200087D3400085B020008000000009D
:1000E0005B0200085B0200085B02000800000000E1
:1000F0000000000000000000000000005B0200089B
:10010000000000005B0200085D2E00085B02000892
:1001100000000000000000000000000000000000DF
:100120005B0200085B020008350600085B0200085D
:100130005B0200080000000000000000000000005A
:100140000000000000000000000000005B0200084A
:100150005B0200085B020008410600085B02000821
:100160005B0200085B0200080000000000000000C5
:10017000000000000000000000000000000000007F
:10018000000000005B02000800000000000000000A
:100190005B0200085B02000800F002F800F041F882
:1001A0000AA090E8000C82448344AAF10107DA45D2
:1001B00001D100F036F8AFF2090EBAE80F0013F0E3
:1001C000010F18BFFB1A43F0010318476438000001
:1001D00084380000103A24BF78C878C1FAD8520792
:1001E00024BF30C830C144BF04680C6070470000B1
:1001F0000023002400250026103A28BF78C1FBD830
:10020000520728BF30C148BF0B607047642900F017
:10021000F980002070471FB503F0F4FB1FBD10B537
:1002200010BD00F0D1F91146FFF7F5FF03F0E6FA33
:1002300000F0EFF903B4FFF7F2FF03BC00F0F2F9AE
:100240000948804709480047FEE7FEE7FEE7FEE76A
:10025000FEE7FEE7FEE7FEE7FEE7FEE704480549A6
:10026000054A064B70470000CD2D00089901000893
:1002700058040020580A0020580600205806002084
:1002800053EA020C00F069802DE9F04B4FF00006B4
:10029000002B1FBFB3FA83F503FA05F424FA05F621
:1002A0005E4012BF1643B2FA82F502FA05F4C5F1B8
:1002B00020051EBF22FA05FC44EA0C04203556EA4C
:1002C000044C4FEA144418BF641C4FF000084FF070
:1002D0000009904271EB030C39D3002919BFB1FA20
:1002E00081F701FA07F6B0FA80F700FA07F6C7F1CE
:1002F00020071EBF20FA07FC46EA0C062037B6FB93
:10030000F4FCA7EB0507103F07F01F0BCBF120060D
:100310000CFA0BFB2CFA06F644BFB3460026202F3E
:10032000A4BF5E464FF0000B5BEA060C08BF4FF01F
:10033000010B19EB0B09ABFB027C48EB0608C01B59
:1003400006FB02CC0BFB03CC71EB0C01C1E70B46A7
:10035000024641464846BDE8F08B13B54FF0000019
:100360004FF00001AFF30080BDE81C407047000073
:100370000FB41CB5084B06AA7B446946009005984B
:1003800000F005F904460020694600F013F9204604
:100390001CBC5DF814FB0000390200002DE9F0419F
:1003A0000E460446002020622046E168884730B3AC
:1003B000252805D0D4E901219047206A401CF2E7A6
:1003C000E168204600278847050018D0A5F14100C4
:1003D000192802D820354FF40067324629462046B6
:1003E0002760FFF713FF40B1012804D0F61D26F067
:1003F00007060836D8E7361DD6E72846DAE7206A2A
:10040000BDE8F0812DE9F041064600241068752909
:10041000314616A510D0AFF30080002802DA404222
:1004200013A507E031688A0701D512A502E0490744
:1004300004D511A5012401E0AFF3008000210A22B8
:1004400006F1240709E0B0FBF2FCB0FBF2F302FB7B
:100450001C00303078541846491C0028F3D123463C
:100460002A463046BDE8F04100F032B800000000F6
:100470002D0000002B000000200000004FF00002C3
:1004800000B5134694469646203922BFA0E80C508A
:10049000A0E80C50B1F12001BFF4F7AF090728BF65
:1004A000A0E80C5048BF0CC05DF804EB890028BFE1
:1004B00040F8042B08BF704748BF20F8022B11F00A
:1004C000804F18BF00F8012B704770477047704786
:1004D0002DE9F0470D4699469246044600F124085E
:1004E0000168880604D5E06921F01001216000E070
:1004F0000120A84201DD471B00E00027A1697A190D
:1005000002EB0900081AA0612078C00602D4204638
:10051000AFF30080002608E0D4E901211AF80600B4
:100520009047206A401C761C20624E45F4DB207800
:10053000C0060AD52046AFF3008006E0D4E90121C9
:1005400030209047206A401C2062381EA7F1010726
:10055000F4DC07E0D4E9012118F805009047206A8F
:10056000401C2062281EA5F10105F3DC2046AFF3F4
:1005700000802078000602D50220BDE8F087012027
:10058000FBE7000001694A1C02610878704700B56A
:100590008FB0CDE901310021059105497944CDE9BC
:1005A000031011466846FFF7F9FE0FB000BD0000CA
:1005B000E5FFFFFF0A6802F8010B0A6070470000C0
:1005C00000487047F80300207546FFF7F9FFAE4674
:1005D00005006946534620F00700854618B020B54F
:1005E000FFF73CFEBDE820404FF000064FF000074B
:1005F0004FF000084FF0000B21F00701AC46ACE8CB
:10060000C009ACE8C009ACE8C009ACE8C0098D4637
:10061000704710B50446AFF300802046BDE8104097
:10062000FFF708BE01491820ABBEFEE72600020016
:100630007047FEE7014800F0B9B8000094020020BE
:10064000014800F0B3B80000F4020020016818234C
:10065000CAB2103AB2FBF3F2054B6FF30901032A59
:100660009B5CC36500D9091D816508467047000081
:100670000E3A000810B5014600208B698A6A4FF0D7
:10068000C07453B1B3F5005F15D072B1012A0CD01C
:10069000022A0AD0032A09D104E01AB1012A06D09D
:1006A000022A03D1C96AC90100D5012010BDC96A57
:1006B000A142FAD010BD002AF7D0012AF2D0022AB6
:1006C000F3D0032AF3D010BD30B50468256825F4B3
:1006D00080252560046863608368402B036803D02D
:1006E00099600068C26030BD9A600068C16030BD2A
:1006F000704772B6FEE72DE9F0410446876D00F0C1
:10070000C5FA064694F835000025022806D0802058
:10071000606584F834500120BDE8F08120680168EC
:1007200021F0160101602068416921F080014161DA
:10073000206C08B9A06C20B12068016821F0080184
:1007400001602068016821F0010101600CE000F007
:100750009DFA801B052807D920206065032084F8B6
:10076000350084F83450D7E720680068C007EED120
:1007700094F85C103F208840B860012084F8350070
:1007800084F834500020C7E790F83510022903D0D0
:100790008021416501207047052180F835100068EF
:1007A000016821F001010160002070472DE9F84344
:1007B00004464FF00009CDF8009063484FF41651FD
:1007C000A56D0068B0FBF1F72E6894F85C10082066
:1007D00000FA01F131420FD021680A6852070BD5A7
:1007E0000A6822F004020A6094F85C108840A8604D
:1007F000606D40F00100606594F85C104FF00108F6
:1008000008FA01F0304208D021684969090604D588
:10081000A860606D40F00200606594F85C100420F0
:100820008840304208D021680968890704D5A8604B
:10083000606D40F00400606594F85C101020884002
:10084000304218D021680968090714D5A8602068CB
:100850000168490304D50068000308D5A16C07E0CE
:100860000168C90503D4016821F008010160216C09
:1008700009B12046884794F85C1020208840304217
:1008800031D021680968C9062DD5A86094F83500D3
:1008900005282068016806D0490347D50068000391
:1008A0001DD4616C1CE021F01601016020684169D3
:1008B00021F080014161206C08B9A06C20B1206852
:1008C000016821F00801016094F85C103F20884025
:1008D000A86084F8358084F83490216D1FE0E16BC6
:1008E00009B120468847606D00282BD0606DC00795
:1008F00014D0052084F835002068016821F001013A
:1009000001600098401C0090B84203D8206800683D
:10091000C007F6D184F8358084F83490E16C002962
:1009200010D001B02046BDE8F04308470168C90572
:10093000D5D4016821F01001016084F8358084F875
:100940003490CCE7BDE8F883540000202DE9F04155
:10095000044600F09BF906465CB1022084F835009D
:10096000002584F834502068016821F001010160FD
:100970000DE00120BDE8F08100F088F9801B05281A
:1009800005D920206065032084F83500F2E720684F
:100990000068C007F0D12268116820480140D4E9FE
:1009A00001031843D4E903363343184363691843FA
:1009B000A3691843E3691843236A18430843616A2B
:1009C000042903D1D4E90B131943084310602068AC
:1009D0004069666A20F0070130460E43012704286B
:1009E0000CD1A06A0643E06A40B12046FFF742FE00
:1009F00020B14020606584F83570BAE72068466110
:100A00002046FFF723FE94F85C203F21914081604F
:100A1000656584F835700020ACE700003F8010F079
:100A20002DE9F0410446866D90F834000025012838
:100A30000DD0012084F8340094F835700020012F87
:100A400007D084F8340002252846BDE8F081022052
:100A5000FBE7022784F8357060652046FFF734FE17
:100A600094F85C103F208840B0602068016841F035
:100A700016010160206C20B12068016841F0080176
:100A800001602068016841F001010160DCE70000BD
:100A90002DE9F84FDFF8B8A10022012403254FF01B
:100AA0000F090AF1040BAAF1040E00BF0B6804FA47
:100AB00002F63340B34273D10F7907F00307012FD9
:100AC00001D0022F16D187684FEA420805FA08FCC8
:100AD00027EA0C07D1F80CC00CFA08FC4CEA070C0A
:100AE000C0F808C04768B7430E79C6F300169640B1
:100AF0003E4346600E79F643B6070DD0C7685600F0
:100B000005FA06FC27EA0C07D1F808C00CFA06FC27
:100B10004CEA070CC0F80CC00E7906F00306022E52
:100B200010D1D60800EB8608D8F8206057074FEAA6
:100B3000D76C09FA0CF7BE430F6907FA0CF7374375
:100B4000C8F8207006684FEA420C05FA0CF7BE435D
:100B50000F7907F0030707FA0CF7374307604E6871
:100B600016F4403F6DD03B4E376847F480473760FE
:100B7000366822F0030706F480460096364E07EBEF
:100B8000060CDCF8086897073F0F09FA07F826EA11
:100B90000806DFF8C880404503D14FF000081EE08A
:100BA0004FE0DFF8BC80404502D14FF0010816E06D
:100BB000DFF8B080404502D14FF002080FE0DFF8C7
:100BC000A880404502D14FF0030808E0DFF89C8080
:100BD000404502D14FF0040801E04FF0070808FA41
:100BE00007F848EA0608CCF80888DAF800605746A3
:100BF000D1F804C09E435FEACC2C00D51E433E6072
:100C0000DBF800605F46D1F804C09E435FEA8C2C9D
:100C100000D51E433E60DEF800607746D1F804C080
:100C20009E435FEA8C3C00D51E433E60084F083F60
:100C30003E68D1F804C09E435FEACC3C00D51E4319
:100C40003E60521C102AFFF431AFBDE8F88F00005F
:100C5000083C01404438024000300140000002409E
:100C60000004024000080240000C02400010024054
:100C7000426921EA02030A4043EA02418161704766
:100C80000AB1816170470904FBE7000001488068F0
:100C90007047000048000020024881680278114433
:100CA00081607047480000200B4810B5016841F48E
:100CB00000710160016841F480610160016841F4E4
:100CC00080710160032000F06FF80F2000F006F83B
:100CD00000F024F8002010BD003C024070B50D4D1E
:100CE00004464FF47A712878B1FBF0F00A4909689C
:100CF000B1FBF0F000F00CFB48B9102C07D2002239
:100D00002146501E00F030F800206C6070BD0120BC
:100D100070BD000048000020540000200A4808B5BB
:100D2000016841F480410160006800F48040009057
:100D30000548001F016841F080510160006800F023
:100D40008050009008BD000044380240002809DBB4
:100D500000F01F02012191404009800000F1E020D5
:100D6000C0F8001170470000F0B40E4B1B680C4631
:100D7000C3F30223C3F10705042D00D90425191D6F
:100D8000072901D2002300E0DB1E012606FA05F147
:100D9000491E214099409E40761E16403143F0BCCA
:100DA00002F0AFBC0CED00E0064900F00702086855
:100DB0004FF6FF03184040EA0220034A1043086040
:100DC000704700000CED00E00000FA052DE9F04747
:100DD0000E46050065D0DFF81481D8F80000F7B2A0
:100DE00000F00700B04207D288F80070D8F8000081
:100DF00000F00700B04254D128683D4C810712D55D
:100E0000400703D5206840F4E050206028780007B0
:100E100003D5206840F4604020602068A96820F075
:100E2000F000084320602878C0072DD0304968685A
:100E30000839012812D0022813D0032811D00968DC
:100E4000890700292DDA216821F00301014321607F
:100E5000FFF71CFF814641F2883A0EE009688903DA
:100E6000EFE709688901ECE7FFF710FFA0EB090144
:100E7000514502D90320BDE8F0872068696800F079
:100E80000C00B0EB810FEFD1D8F80010404601F014
:100E90000701B14207D90770006800F00700B042AF
:100EA00001D00120E7E72878400705D52068E968E8
:100EB00020F4E050084320602878000706D5206819
:100EC000296920F4604040EAC100206000F038F851
:100ED0002168084AC1F30311515CC8400649086003
:100EE00006480068FFF7FAFE0020C4E7003C024015
:100EF00008380240163A0008540000204C00002038
:100F00000448054900680968044AC1F38221515C1C
:100F1000C84070475400002008380240263A0008B4
:100F20000448054900680968044AC1F34231515C2C
:100F3000C84070475400002008380240263A000894
:100F4000154810B5006810F00C02144813D014496D
:100F5000042A0FD0082A0ED10F4C241F22682368C0
:100F600002F03F025B0207D52068C0F38810A0FBA7
:100F7000010106E0084610BD2168C1F38811A1FBFC
:100F800000010023FFF77CF92168C1F30141491CEE
:100F90004900B0FBF1F010BD083802400024F40015
:100FA00040787D012DE9F84F04006ED02078DFF8FD
:100FB0004C93C007A9F104054AD009F10400016867
:100FC000C1F38101012908D00068C0F38100022823
:100FD0000AD1D9F80000400206D52868800337D529
:100FE00060680028E1D033E06068B0F5803F10D041
:100FF000B0F5A02F286810D020F480302860286831
:1010000020F4802028606068A8B1FFF73FFE064604
:101010000DE0286840F48030F4E740F48020286038
:10102000F7E700BFFFF732FE801B642873D82868FB
:101030008003F7D50CE0FFF729FE064605E000BF68
:10104000FFF724FE801B6428F0D828688003F7D4BB
:101050002078DFF8AC8280074FF0000A3ED5A74821
:10106000001D016811F00C0F08D00068C0F381006A
:1010700002280BD1D9F80000400207D42868800765
:1010800016D5E068012800D112E033E1E068B8B17C
:101090000120C8F80000FFF7F9FD064605E000BF93
:1010A000FFF7F4FD801B0228C0D828688007F7D519
:1010B0002868216920F0F80040EAC10028600DE0AE
:1010C000C8F800A0FFF7E2FD064604E0FFF7DEFDEA
:1010D000801B02281FD828688007F7D420780007D3
:1010E00022D5864F87486169703771B1012101604F
:1010F000FFF7CCFD064604E0FFF7C8FD801B022881
:1011000009D838688007F7D50EE0C0F800A0FFF7CF
:10111000BDFD064605E082E0FFF7B8FD801B022812
:101120007DD838688007F7D42078400768D5DFF885
:10113000CCB100270BF13C0BDBF80000C0000BD456
:10114000DBF8001041F08051CBF80010DBF8000014
:10115000012700F0805000906B4E3068C00510D41D
:10116000306840F480703060FFF790FD009005E03B
:10117000FFF78CFD0099401A022850D83068C0054E
:10118000F6D55E4EA0686C3601280FD00528306871
:1011900010D020F001003060306820F00400306092
:1011A000A068B8B1FFF772FD00900FE0306840F022
:1011B0000100F4E740F004003060F7E7FFF766FD58
:1011C0000099411A41F28830814266D83068800720
:1011D000F4D50EE0FFF75AFD009007E0FFF756FD4B
:1011E0000099411A41F28830814256D83068800710
:1011F000F4D42FB1DBF8001021F08051CBF80010AF
:10120000A069C8B33D49091D0968C1F381010229DC
:101210004AD00228504607D0C8F8600000E03CE001
:10122000FFF734FD04463BE04746C8F86000FFF78F
:101230002DFD064605E000BFFFF728FD801B0228B4
:101240002BD828688001F7D4D4E907010843A16AA4
:101250002E4A490802EB0141626A41EA82110843C1
:1012600094F82C1040EA0161C9F80010012038669A
:10127000FFF70CFD044606E03EE000BFFFF706FD69
:10128000001B022809D828688001F7D534E000BF88
:10129000FFF7FCFC001B022802D90320BDE8F88FF1
:1012A00028688001F4D427E00128F7D0D9F800009D
:1012B000E26900F4800191421CD1226A00F03F01F2
:1012C000914217D147F6C071626A0140B1EB821FAB
:1012D00010D1A26A4FF0FF3300F4403103EB520209
:1012E000B1EB024F06D194F82C1000F07060B0EB17
:1012F000016F01D00120D1E70020CFE70438024080
:1013000000004742800E4742007000400000FFFF8F
:1013100010B5401EB0F1807F01D3012010BD4FF009
:10132000E02460610F21601702F0EBF90020A0615A
:1013300007202061002010BD7047704770B590F8FD
:101340003C20012A2CD0012480F83C40022280F865
:101350003D2003685A689D6822F070060A6832438F
:101360005A60104B02689A420ED0B2F1804F0BD0F7
:101370000D4B9A4208D00D4B9A4205D00C4B9A4225
:1013800002D00C4B9A4204D1496825F080031943DE
:10139000916080F83D40002180F83C10084670BD07
:1013A000022070BD00000140000400400008004021
:1013B000000C00400040014010B5040003D094F838
:1013C0003D0010B107E0012010BD002084F83C0072
:1013D000204600F01FF8022084F83D00211D2068FF
:1013E00001F042FD012084F8460084F83E0084F8B4
:1013F0003F0084F8400084F8410084F8420084F8FB
:10140000430084F8440084F8450084F83D0000203F
:1014100010BD000030B587B0044614216846FFF7C0
:101420002DF8324821680024814236D130480168C5
:1014300041F002010160006800F0020005902C48B4
:101440001038016841F001010160016801F00101FB
:101450000591016841F0020101600068022500F079
:101460000200059040200090CDE9015469462148D2
:10147000CDE90345FFF70CFB01200090CDE90154B5
:1014800069461D48CDE90345FFF702FB00221146DE
:101490001D20FFF769FC1D2012E01548174A001DAA
:1014A000914211D1016841F40031016000680022CD
:1014B00000F40030059011461920FFF755FC192063
:1014C000FFF744FC07B030BD0D4A9142FAD10168E4
:1014D00041F4802101600068002200F48020059022
:1014E00011461A20FFF740FC1A20E9E700040040EB
:1014F0004038024000000240000402400044014025
:101500000048014070B5044690F83C0000250128D1
:1015100017D0012684F83C60022084F83D00206842
:10152000826822F0770222F47F42826008685028A5
:1015300038D00DDC20284FD005DC90B3102811D115
:101540004AE0022070BD302846D040280AD13BE056
:1015500060282FD070280DD0B0F5805F03D0B0F593
:10156000005F12D0012584F83D60002084F83C0023
:10157000284670BDCB68D1E90121206801F0CDFC7F
:101580002068816841F0770109E0CB68D1E9012149
:10159000206801F0C2FC2068816841F480418160CC
:1015A000E1E719E0CA684968206801F06BFD502145
:1015B000206806E0CA684968206801F0ABFD602138
:1015C000206801F0B4FCCEE7CA684968206801F0E1
:1015D00059FD40212068F4E7226801461046F0E7F3
:1015E0002DE9F0410D46040003D094F83D0018B1F8
:1015F00008E00120BDE8F081002084F83C0020468E
:1016000000F040F8022084F83D002068816844F230
:10161000070291438160211D206801F025FC2268AA
:1016200090689169166A2B68AF69034340F20330F2
:10163000814341EA0721A868EF6908434FF6FC415E
:101640008843E96840EA0720014328692F6A0001BE
:1016500040EA0730084369686D6926F0AA0646EA41
:101660000515294393602268906154F8460B016286
:10167000012004F81F09E0752076E0762077A07538
:101680000020B7E7F0B587B0044614216846FEF79E
:10169000F5FE2D49266800232B4A10390224032524
:1016A0002A48B6F1804F24D0294FBE421FD1166878
:1016B00046F008061660126802F0080205920A68F1
:1016C00042F001020A6009680095CDE9014301F08A
:1016D0000101CDE9044103936946FFF7D9F90022DE
:1016E00011463220FFF740FB3220FFF72FFB07B0F7
:1016F000F0BD136843F001031360126802F00102A9
:1017000005920A6842F001020A600A6802F00102CA
:1017100005920A6842F002020A600968012601F097
:101720000201059120218DE85200CDE9035669465A
:10173000FFF7AEF908208DE85100CDE90356694660
:101740000448FFF7A5F9D2E7403802400000024004
:10175000000C00400004024070B590F83E60044662
:1017600090F83F5090F8423090F84320022021B189
:10177000042914D0012E25D11EE0012E22D1012BE7
:1017800020D184F83E0084F8420001220021206824
:1017900001F0B6FB2068C16841F002012FE0012D85
:1017A00010D1012A0ED184F83F0084F843000421AF
:1017B000206801F0A5FB1EE0012D03D1012B01D112
:1017C000012A01D0012070BD84F83E0084F83F005A
:1017D00084F8420084F8430001220021206801F0CF
:1017E0008FFB01220421206801F08AFB2068C16878
:1017F00041F00201C1602068C16841F00401C1608C
:101800002068016841F001010160002070BD000006
:1018100070B504462DED028B01684FF08040420008
:10182000814205D1406A2A49904200D9401C086093
:1018300028492068884207D1264824300068264974
:10184000904200D9401C08602449206888420CD18D
:10185000207F234D042804D008289FED228A07D03A
:101860001BE01E483C3000686860BDEC028B70BD18
:101870001A4840300068A9881B4A401A81B21B48A8
:1018800001F0CAF800EE100A1949B8EE400A0860E3
:101890001848C0EE080AC0ED000A207F012812D0C7
:1018A0000228E2D10D48383000682968401A00EE5D
:1018B000100A1149B8EE400A08601048C0EE080A44
:1018C000C0ED000AD1E70548343000682860CCE755
:1018D00014000020000C004018000020000400400C
:1018E000080000200000684234000020A603002009
:1018F00020000020300000201C0000202C000020D0
:101900002DE9F041054690F83C0000260C460128E0
:1019100010D0012085F83C0072B1042A1CD0082A9E
:101920002CD00C2A50D00126002085F83C003046EF
:10193000BDE8F0810220FBE7D4E90012E3682868E3
:1019400001F0B2FB2868816921F00C0181612868EF
:101950008169A26811430FE0D4E90012E3682868A6
:1019600001F0EAFB2868816921F4406181612868FF
:101970008169A26841EA02218161D5E72868D4E93A
:10198000002C277B016A21F480710162C169036A1E
:1019900021F0030141EA0C0121F0F00C39074FF46A
:1019A00020674CEA116123F4206307EA02221A43FC
:1019B000C16102622868C16921F00C01C161286817
:1019C000C169A268114328E02868D4E90027E168CA
:1019D000036A23F480530362D0F81CC0036A2CF41A
:1019E000407C4CEA07274FF6FF7C27F470470CEA4F
:1019F000013139434FF4204723F4204307EA0232F0
:101A00001A43C16102622868C16921F44061C16161
:101A10002868C169A26841EA0221C16184E710B562
:101A2000040003D094F83D0010B107E0012010BD80
:101A3000002084F83C00204600F01EF8022084F8C4
:101A40003D00211D206801F00FFA012084F84600B6
:101A500084F83E0084F83F0084F8400084F8410098
:101A600084F8420084F8430084F8440084F8450078
:101A700084F83D00002010BD7047000030B50446DA
:101A8000002551B104290DD0082910D094F8412027
:101A900094F84500012A11D10EE094F83E2094F804
:101AA0004200F7E794F83F2094F84300F2E794F8F7
:101AB000402094F84400EDE7012801D0012030BD1A
:101AC000022059B1042912D0082919D084F8410004
:101AD00084F845000C293ED001253AE084F83E0008
:101AE00084F842002068C26842F0020210E084F8E4
:101AF0003F0084F843002068C26842F0040207E017
:101B000084F8400084F844002068C26842F008026B
:101B1000C2600122206801F0F3F91149206888426F
:101B20000ED0B0F1804F0BD00E49884208D00E493C
:101B3000884205D00D49884202D00D49884204D11F
:101B4000816801F00701062903D0016841F0010115
:101B50000160284630BD2068C26842F01002D7E715
:101B6000000001400004004000080040000C00405C
:101B70000040014070B50446006801694FF000055F
:101B8000C943890715D4C168C943890711D4E91E1F
:101B9000016101202077206880698007204602D0FB
:101BA000FFF736FE04E000F006F9204600F0E8F901
:101BB000257720680169C943490717D4C168C9431B
:101BC000490713D46FF004010161022020772068D7
:101BD000806910F4407F204602D0FFF719FE04E030
:101BE00000F0E9F8204600F0CBF92577206801697C
:101BF000C943090716D4C168C943090712D46FF055
:101C000008010161042020772068C0698007204610
:101C100002D0FFF7FDFD04E000F0CDF8204600F013
:101C2000AFF9257720680169C943C90617D4C1688F
:101C3000C943C90613D46FF0100101610820207751
:101C40002068C06910F4407F204602D0FFF7E0FD15
:101C500004E000F0B0F8204600F092F92577206803
:101C60000169C943C90708D1C168C943C90704D17B
:101C7000891E0161204600F04BFA20680169C943C2
:101C8000090609D4C168C943090605D46FF080016B
:101C900001612046FFF750FB20680169C9434906EE
:101CA00009D4C168C943490605D46FF040010161F8
:101CB000204600F02EFA20680169C94389060BD43A
:101CC000C168C943890607D46FF02001016120462D
:101CD000BDE87040FFF731BB70BD000030B587B084
:101CE000044614216846FEF7C9FB2468184D0020FD
:101CF000184903220223AC4212D10C6844F00204BA
:101D00000C60096801F0020105914FF470710091B7
:101D10001221CDE9011069460F48CDE9032312E0F5
:101D20000E4DAC4211D10C6844F001040C600968FE
:101D300001F0010105910C210091CDE90130CDE9BF
:101D4000030269460648FEF7A3FE07B030BD000057
:101D500000080040303802400004024000400140CA
:101D60000000024070B5044690F83C0000250128B0
:101D70000FD0012084F83C006AB1042A0FD0082A51
:101D800011D00C2A13D00125002084F83C002846ED
:101D900070BD022070BD206801F0D2F8F4E7206821
:101DA00001F0F6F8F0E7206801F01EF9ECE7206892
:101DB00001F046F9E8E7704710B5040003D094F845
:101DC0003D0010B107E0012010BD002084F83C0068
:101DD000204600F01EF8022084F83D00211D2068F6
:101DE00001F042F8012084F8460084F83E0084F8AF
:101DF0003F0084F8400084F8410084F8420084F8F1
:101E0000430084F8440084F8450084F83D00002035
:101E100010BD704770B5044690F83C0000260D4692
:101E200001280FD0012084F83C006AB1042A1DD09B
:101E3000082A2FD00C2A3FD00126002084F83C002D
:101E4000304670BD022070BD206801F079F820682E
:101E5000816941F0080181612068816921F00401F4
:101E60008161206881692A69114311E0206801F0CD
:101E70008FF82068816941F400618161206881697F
:101E800021F480618161206881692A6941EA022127
:101E90008161D2E7206801F0A7F82068C16941F0AC
:101EA0000801C1612068C16921F00401C161206895
:101EB000C1692A69114311E0206801F0C1F8206866
:101EC000C16941F40061C1612068C16921F4806188
:101ED000C1612068C1692A6941EA0221C161ACE798
:101EE00010B5040003D094F83D0010B107E00120C4
:101EF00010BD002084F83C00204600F01FF80220AE
:101F000084F83D00211D206800F0AEFF012084F818
:101F1000460084F83E0084F83F0084F8400084F8CE
:101F2000410084F8420084F8430084F8440084F8B7
:101F3000450084F83D00002010BD000008B5006891
:101F40000C49884208D10C48016841F00401016045
:101F5000006800F004000BE00849884209D10648F7
:101F6000001D016841F480310160006800F4803098
:101F7000009008BD00080040403802400040014089
:101F80007047000010B50446022249B104290ED062
:101F9000082913D094F84100012816D0012010BD63
:101FA00094F83E000128F9D184F83E200FE094F81F
:101FB0003F000128F2D184F83F2008E094F8400067
:101FC0000128EBD184F8402001E084F8412001226F
:101FD000206800F095FF12492068884203D1426CC6
:101FE00042F400424264206888420ED0B0F1804F33
:101FF0000BD00C49884208D00B49884205D00B49C8
:10200000884202D00A49884204D1816801F0070160
:10201000062903D0016841F001010160002010BDD4
:10202000000001400004004000080040000C004097
:102030000040014030B500250446022249B1042980
:1020400012D0082944D094F8410001284BD0012037
:1020500030BD94F83E000128F9D184F83E20206874
:10206000C26842F0020209E094F83F000128EED174
:1020700084F83F202068C26842F00402C260012256
:10208000206800F03DFF1D492068884203D1426C62
:1020900042F400424264206888420ED0B0F1804F82
:1020A0000BD01749884208D01649884205D01649F6
:1020B000884202D01549884204D1816801F00701A5
:1020C000062903D0016841F001010160284630BDB6
:1020D00094F840000128BAD184F840202068C268F2
:1020E00042F00802CAE784F841200C2901D00125FA
:1020F000ECE72068C26842F01002BFE70000014030
:102100000004004000080040000C00400040014076
:102110007047704770477047F8B501680446086813
:10212000CA684B6910F00F0F4FF0000559D003F04B
:10213000010602F49077374365D0C10705D0D10579
:1021400003D5216C41F001012164410705D5D90770
:1021500003D0216C41F002012164810705D5D90724
:1021600003D0216C41F004012164010707D502F07E
:102170002001314303D0216C41F008012164216C1E
:1021800000293AD0800604D5900602D5204601F0F9
:102190008FF820684069216CC0F38010090700D4D3
:1021A00060B3204601F04FF820684069400621D511
:1021B0002068143050E8001F21F0400140E8001270
:1021C000002AF5D1A06BA8B16C490165A06BFEF7A0
:1021D000DBFA002811D0A06B016D01B0BDE8F04022
:1021E000084783060FD593060DD52046BDE8F84075
:1021F00001F05EB82046FFF78EFFF8BD2046FFF7DE
:102200008AFF2564F8BD266B2023012E79D1C606EE
:1022100077D5D60675D508684868009048694006A5
:1022200040D5A16B086840680004000CEAD0A28D7C
:102230008242E7D9E085C869B0F5807F2DD020685B
:102240000C3050E8001F21F4807140E80012002A91
:10225000F5D12068143050E8001F21F0010140E85A
:102260000012002AF5D12068143050E8001F21F038
:10227000400140E80012002AF5D184F83E30256381
:1022800020680C3050E8001F21F0100140E80012D7
:10229000002AF5D1A06BFEF72EFAA08DE18D401A31
:1022A00081B229E0A08DE18D401A81B2E08D002835
:1022B000A8D00029A6D020680C3050E8002F22F4C6
:1022C000907240E80026002EF5D12068143050E8C6
:1022D000002F22F0010240E80026002EF5D184F8FC
:1022E0003E30256320680C3050E8002F22F01002A9
:1022F00040E80023002BF5D12046FFF70BFFF8BD87
:10230000FFE705062BD5150629D594F83D002128B1
:10231000F5D1A068B0F5805F01D12069B0B1206A25
:10232000411C2162216800784860E08C401E000456
:10233000000CE084E3D12068C16821F08001C16015
:102340002068C16841F04001C160D8E7206A008878
:10235000C0F308004860206A801C2062E5E7400660
:10236000CDD55006CBD5CA68204622F04002CA60BF
:1023700084F83D3000F0F2F8C1E70000A131000818
:1023800070B5040004D094F83D00002510B106E0BB
:10239000012070BD84F83C50204600F023F8242032
:1023A00084F83D002068C16821F40051C1602046D6
:1023B00000F0DEFF2068016921F49041016120688E
:1023C000416921F02A0141612068C16841F400514E
:1023D000C1602564202084F83D0084F83E00002080
:1023E00070BD00002DE9F04186B006461421684614
:1023F000FEF744F82F493068884257D12E48002410
:10240000016841F010010160006800F010000590C3
:1024100029481438016841F00101016000686946EB
:1024200000F0010005904FF4C06000900220CDE95B
:10243000010403200390072004902048FEF728FBA6
:10244000204D1F484FF000672860C5E901744FF424
:102450008068C5E903486C61AC61EC612C62284678
:102460006C62FEF773FA08B1FEF743F9B563AE6329
:102470001348154D7830E5E802074020A5E8110122
:10248000114845F81449AC61EC612C626C62FEF7AE
:102490005DFA08B1FEF72DF975630022114625207B
:1024A000AE63FEF761FC2520FEF750FC06B0BDE8E8
:1024B000F08100000010014044380240000002405A
:1024C0004064024094020020F402002070470000A3
:1024D00070B5044690F83D00202836D191B38AB3F8
:1024E00094F83C00012830D0012084F83C0021629F
:1024F000A284E28400252564212084F83D00636BDA
:102500001348D863636B13481864636B1248D8642C
:10251000606B134605652668606B321DFEF780FA16
:1025200021686FF04000086084F83C502068143047
:1025300050E8001F41F0800140E80012002AF5D168
:10254000002070BDFFE70120FBE70220F9E7000053
:10255000FB3100083D320008B13100087047704778
:10256000FEE700002DE9F04387B014216846FDF72F
:1025700085FF27480024016841F0040101600168DB
:1025800001F004010591016841F001010160016859
:1025900001F001010591016841F00201016000684C
:1025A0001C4F00F002004FF46045059000222946C0
:1025B0003846FEF765FBDFF8608000228021404648
:1025C000FEF75EFBDFF8549043F21006002231461E
:1025D0004846FEF755FB00950125CDE901546946B3
:1025E00038460394FEF754FA80200090CDE9015458
:1025F000694640460394FEF74BFA0096CDE9015434
:10260000694648460394FEF743FA07B0BDE8F083F5
:10261000303802400008024000000240000402403E
:1026200010B588B01C216846FDF728FF14481349EF
:10263000002401604FF4A071C0E9011444F6206148
:10264000C0E903148461FEF7B7FE08B172B6FEE775
:102650000B48FFF7B1FB08B172B6FEE70094019496
:1026600002940022694606480494FFF77BFB002889
:1026700001D072B6FEE708B010BD00000044014072
:10268000C001002010B588B01C216846FDF7F6FE99
:1026900013481249002401602021C0E9011444F6C6
:1026A0003821C0E903148461FEF786FE08B172B6D2
:1026B000FEE70B48FFF780FB08B172B6FEE7009417
:1026C000019402940022694605480494FFF74AFBEE
:1026D000002801D072B6FEE708B010BD00480140E6
:1026E0000802002030B58BB024216846FDF7C6FEF5
:1026F0000024164809944FF080450A94C0E900541C
:10270000611EC0E90241046184610220CDE9000438
:102710000120CDE902040494CDE9054007946946FF
:102720000A480894FEF75CFF08B172B6FEE7099408
:1027300009A906480A94FEF701FE08B172B6FEE741
:10274000E86840F00400E8600BB030BD580000209D
:1027500070B58AB000243248049405940694079416
:10276000089409940094019402942C490394016004
:102770002021C0E9011444F62061C0E903148461FA
:10278000FEF71AFE08B172B6FEE74FF480500490CF
:1027900004A92348FEF7B6FE08B172B6FEE720484A
:1027A000FFF73DF908B172B6FEE7089408A91C4886
:1027B0000994FEF7C3FD08B172B6FEE70126CDE924
:1027C000004602940022694615480394FFF798F8E2
:1027D00008B172B6FEE7022500950422694610484A
:1027E0000195FFF78DF808B172B6FEE7CDE9004616
:1027F000082269460A48FFF783F808B172B6FEE777
:1028000000950C22694606480195FFF779F80028E3
:1028100001D072B6FEE70AB070BD000000040040AF
:10282000A000002010B58AB0002407941C2168463F
:102830000894FDF723FE2248204901602021C0E9C9
:10284000011444F63821C0E903148461FFF748FB02
:1028500008B172B6FEE7079407A919480894FEF775
:102860006DFD08B172B6FEE76020CDE90004029468
:102870000022694612480494FFF7CCFA08B172B6F8
:10288000FEE7042269460E48FFF7C4FA08B172B6A3
:10289000FEE7082269460A48FFF7BCFA08B172B69B
:1028A000FEE70C2269460648FFF7B4FA08B172B693
:1028B000FEE70348FFF712FA0AB010BD0008004017
:1028C000E800002010B58CB024216846FDF7D6FD45
:1028D00000241548099413490A94C0E90014611EA4
:1028E000C0E90241046184610220CDE900040120B5
:1028F000CDE902040494CDE90540079469460A48ED
:102900000894FEF76DFE08B172B6FEE7099409A9B6
:1029100005480A94FEF712FD002801D072B6FEE7C2
:102920000CB010BD000C00403001002010B588B084
:102930001C216846FDF7A2FD1548144900240160DA
:102940008915C0E90114C0E903148461FFF7C8FACE
:1029500008B172B6FEE76020CDE9000402940022BF
:1029600069460B480494FFF755FA08B172B6FEE7C2
:10297000042269460648FFF74DFA08B172B6FEE731
:102980000348FFF7ABF908B010BD0000004001405C
:102990007801002010B50F480D4C4FF4E131C0E92B
:1029A0000041002181600C22C160C0E904128161F4
:1029B000C161FFF7E5FC08B172B6FEE706492020C9
:1029C000C1F80001E06840F02400E06010BD0000A4
:1029D000001001405002002004E000E0FEE7FEE7A6
:1029E00070B514460E46024609A12046FDF7C0FC0C
:1029F000C5B22C44202004F8010B324604A1204625
:102A0000FDF7B6FCC0B20D2222542844801C70BDD4
:102A1000256400007047000070B5002513780A2671
:102A2000B3FBF6F406FB143300EB4300018013788C
:102A3000B3FBF6F406FB1434A0EB44049BB10A2B61
:102A400028461AD334F8021B401CB1FBF6F1C0B281
:102A50000D440A28F6D35B1CD8B21070142800D39A
:102A60001670A8B270BD01201070084670BD00BF7E
:102A700034F8021B401C0D44C0B28342F8D85B1CE2
:102A8000D8B2107029B2401E91FBF0F080B270BD38
:102A90007047000040F666014843B421B0FBF1F0F6
:102AA000024900F5AF7008607047000034480140EB
:102AB00040F666014843B421B0FBF1F0024900F54D
:102AC000AF700860704700003408004040F66601AF
:102AD0004843B421B0FBF1F0024900F5AF70086043
:102AE000704700003808004040F666014843B421B2
:102AF000B0FBF1F0024900F5AF70086070470000CC
:102B00003C08004040F666014843B421B0FBF1F0B8
:102B1000024900F5AF7008607047000040080040AF
:102B2000084810B501680848084B0A4C02688A1A20
:102B30001A60074A43681268D31A2360C0E900127A
:102B400010BD000014000020000000202400002020
:102B500018000020280000202DE9F04100F03EFE82
:102B600000F0D4FE454D50246C6300214448FFF72B
:102B700009FAAC6304214248FFF704FA41480024F3
:102B80003C210460404804604048FEF7E5FD2D0408
:102B90006FF000466E63771EAF633C213C48FEF742
:102BA000DBFD6E63AF633B490120086000213A48BA
:102BB000FFF740FA37482838016841F00101016009
:102BC00000213648FEF75AFF04213448FEF756FF2D
:102BD00008213248FEF752FF0C213048FEF74EFF25
:102BE0002F4840F2DC55056000212E48FFF722FAFD
:102BF0002B482838016841F0010101602A4805602E
:102C000000212A48FFF7BEF92748001D056004216E
:102C10002648FFF7B7F92448083005600821234803
:102C2000FFF7B0F920480C3004600C211F48FFF773
:102C3000A9F97D20FFF72EFFB420FFF739FFB4205C
:102C4000FFF744FFA020FFF74FFF19487D211A4AE4
:102C50000180B42141808180A021C1805D2101815A
:102C60001449322008805221118014490C801449E3
:102C7000088014480470BDE8F08100000040014065
:102C800078010020140000201800002058000020C7
:102C90003001002034440140C0010020A000002089
:102CA000344801400802002034080040E8000020B9
:102CB000EC03002036000020380000203A000020FD
:102CC0003C0000203E00002010B5194C3220616805
:102CD000B1FBF0F200FB121216481AB9027842F06A
:102CE000020202706422B1FBF2F302FB13131BB960
:102CF000037843F004030370B1FBF2F302FB1312F9
:102D00001AB9027842F0080202704FF4FA70B1FB6F
:102D1000F0F200FB121020B94FF400510648FDF705
:102D2000A7FF6068401C6060BDE81040FDF7B4BFBD
:102D300040000020100000200008024030B593B091
:102D400030216846FDF79AFB14210CA8FDF796FB8D
:102D50001C480024016841F080510160006800F0C7
:102D6000805011901848016841F4404101600068AA
:102D7000022500F44040119001200390102004909F
:102D8000009506950820CDE907404020CDE90905CA
:102D900004200B906846FEF705F908B172B6FEE70D
:102DA0000F20CDE90C058020CDE90E0401210CA8EF
:102DB0001094FEF70BF8002801D072B6FEE713B0AE
:102DC00030BD0000403802400070004002480168F9
:102DD00041F470010160704788ED00E010B5094CC6
:102DE00010212046FDF744FF07480068C00704D0C3
:102DF000012210212046FDF743FFBDE810400348A3
:102E0000FEF7B8BE0004024010480140080200204E
:102E100010B580210748FDF72BFF07480068C00761
:102E200002D0064900200860BDE810400448FEF7C3
:102E3000A1BE0000000002401044014024040040F4
:102E4000C00100200148FEF795BE00005800002098
:102E50000148FEF78FBE0000A00000200148FEF7E9
:102E600089BE000030010020F0B502681D4B1E4CE9
:102E70009F031E4D1E4E984207D0B84205D0A04277
:102E800003D0A84201D0B04204D122F0700C4A68AD
:102E900042EA0C02984210D0B8420ED0A0420CD0A8
:102EA000A8420AD0B04208D0124CA04205D0124C21
:102EB000A04202D0114CA04203D122F44074CA684F
:102EC00022434C6922F08002224302608A68C26277
:102ED0000A688262984201D1096901630121416156
:102EE000F0BD000000000140000400400008004068
:102EF000000C0040004001400044014000480140F7
:102F000010B501F01F030121046A99408C4304624B
:102F1000016A9A401143016210BD10B5846842EA0B
:102F2000032224F47F440A432243826010BD826856
:102F300022F070020A4342F00701816070470000EE
:102F400030B5026A22F001020262026A43688469B3
:102F500024F073050C682C4322F002058A682A438A
:102F60000A4DA8420BD122F00805CA6823F4407329
:102F70002A434D6922F004021D438B692B434360B1
:102F8000846149684163026230BD00000000014075
:102F900030B5026A22F010020262026A4368846954
:102FA0000D6824F4E64444EA05248D6822F02002EA
:102FB00042EA05120B4DA8420ED1CD6822F08002E4
:102FC00042EA05124D6923F4406343EA85038D69A3
:102FD00022F0400243EA85034360846149688163CB
:102FE000026230BD0000014030B5026A22F48072F6
:102FF0000262036A4268C46923F4007324F0730513
:103000000C682C438D6843EA05230C4DA8420ED171
:10301000CD6823F4006343EA05234D6922F440524E
:1030200042EA05128D6923F4806342EA0512426088
:10303000C4614968C163036230BD00000000014003
:1030400030B5026A22F480520262046A4268C3699F
:103050000D6823F4E64343EA05238D6824F4005405
:1030600044EA0534064DA84204D14D6922F4804259
:1030700042EA85124260C36149680164046230BD5E
:103080000000014010B5036A046A24F001040462E0
:10309000846924F0F00444EA021423F00A020A438B
:1030A0008461026210BD000070B5046A24F001045E
:1030B00004628469056A124EB0420ED0B0F1804FAE
:1030C0000BD0104EB04208D00F4EB04205D00F4E7C
:1030D000B04202D00E4EB04203D124F00304144398
:1030E00001E044F001041A0724F0F00444EA1262FB
:1030F00025F00A0301F00A0119438261016270BDE3
:10310000000001400004004000080040000C0040A6
:103110000040014010B5036A23F010030362836985
:10312000046A23F4704343EA023224F0A00343EA22
:1031300001118261016210BD30B5046A24F01004EF
:1031400004628469056A24F4407444EA022222F489
:1031500070444FF6FF7202EA03322243A02425F0A6
:10316000A00304EA011119438261016230BD00002D
:1031700009485A2101704121417045218170422145
:10318000C17049210171432141710D2181710146B5
:1031900007220248FFF79CB9740300205002002068
:1031A00010B5806B0021C185C184FEF7B4FF10BD4E
:1031B00070B5846B2068406994F83D10C0F3C0106E
:1031C0000025212904D118B1E584204600F062F8D9
:1031D0002068406994F83E10C0F38010222904D181
:1031E00018B1E585204600F02EF8206C40F0100064
:1031F00020642046FEF78FFF70BD10B50146806B3E
:1032000009680968C90516D40021C1840168143110
:1032100051E8002F22F0800241E80023002BF5D175
:1032200001680C3151E8002F42F0400241E80023D0
:10323000002BF5D110BDFFF791F910BD10B5806BD3
:10324000FFF78DF910BD01680C3151E8002F22F411
:10325000907241E80023002BF5D10168143151E848
:10326000002F22F0010241E80023002BF5D1016B71
:10327000012909D101680C3151E8002F22F0100218
:1032800041E80023002BF5D1202180F83E100021D9
:103290000163704701680C3151E8002F22F0C00231
:1032A00041E80023002BF5D1202180F83D10704724
:1032B00008B590F83E10222901D0022008BD82688E
:1032C0004FF480539A4201D1016921B1816A9A4237
:1032D0001BD04AB10AE00268816A5268C2F3080250
:1032E0000A80816A891C08E0026972B1026852682A
:1032F00002F07F020A70816A491C8162C18D491EF9
:103300000904090CC18503D019E002685268F1E78D
:103310000168CA6822F02002CA600168CA6822F403
:103320008072CA6001684A6922F001024A61202164
:1033300080F83E10016B012903D0FFF7C7F8002089
:1033400008BD0021016301680C3151E8002F22F013
:10335000100241E80023002BF5D101680A68D2066B
:1033600002D50A6849680091818DFEF7D3FEE6E731
:1033700070B5044600680169E26821F440511143C8
:1033800001612169A068E26908436169114308434A
:103390002168CA6849F20C639A430243CA602068F4
:1033A0004169A26921F440711143416131492068AA
:1033B000884202D03049884202D1FDF7B1FD01E0D8
:1033C000FDF79EFDE2690023192164253226B2F53E
:1033D000004F626828D0A0FB0101930F9200FCF718
:1033E0004FFF0146B0FBF5F06FF01802504301EBC0
:1033F000800006EB0010B0FBF5F000F0F002B1FB2E
:10340000F5F002EB0012B1FBF5F06FF01803584332
:1034100001EB800006EB0010B0FBF5F000F00F00B0
:1034200021681044886070BDA0FB010192185B41C7
:10343000FCF726FF0146B0FBF5F00201B1FBF5F009
:103440006FF01803584301EB800006EBC000B0FB9F
:10345000F5F000F0F80002EB4002B1FBF5F0584344
:1034600001EB800006EBC000B0FBF5F000F00700B8
:10347000D6E70000001001400014014016484368E0
:103480001748164A01785354491CC9B20A440170BE
:1034900012F8012C202A02D05F2A07D002E04378DC
:1034A0005B1C437000230D2A14D000E0012300228E
:1034B00013430CD00B4A0C4B117000210170427861
:1034C0001A7041700948017841F001010170084803
:1034D000FEF722BE0122EBE700100140540300205A
:1034E00040000020110000203F00002010000020BC
:1034F000500200202DE9F0417148724900240678FD
:103500008B782546012E20D16F480278521E2D2B34
:1035100001D0022017E0032008E00F5C04EB8404D4
:1035200027F03007401C07EB4404C0B29042F4DBA4
:1035300064420AE00F5C04EB840427F03007401C6F
:1035400007EB4404C0B29042F4DB022E3FD12D2B96
:1035500001D0022018E0032008E000BF22F0300272
:1035600004EB8403401C02EB4304C0B20A5C202A33
:10357000F4D164420BE000BF22F0300204EB84037C
:10358000401C02EB4304C0B20A5C202AF4D10A18A2
:1035900052782D2A0FD1801C07E000BF22F03002A4
:1035A00005EB850302EB4305401CC0B20A5C5F2AB1
:1035B000F4D16D420BE0401CC0B20A5C5F2A06D019
:1035C00022F0300205EB850302EB4305F3E70878B0
:1035D00000263E493E4B3F4A443811286ED2DFE870
:1035E00000F0350E6D6D6D326D6D6D1D6D09306DB8
:1035F0001537590029B220B200F0B4F946E0364A36
:1036000009681868FFF7ECF9024651E04FF0804076
:103610004662324806601E600E6037E0304F54EA62
:10362000050006D0012038702E4804602E48056041
:103630002CE00021084600F095F900F077F93E7083
:10364000F2E72A4800E02A4804801FE02948FBE707
:10365000062C17D2DFE804F01603070B0F13A8B2ED
:10366000FFF718FA0EE0A8B2FFF722FA0AE0A8B2B4
:10367000FFF72CFA06E0A8B2FFF736FA02E0A8B28C
:10368000FFF740FA02EB440020F8025CBDE8F0418D
:10369000FFF76EBD02EB440017A130F8022C0E4874
:1036A000FCF766FE0C4A80B20D211154401C82B218
:1036B000BDE8F04108491148FEF70ABFBDE8F081B6
:1036C0003F000020540300201100002018000020BB
:1036D00014000020EC03002074030020240C0040A0
:1036E0003E000020BC030020D40300203600002050
:1036F0003A0000203800002025640000500200201D
:10370000FEE70907090E002804DB00F1E02080F83D
:103710000014704700F00F0000F1E02080F8141D45
:103720007047000070B5D0E90112134C134E8A1A8D
:1037300003682488C5689B1A36885C43AD1A06FB6B
:1037400005450F4E04693688254495FBF6F58160E2
:1037500041692944FF2901DBFF210AE06FF0FE05E2
:10376000A94201DC294604E0064D2D8805FB0343F0
:103770000361C260416170BD360000203800002046
:103780003C0000203A000020074910B58863074C30
:10379000002289142046FDF773FA20460122BDE875
:1037A00010405103FDF76CBA004001400004024094
:1037B000084910B58863084C012289142046FDF79A
:1037C0005FFA2046BDE8104000224FF40051FDF79B
:1037D00057BA0000004001400004024010B5064CFA
:1037E000012211032046FDF74BFA20460122BDE8D5
:1037F00010405103FDF744BA0004024008B5FDF73C
:1038000053FAFFF79BFAFEF7ADFE2848016841F432
:10381000800101600068002200F4800000901146E1
:103820003A20FDF7A1FA3A20FDF790FA002211465E
:103830004620FDF799FA4620FDF788FAFEF752FF79
:10384000FEF7F0FFFFF73EF8FFF770F8FFF7A2F87A
:10385000FEF77EFFFEF7E4FEFEF714FF002211469E
:103860001C20FDF781FA1C20FDF770FAFFF774F9B0
:103870000F4C2078C00705D0FFF73CFE207820F0E1
:10388000010020702078400705D5FFF749F920781E
:1038900020F00400207020780007EAD500F084F8BA
:1038A000207820F008002070E3E700003038024064
:1038B00010000020084910B54863084C00224FF45E
:1038C00080412046FDF7DCF920460122BDE810408A
:1038D000D103FDF7D5B900000040014000080240C7
:1038E000084910B54863084C012291032046FDF7B2
:1038F000C7F92046BDE8104000224FF40041FDF713
:10390000BFB90000004001400008024010B5064C5D
:10391000012291032046FDF7B3F920460122BDE8BC
:103920001040D103FDF7ACB90008024009490A4A2A
:103930000020086012684A604861C1E902200861FD
:103940000649074A086012684A604861C1E90220D6
:1039500008617047BC03002018000020D403002039
:103960001400002010B50C46002803DD80B2FFF7DC
:103970001FFF07E002D1FFF731FF03E0404280B2B2
:10398000FFF702FF002C04DDA0B2BDE81040FFF7F6
:10399000A7BF03D1BDE81040FFF7B8BF6042BDE844
:1039A000104080B2FFF786BF70B51148114C134D1F
:1039B000006860601048006868601148007868B16D
:1039C0002846FFF7AFFE2046FFF7ACFEA88A01B2FB
:1039D000A08ABDE8704000B2FFF7C4BFE06810B92C
:1039E000E868002803D0BDE87040FFF79FBF70BDB6
:1039F00018000020BC03002014000020D403002085
:103A00003E0000204FF04070E1EE100A70470006C3
:103A10001016000610160000000000000000010251
:103A20000304060708090000000001020304000067
:103A3000503A00080000002058000000D40100089F
:103A4000A83A000858000020000A0000F001000811
:103A50000000000000000000000000000000000066
:103A60000000000000000000000000000000000056
:103A70000000000000000000000000000000000046
:103A80000000000000000000000000000000000036
:103A90000000000000000000010000001000000015
:083AA000000000000024F40006
:040000050800019955
:00000001FF
