:020000040800F2
:1000000030090020B1010008ED310008912C0008F2
:10001000E93100089D070008B9450008000000000C
:10002000000000000000000000000000FB3200089B
:10003000EB08000800000000F932000899350008BC
:10004000CB010008CB010008CB010008CB01000860
:10005000CB010008CB010008CB010008CB01000850
:10006000CB010008CB010008CB010008CB01000840
:10007000CB010008CB010008CB010008CB01000830
:10008000CB010008CB010008CB01000800000000F4
:10009000000000000000000000000000CB0100088C
:1000A000CB010008913700085D370008CB0100083C
:1000B000C5370008CB010008CB010008CB010008C0
:1000C000CB010008CB010008CB010008CB010008E0
:1000D000CB010008593F0008CB01000800000000D8
:1000E000CB010008CB010008CB0100080000000094
:1000F000000000000000000000000000CB0100082C
:1001000000000000CB010008D5370008CB01000833
:1001100000000000000000000000000000000000DF
:10012000CB010008A1070008B1070008CB010008B7
:10013000CB010008000000000000000000000000EB
:10014000000000000000000000000000CB010008DB
:10015000CB010008C1070008D107000805400008CE
:10016000CB010008CB0100080000000000000000E7
:10017000000000000000000000000000000000007F
:1001800000000000CB01000800000000000000009B
:10019000CB010008CB010008DFF810D000F0ECFA2A
:1001A000004800473D4F0008AFF3008030090020B1
:1001B0000648804706480047FEE7FEE7FEE7FEE701
:1001C000FEE7FEE7FEE7FEE7FEE7FEE74937000849
:1001D000990100082DE9F05F0546002092469B46F4
:1001E00088460646814640241BE02846414647464D
:1001F000224600F030F953465A46C01A914110D3B6
:1002000011461846224600F017F92D1A67EB01082F
:100210004F4622460120002100F00EF917EB00099D
:100220004E41201EA4F10104DFDC484631462A4637
:100230004346BDE8F09FD2B201E000F8012B491E11
:10024000FBD270470022F6E710B513460A46044673
:100250001946FFF7F0FF204610BD2DE9FE4F8046FE
:1002600081EA0300C00F0C46009021F0004123F00A
:100270000045B8EB0200A94105D240462146904610
:100280001C460B46024623F00040104347D0270D82
:10029000C7F30A00C3F30A510290401A01904028A4
:1002A0006BDAC3F3130040F4801B0098924620B130
:1002B0000023D2EB030A63EB0B0B01985946C0F104
:1002C0004002504600F0B8F806460D4650465946E2
:1002D000019A00F0D0F810EB08006141002487EA91
:1002E000115284EAE7731A4340D0009A62B3019A2C
:1002F000012A4FEA075215DC001B61EB02014FF0A7
:10030000004202EA0752CDE90042001C41F580118B
:1003100032462B4600F0D0F803B0BDE8F08F4046DF
:100320002146F9E7001B61EB0201001C41F5801337
:1003300000185B412018A2F5001747EB030140EAC3
:10034000D570B6196D4111E06D084FEA360645EAE1
:10035000C0754FEA0752001B61EB0201001C41F51A
:10036000801149084FEA30000019514132462B46AE
:1003700003B0BDE8F04F00F090B8009801224000B3
:100380000023D0EB020263EBE073009821464FEAB2
:10039000E074B8EB000061EB0401E9E783F000438F
:1003A0005BE781F0004158E770B5C1F30A5201F0F4
:1003B00000450024C1F3130140F2FF3341F48011E2
:1003C0009A4201DA002070BD40F233439A42A2F211
:1003D000334203DC524200F03EF800E090402C43F0
:1003E000F1D0404270BD00F0004230F000400AD031
:1003F000C10D01F56071C0F3160042EA0151C20857
:1004000040071143704700200146704730B50B4646
:10041000014600202022012409E021FA02F59D4234
:1004200005D303FA02F5491B04FA02F52844151E08
:10043000A2F10102F1DC30BD202A04DB203A00FAEF
:1004400002F1002070479140C2F1200320FA03F32B
:10045000194390407047202A04DB203A21FA02F029
:100460000021704721FA02F3D040C2F120029140EE
:10047000084319467047202A06DBCB17203A41FA79
:1004800002F043EAE07306E041FA02F3D040C2F121
:100490002002914008431946704710B5141E73F1AD
:1004A000000408DA401C41F1000192185B411A4334
:1004B00001D120F0010010BD2DE9F04D92469B4680
:1004C00011B1B1FA81F202E0B0FA80F22032904626
:1004D000FFF7B2FF04460F4640EA0A0041EA0B016B
:1004E00053465A46084313D0114653EA010019D027
:1004F000C8F140025046FFF7AEFF05460E46504693
:1005000059464246FFF798FF084305D0012004E012
:1005100020463946BDE8F08D0020054346EAE076E6
:100520002C4337430A986305E40AA0EB0800002235
:10053000FD0A44EA47540A3002D500200146E9E7A3
:10054000010510196941DDE9084500196941BDE857
:10055000F04DA2E72DE9FE4F81EA030404F00044C8
:1005600021F0004100944FF0000B23F0004350EACB
:1005700001045ED052EA03045BD0C3F30A54C1F312
:100580000A552C44A4F2F3340194A0FB0254C1F3A5
:10059000130141F48011C3F3130343F4801301FBEF
:1005A000024400FB034E840A970A44EA815447EA56
:1005B0008357A4FB076802958D0A05FB07854FEA60
:1005C000932C04FB0C542705029D4FEA065847EA7A
:1005D0001637B5EB08056EEB070C870E920E47EA4F
:1005E000811742EA8312A7FB0201B6EB0B0164EB11
:1005F00000042B0D43EA0C335E1844EB1C50DA4622
:100600005146E7FB0201C5F313044FEA0B3343EAFB
:1006100014534FEA0432019C43EA0603A4F10C048C
:100620000294009CCDE900B4FFF746FF03B0BDE89B
:10063000F08F00200146F9E72DE9F04D81EA03042F
:1006400004F0004B21F0004514464FF0000A23F05F
:10065000004150EA050220D054EA01021DD0C5F342
:100660000A570246C5F31303C1F31300C1F30A5638
:1006700040F4801543F48013A7EB0608101BD64600
:1006800008F2FD3873EB050002D308F1010801E020
:1006900092185B41B8F1000F03DA00200146BDE873
:1006A000F08D00204FF48011064684460EE0171BA3
:1006B00073EB050705D3121B63EB050306434CEAF6
:1006C000010C49084FEA300092185B4150EA0107DB
:1006D000EDD152EA030012D082EA040083EA050158
:1006E000084305D0101BAB4106D20122002306E0CF
:1006F00000224FF0004302E06FF0010253101AEBAA
:1007000006004CEB085110EB0A0041EB0B01BDE871
:10071000F04DFFF7C2BEC1F30A52C1F3130140F21C
:10072000FF3341F480119A4202DA002001467047FB
:1007300040F233439A42A2F2334202DC5242FFF7C4
:100740008ABEFFF779BE000030B5041E71F10004C7
:1007500004DB4FF00044404264EB0101141E73F1CE
:10076000000405DB1C464FF00043524263EB0403D8
:10077000994208BF904230BD064C074D06E0E06844
:1007800040F0010394E8070098471034AC42F6D3D8
:10079000FFF706FD545100087451000800BFFEE742
:1007A00010B5024800F010F910BD00004C04002004
:1007B00010B5024800F008F910BD00002C0300201D
:1007C00010B5024800F000F910BD0000EC03002055
:1007D00010B5024800F0F8F810BD00008C030020AE
:1007E0000146087810381823B0FBF3F20848805C03
:1007F000C865032A05D908686FF30900001D8865DC
:1008000003E008686FF309008865886D7047000091
:1008100034510008014600208A6A8B69CBB932B195
:10082000012A0DD0022A03D0032A10D10EE000BF06
:10083000CB6A03F08073B3F1807F00D1012007E021
:10084000CB6AB3F1C07F00D1012001E000E000BF1E
:1008500034E08B69B3F5005F1AD132B1012A07D0B9
:10086000022A03D0032A11D10AE000BF01200EE0C2
:10087000CB6A03F08073B3F1807F00D1012006E0E2
:10088000CB6AB3F1C07F00D1012000E000BF15E0CA
:1008900032B1012A05D0022A04D0032A0CD103E088
:1008A00000BF00BF012008E0CB6A03F08073B3F102
:1008B000807F00D1012000E000BF00BF704730B54D
:1008C0000468246824F4802405682C60046863604C
:1008D0008468402C04D10468A2600468E16003E0ED
:1008E0000468A1600468E26030BD704772B600BF62
:1008F000FEE770B50446A56D00F03AFB064694F895
:100900003500022808D08020606500BF002084F8F0
:10091000340000BF012070BD2068006820F0160080
:10092000216808602068406920F0800021684861E3
:10093000206C08B9A06C28B12068006820F008007D
:10094000216808602068006820F0010021680860C4
:1009500010E000F00DFB801B05280BD920206065FE
:10096000032084F8350000BF002084F8340000BF65
:100970000320D0E72068006800F001000028E8D1DB
:1009800094F85C103F208840A860012084F835006E
:1009900000BF002084F8340000BF00BFBBE7014661
:1009A00091F83500022803D0802048650120704767
:1009B000052081F835000868006820F001000A6809
:1009C00010600020F3E70000F8B504460020009016
:1009D0008C4800684FF41651B0FBF1F7A56D2E68F6
:1009E00094F85C1008208840304098B12068006876
:1009F00000F0040070B12068006820F00400216855
:100A0000086094F85C1008208840A860606D40F091
:100A10000100606594F85C1001208840304068B1A6
:100A20002068406900F0800040B194F85C1001201B
:100A30008840A860606D40F00200606594F85C102A
:100A400004208840304068B12068006800F002004F
:100A500040B194F85C1004208840A860606D40F0BC
:100A60000400606594F85C1010208840304078B332
:100A70002068006800F0080050B394F85C10102063
:100A80008840A8602068006800F4802080B1206859
:100A9000006800F4002028B9206CC8B12046216C01
:100AA000884715E0A06C98B12046A16C88470FE0FC
:100AB0002068006800F4807028B92068006820F081
:100AC000080021680860206C10B12046216C88471E
:100AD00094F85C10202088403040002865D02068C1
:100AE000006800F0100000285FD094F85C1020200F
:100AF0008840A86094F83500052828D1206800684F
:100B000020F01600216808602068406920F080000D
:100B100021684861206C08B9A06C28B12068006881
:100B200020F008002168086094F85C103F2088409D
:100B3000A860012084F8350000BF002084F834004C
:100B400000BF206D10B12046216D8847F8BD206898
:100B5000006800F4802080B12068006800F4002064
:100B600028B9606C10B12046616C88471DE0E06BCD
:100B7000D8B12046E16B884717E02068006800F490
:100B8000807068B92068006820F010002168086053
:100B9000012084F8350000BF002084F8340000BF35
:100BA000E06B10B12046E16B8847606D38B3606D33
:100BB00000F00100F0B1052084F8350020680068DD
:100BC00020F001002168086000BF0098401C0090E0
:100BD000B84200D905E02068006800F00100002854
:100BE000F3D100BF012084F8350000BF002084F855
:100BF000340000BFE06C10B12046E16C884700BFB4
:100C0000A4E70000A80000202DE9F04104460025DB
:100C100000F0AEF9074614B90120BDE8F081606A22
:100C200000B100BF022084F8350000BF002084F826
:100C3000340000BF2068006820F0010021680860CF
:100C40000AE000F095F9C01B052805D92020606551
:100C5000032084F83500E0E72068006800F0010018
:100C60000028EED12068056821480540D4E901013B
:100C70000843E16808432169084361690843A169A1
:100C80000843E1690843216A08430543606A042870
:100C900003D1D4E90B0108430543206805602068AF
:100CA000456925F00705606A0543606A04280DD18F
:100CB000A06A0543E06A48B12046FFF7ABFD28B1C2
:100CC00040206065012084F83500A6E72068456172
:100CD0002046FFF785FD064694F85C103F208840CB
:100CE000B06000206065012084F83500002094E7A2
:100CF0003F8010F02DE9F04704460D4616461F468A
:100D00004FF00008D4F8589000BF94F83400012840
:100D100002D10220BDE8F087012084F8340000BF32
:100D200094F83500012825D1022084F835000020F0
:100D300060653B46324629462046FFF7C0FD94F8E1
:100D40005C103F208840C9F808002068006840F027
:100D5000160021680860206C28B12068006840F007
:100D60000800216808602068006840F001002168E0
:100D7000086006E000BF002084F8340000BF4FF098
:100D800002084046C6E70000F8B502460B460025BB
:100D9000002400200021C7E0012606FA01F51E68A4
:100DA00006EA0504AC4274D11E7906F00306012E52
:100DB00004D01E7906F00306022E13D190684F006E
:100DC0000326BE40B0434F00DE68BE403043906013
:100DD000506801268E40B0431E79C6F300168E403F
:100DE000304350601E7906F00306032E09D0D06808
:100DF0004F000326BE40B0434F009E68BE403043C4
:100E0000D0601E7906F00306022E13D1CF0802F13E
:100E1000200656F827004E07F70E0F26BE40B043B7
:100E20004F07FF0E1E69BE403043CF0802F1200677
:100E300046F8270010684F000326BE40B0431E79D5
:100E400006F003064F00BE40304310605E6806F4B3
:100E50004036002E67D000BF00260096344E36681C
:100E600046F48046324F3E603E46366806F4804681
:100E7000009600BF00BF2F4E8F0856F827008E0740
:100E8000370F0F26BE40B0432B4EB24202D1002690
:100E900015E048E0294EB24201D101260FE0284E6C
:100EA000B24201D102260AE0264EB24201D1032607
:100EB00005E0254EB24201D1042600E007268F0747
:100EC0003F0FBE4030431B4E8F0846F827001F4E91
:100ED0003068A0435E6806F4801606B120431B4EBE
:100EE0003060361D3068A0435E6806F4001606B117
:100EF0002043164E361D3060144E361F3068A04316
:100F00005E6806F4003606B12043104E361F30608E
:100F1000361F3068A0435E6806F4803606B1204371
:100F20000A4E083E3060491C1029FFF435AFF8BD69
:100F300044380240083801400000024000040240EA
:100F400000080240000C024000100240083C014032
:100F500010B5426921EA020302EA010443EA0443AC
:100F6000836110BD0AB1816101E00B0483617047A8
:100F700001480068704700009C000020034800689A
:100F80000349097808440149086070479C00002023
:100F9000A400002010B50D48006840F400700B4913
:100FA00008600846006840F48060086008460068F1
:100FB00040F480700860032000F0A2F80F2000F0D9
:100FC00007F800F02BF8002010BD0000003C0240A4
:100FD00070B504460E4800784FF47A71B1FBF0F01A
:100FE0000C490968B1FBF0F5284600F02BFC08B16C
:100FF000012070BD102C07D200222146501E00F0A7
:1010000041F80548046001E00120F2E70020F0E724
:10101000A4000020A8000020A000002008B500BF08
:10102000002000900E48006840F480400C490860A1
:101030000846006800F48040009000BF00BF00BF79
:1010400000200090081F006840F08050091F0860D1
:101050000846006800F08050009000BF00BF08BD47
:101060004438024001460846002809DB00F01F030F
:1010700001229A4043099B0003F1E023C3F80021B9
:1010800000BF70472DE9F05F80460D4616460027E9
:1010900003F0A8FA074639462A46334601F007000E
:1010A000C0F1070ABAF1040F02D94FF0040A01E0B7
:1010B000C0F1070AD14600F1040ABAF1070F02D2C3
:1010C0004FF0000A01E0A0F1030AD4464FF0010AF4
:1010D0000AFA09FAAAF1010A0AEA020A0AFA0CFA59
:1010E0004FF0010B0BFA0CFBABF1010B0BEA030BFE
:1010F0004AEA0B042146404603F07CFABDE8F09F23
:1011000000BF00F00702064B19684FF6FF031940B5
:10111000044B0B4343EA0221014B196000BF7047A7
:101120000CED00E00000FA0570B504460D460CB960
:10113000012070BD5848006800F00700A84209D29D
:1011400055490D700846006800F00700A84201D01C
:101150000120EEE7207800F0020002281DD120785F
:1011600000F00400042805D14C48006840F4E05029
:101170004A490860207800F00800082805D147484F
:10118000006840F46040454908604448006820F029
:10119000F000A168084341490860207800F0010090
:1011A000A8B36068012807D13C4808380068C0F33C
:1011B0004040B8B90120BCE76068022802D06068EE
:1011C000032807D1354808380068C0F3406048B9A3
:1011D0000120AEE7314808380068C0F3400008B984
:1011E0000120A6E72D48006820F00300616808434D
:1011F0002A490860FFF7BCFE064609E0FFF7B8FE83
:10120000801B41F28831884202D9032091E707E030
:101210002248006800F00C006168B0EB810FEDD14E
:101220001D48006800F00700A84209D91A490D704E
:101230000846006800F00700A84201D0012078E7C6
:10124000207800F00400042807D11448006820F436
:10125000E050E168084311490860207800F0080078
:10126000082808D10D48006820F46040216940EA50
:10127000C1000A49086000F03FF808490968C1F355
:101280000311074A515CC8400649086006480068D7
:10129000FFF79EFE00204CE7003C02400838024069
:1012A0003C510008A8000020A00000200148006870
:1012B00070470000A800002000B5FFF7F7FF0449C1
:1012C0000968C1F38221034A515CC84000BD000097
:1012D000083802404C51000800B5FFF7E7FF044909
:1012E0000968C1F34231034A515CC84000BD0000A7
:1012F000083802404C5100082DE9F0470024002531
:101300000026A1462548006800F00C0020B1042802
:1013100005D008283AD105E0DFF8849039E0DFF8FD
:10132000849036E01D48001F006800F03F041B4811
:10133000001F006800F4800078B11A481749091F9F
:101340000968C1F38811A0FB017001462246002301
:101350003846FEF73FFF05460EE011480F49091FCA
:101360000968C1F38811A0FB0170014622460023E1
:101370003846FEF72FFF05460848001F0068C0F3F7
:101380000140401C4600B5FBF6F902E0DFF8109082
:1013900000BF00BF4846BDE8F087000008380240A3
:1013A0000024F40040787D01F8B504460CB9012012
:1013B000F8BD207800F00100002874D0F9480068DA
:1013C00000F00C0004280DD0F648006800F00C0076
:1013D000082813D1F348001F006800F48000B0F51E
:1013E000800F0BD1EF4808380068C0F34040002858
:1013F00059D06068002856D10120D9E700BF606845
:10140000B0F5803F08D1E7480838006840F48030E4
:10141000E449083908601EE06068B0F5A02F0DD1DE
:10142000E0480838006840F48020DE490839086048
:101430000846006840F4803008600CE0D94808385D
:10144000006820F48030D7490839086008460068F1
:1014500020F48020086000BF606890B1FFF788FD2D
:10146000054606E0FFF784FD401B642801D90320F0
:101470009EE7CC4808380068C0F340400028F1D00F
:1014800011E0FFF775FD054606E0FFF771FD401B13
:10149000642801D903208BE7C24808380068C0F3EC
:1014A00040400028F1D1207800F0020002285FD1EE
:1014B000BC48006800F00C0058B1BA48006800F061
:1014C0000C0008281CD1B748001F006800F48000F9
:1014D000B0B9B44808380068C0F3400020B1E068F3
:1014E000012801D0012063E7AE480838006820F0E9
:1014F000F800216940EAC100AA490839086037E0CC
:10150000E06800B30120A8490860FFF731FD0546F7
:1015100006E0FFF72DFD401B022801D9032047E715
:10152000A04808380068C0F340000028F1D09D486A
:101530000838006820F0F800216940EAC1009949A4
:101540000839086014E0002097490860FFF710FD93
:10155000054606E0FFF70CFD401B022801D90320D9
:1015600026E7904808380068C0F340000028F1D111
:10157000207800F0080008282CD16069A8B101206B
:101580008A490860FFF7F4FC054606E0FFF7F0FC27
:10159000401B022801D903200AE782486C3000680A
:1015A000C0F340000028F1D014E000207F4908601B
:1015B000FFF7DEFC054606E0FFF7DAFC401B0228D9
:1015C00001D90320F4E677486C300068C0F340008E
:1015D0000028F1D1207800F00400042870D1002701
:1015E00070483830006800F0805090B900BF00208B
:1015F00000906C483830006840F0805069493831BC
:1016000008600846006800F08050009000BF00BFEE
:1016100001276748006800F48070B0B9644800682A
:1016200040F4807062490860FFF7A2FC054606E0BE
:10163000FFF79EFC401B022801D90320B8E65C4856
:10164000006800F480700028F2D000BFA068012874
:1016500008D154486830006840F0010051496831B1
:1016600008601DE0A06805280DD14E48683000686C
:1016700040F004004B49683108600846006840F0BB
:10168000010008600CE047486830006820F0010065
:101690004449683108600846006820F0040008608A
:1016A00000BFA068A8B1FFF763FC054609E0FFF79B
:1016B0005FFC401B41F28831884202D9032077E663
:1016C00026E0384868300068C0F340000028EED0BB
:1016D00013E0FFF74DFC054608E0FFF749FC401B0F
:1016E00041F28831884201D9032061E62D486830F3
:1016F0000068C0F340000028EFD1012F07D129482E
:101700003830006820F0805026493831086000BF2A
:10171000A069002845D02348006800F00C00082884
:101720005DD0A069022845D100201F490866FFF757
:101730001FFC054606E0FFF71BFC401B022801D9F1
:10174000032035E6174808380068C0F340600028D9
:10175000F1D1D4E907010843616A40EA811101220D
:10176000A06AC2EB500041EA00412C20005D41EA32
:1017700000600C49091F086001200B490866FFF74B
:10178000F7FB054606E0FFF7F3FB401B022801D9F3
:1017900003200DE6034808380068C0F340600028C5
:1017A000F1D049E00838024000004742800E47422D
:1017B00000700040002021490866FFF7D9FB05466C
:1017C00006E0FFF7D5FB401B022801D90320EFE517
:1017D0001B480068C0F340600028F2D12CE0A069EB
:1017E000012800D1E4E51648001D0668A06901281B
:1017F00020D006F48001E06981421BD106F03F0150
:10180000206A814216D147F6C0703040616AB0EB61
:10181000811F0FD106F440310122A06AC2EB5000B3
:10182000B1EB004F06D106F070612C20005DB1EBEA
:10183000006F01D00120BBE50020B9E50000474260
:101840000038024070B504462546681EB0F1807F1E
:1018500001D301200FE0681E4FF0E02148610F2105
:101860004FF0FF3002F0C6FE00204FF0E02188610B
:1018700007200861002070BD7047704730B50246F0
:101880000B4600BF92F83C00012801D1022030BD78
:10189000012082F83C0000BF022082F83D00106861
:1018A00044681068816824F0700418680443106864
:1018B0004460144D1068A84213D01068B0F1804FF6
:1018C0000FD0114D1068A8420BD0104D1068A842DF
:1018D00007D00F4D1068A84203D00E4D1068A842E3
:1018E00005D121F080015868014310688160012012
:1018F00082F83D0000BF002082F83C0000BF00BF1E
:10190000C5E700000000014000040040000800405E
:10191000000C00400040014010B504460CB9012005
:1019200010BD94F83D0028B9002084F83C00204602
:1019300000F026F8022084F83D00211D206801F007
:1019400051FF012084F8460000BF84F83E000121C9
:101950003F200155402001554120015500BF00BFE7
:10196000012084F8420043200155442001554520C0
:10197000015500BF012084F83D000020D0E70000A1
:1019800038B504461C492068884218D100BF0020A1
:1019900000901A48006840F4003018490860084672
:1019A000006800F40030009000BF00BF0022114624
:1019B0001920FFF767FB1920FFF754FB1BE01049C4
:1019C0002068884217D100BF002000900B480068B3
:1019D00040F48020094908600846006800F480202F
:1019E000009000BF00BF002211461A20FFF74AFBFB
:1019F0001A20FFF737FB38BD00440140443802404D
:101A0000004801402DE9F04104460D4614B901207B
:101A1000BDE8F08194F83D0028B9002084F83C002E
:101A2000204600F053F8022084F83D0020688068CA
:101A300044F20701884321688860211D206801F075
:101A4000D1FE2068D0F80880206886692068076A7F
:101A5000286840EA080840F203308643A969A8686C
:101A600040EA0120064340F60C4086434FF2F00066
:101A70008643E969E86840EA0120064328690001D5
:101A8000296A40EA0130064327F0220727F0880739
:101A90006969686840EA011007432068C0F8088057
:101AA0002068866120680762012084F8460084F877
:101AB0003E0001213F200155012084F842004320CF
:101AC0000155012084F83D000020A1E710B586B043
:101AD0000446142101A8FEF7B5FB2068B0F1804F41
:101AE0004DD100BF002000904348006840F0010045
:101AF000414908600846006800F00100009000BFFE
:101B000000BF00BF002000903B481038006840F044
:101B100001003949103908600846006800F00100EA
:101B2000009000BF00BF00BF002000900846006882
:101B300040F0020008600846006800F002000090D3
:101B400000BF00BF202001900220029001200390DE
:101B5000032004900120059001A92848FFF714F9FB
:101B6000082001900220029001200390032004909D
:101B70000120059001A92248FFF706F93AE0214922
:101B80002068884236D100BF002000901A480068C3
:101B900040F00800184908600846006800F0080096
:101BA000009000BF00BF00BF002000901248103816
:101BB000006840F0010010491039086008460068CC
:101BC00000F00100009000BF00BF03200190022040
:101BD00002900020039004900220059001A907487C
:101BE000FFF7D2F8002211463220FFF74BFA3220DD
:101BF000FFF738FA06B010BD40380240000002403E
:101C000000040240000C00402DE9F04304460D465C
:101C100094F83E603F20075D94F84280432010F81E
:101C200004906DB9012E02D1B8F1010F02D001204C
:101C3000BDE8F083022084F83E0084F8420025E0ED
:101C4000042D0CD1012F02D1B9F1010F01D00120D7
:101C5000EEE702213F2001554320015516E0012EF9
:101C600007D1012F05D1B8F1010F02D1B9F1010F50
:101C700001D00120DCE7022084F83E0002213F2051
:101C80000155022084F842004320015515B1042D6E
:101C900018D10BE001220021206801F0F5FD206839
:101CA000C06840F002002168C86022E001220421DF
:101CB000206801F0E9FD2068C06840F00400216858
:101CC000C86016E001220021206801F0DDFD01223C
:101CD0000421206801F0D8FD2068C06840F00200AF
:101CE0002168C8602068C06840F004002168C860AE
:101CF00000BF00BF2068006840F001002168086054
:101D0000002095E70168B1F1804F0CD14FF080427F
:101D1000516AB1F1004F03D94A1C184B1A6001E017
:101D2000164A116000BF164A016891420CD1144A4C
:101D300024321168B1F1004F03D94A1C114B1A60CB
:101D400001E0104A116000BF0E4991ED000AB8EEA3
:101D5000C00ADFED0D0A80EE201A0C4981ED001A51
:101D6000064991ED000AB8EEC00ADFED090A80EEDF
:101D7000201A084981ED001A704700003800002041
:101D8000000C00403C00002000106A45400000208C
:101D900000C07D45440000202DE9F04304460D4677
:101DA000002615B994F83E000BE0042D02D13F2027
:101DB000005D06E0082D02D14020005D01E04120D9
:101DC000005D804615B994F842000BE0042D02D165
:101DD0004320005D06E0082D02D14420005D01E0B3
:101DE0004520005D8146B8F1010F02D1B9F1010F24
:101DF00002D00120BDE8F0831DB9022084F83E0026
:101E00000EE0042D03D102213F20015508E0082DEA
:101E100003D102214020015502E002214120015559
:101E20001DB9022084F842000EE0042D03D10221E6
:101E30004320015508E0082D03D10221442001551B
:101E400002E002214520015535B1042D0BD0082DAB
:101E500010D00C2D1CD114E02068C06840F00200A6
:101E60002168C86016E02068C06840F0040021685E
:101E7000C8600FE02068C06840F008002168C860B2
:101E800008E02068C06840F010002168C86001E0E8
:101E9000012600BF00BF46BB01222946206801F091
:101EA000F3FC16492068884213D02068B0F1804FB7
:101EB0000FD01349206888420BD01249206888420D
:101EC00007D011492068884203D010492068884211
:101ED0000CD12068806800F00707062F0CD020681E
:101EE000006840F001002168086005E02068006893
:101EF00040F001002168086030467BE700000140A7
:101F00000004004000080040000C00400040014078
:101F100010B5044620680069C0F34000D8B12068BD
:101F2000C068C0F34000B0B16FF0020021680861E2
:101F3000012020772068806900F0030018B1204656
:101F4000FFF7E0FE05E0204600F03EF9204600F0F5
:101F500071FA0020207720680069C0F38000D8B1B2
:101F60002068C068C0F38000B0B16FF00400216841
:101F70000861022020772068806900F4407018B161
:101F80002046FFF7BFFE05E0204600F01DF9204681
:101F900000F050FA0020207720680069C0F3C000EC
:101FA000D8B12068C068C0F3C000B0B16FF00800BD
:101FB00021680861042020772068C06900F00300D0
:101FC00018B12046FFF79EFE05E0204600F0FCF821
:101FD000204600F02FFA0020207720680069C0F327
:101FE0000010D8B12068C068C0F30010B0B16FF025
:101FF000100021680861082020772068C06900F47B
:10200000407018B12046FFF77DFE05E0204600F045
:10201000DBF8204600F00EFA0020207720680069E7
:1020200000F0010058B12068C06800F0010030B134
:102030006FF0010021680861204600F011FB206864
:102040000069C0F3C01058B12068C068C0F3C01068
:1020500030B16FF08000216808612046FFF70CFC6A
:1020600020680069C0F3801058B12068C068C0F3D0
:10207000801030B16FF0400021680861204600F008
:10208000F0FA20680069C0F3401058B12068C068B9
:10209000C0F3401030B16FF0200021680861204685
:1020A000FFF7EBFB10BD000010B586B0044614210D
:1020B00001A8FEF7C7F82349206888421FD100BF56
:1020C000002000902048006840F002001E4908608F
:1020D0000846006800F00200009000BF00BF4FF407
:1020E0007070019012200290002003900320049051
:1020F0000220059001A91548FEF746FE20E014498C
:10210000206888421CD100BF002000900E48006863
:1021100040F001000C4908600846006800F001002A
:10212000009000BF00BF0C20019002200290002010
:10213000039004900320059001A90648FEF724FEB1
:1021400006B010BD000800403038024000040240D4
:1021500000400140000002402DE9F04104460E46D7
:102160001546002700BF94F83C00012802D1022048
:10217000BDE8F081012084F83C0000BF35B1042D9A
:1021800009D0082D0CD00C2D14D10EE0314620685A
:1021900001F08CFB10E03146206801F0B7FB0BE04A
:1021A0003146206801F0E6FB06E03146206801F088
:1021B00015FC01E0012700BF00BF00BF002084F82C
:1021C0003C0000BF3846D3E7704710B504460CB951
:1021D000012010BD94F83D0028B9002084F83C008F
:1021E000204600F025F8022084F83D00211D2068DB
:1021F00001F0F8FA012084F8460000BF84F83E00A0
:1022000001213F200155402001554120015500BFCB
:1022100000BF012084F842004320015544200155AD
:102220004520015500BF012084F83D000020D0E783
:1022300008B50A4A016891420FD100BF0021009100
:102240000749096841F00201054A11601146096811
:1022500001F00201009100BF00BF08BD0004004072
:10226000403802402DE9F04104460D46164600274D
:1022700000BF94F83C00012802D10220BDE8F081A3
:10228000012084F83C0000BF36B1042E1BD0082E7C
:1022900031D00C2E5ED145E02946206801F006FBC6
:1022A0002068806940F008002168886120688069A2
:1022B00020F004002168886120688069296908434A
:1022C0002168886148E02946206801F01FFB2068EA
:1022D000806940F40060216888612068806920F48A
:1022E00080602168886120688069296940EA01204E
:1022F0002168886130E02946206801F03BFB2068B6
:10230000C06940F008002168C8612068C06920F0F9
:1023100004002168C8612068C069296908432168F0
:10232000C86119E02946206801F058FB2068C0699F
:1023300040F400602168C8612068C06920F48060B2
:102340002168C8612068C069296940EA01202168C4
:10235000C86101E0012700BF00BF00BF002084F872
:102360003C0000BF384689E710B504460CB901208F
:1023700010BD94F83D0028B9002084F83C002046A8
:1023800000F026F8022084F83D00211D206801F0AD
:1023900029FA012084F8460000BF84F83E0001219C
:1023A0003F200155402001554120015500BF00BF8D
:1023B000012084F842004320015544200155452066
:1023C000015500BF012084F83D000020D0E7000047
:1023D00008B5154A016891420FD100BF0021009154
:1023E0001249096841F00401104A11601146096858
:1023F00001F00401009100BF15E00D4A016891420F
:1024000011D100BF002100910849091D096841F45C
:102410008031064A121D11601146096801F48031AD
:10242000009100BF00BF08BD0008004040380240D6
:10243000004001407047000070B504460D4615B9D4
:1024400094F83E000BE0042D02D13F20005D06E031
:10245000082D02D14020005D01E04120005D0128EF
:1024600001D0012070BD1DB9022084F83E000EE0AD
:10247000042D03D102213F20015508E0082D03D18E
:1024800002214020015502E0022141200155012294
:102490002946206801F0F8F91D492068884201D1D9
:1024A000012000E0002028B12068406C40F400408A
:1024B0002168486416492068884213D02068B0F12A
:1024C000804F0FD01349206888420BD012492068F2
:1024D000884207D011492068884203D010492068FB
:1024E00088420CD12068806800F00706062E0CD0C8
:1024F0002068006840F001002168086005E020685D
:10250000006840F00100216808600020AAE7000090
:10251000000001400004004000080040000C0040A2
:1025200000400140F0B504460D46002615B994F868
:102530003E000BE0042D02D13F20005D06E0082D97
:1025400002D14020005D01E04120005D012801D062
:102550000120F0BD1DB9022084F83E000EE0042DDC
:1025600003D102213F20015508E0082D03D10221AB
:102570004020015502E002214120015535B1042DD2
:102580000BD0082D10D00C2D1CD114E02068C06891
:1025900040F002002168C86016E02068C06840F082
:1025A00004002168C8600FE02068C06840F008009F
:1025B0002168C86008E02068C06840F01000216809
:1025C000C86001E0012600BF00BFB6BB012229465A
:1025D000206801F059F91D492068884201D1012085
:1025E00000E0002028B12068406C40F400402168E1
:1025F000486416492068884213D02068B0F1804FA3
:102600000FD01349206888420BD0124920688842B5
:1026100007D011492068884203D0104920688842B9
:102620000CD12068806800F00707062F0CD02068C6
:10263000006840F001002168086005E0206800683B
:1026400040F0010021680860304682E70000014048
:102650000004004000080040000C00400040014021
:1026600070477047704770472DE9F84F044620685F
:1026700005682068C668206847694FF00009CA46A7
:1026800005F00F09B9F1000F0AD105F0200038B1AB
:1026900006F0200020B1204601F09CFABDE8F88F3A
:1026A000B9F1000F7CD007F0010018B906F4907062
:1026B000002875D005F0010030B106F4807018B123
:1026C000206C40F00100206405F0040030B107F0F8
:1026D000010018B1206C40F00200206405F00200F7
:1026E00030B107F0010018B1206C40F00400206404
:1026F00005F0080048B106F0200010B907F001000D
:1027000018B1206C40F008002064206C002846D0EE
:1027100005F0200028B106F0200010B1204601F09D
:1027200059FA20684069C0F3801A206C00F0080054
:1027300010B9BAF1000F2DD0204601F0F2F920684F
:10274000406900F04000402820D100BF00BF216850
:10275000143151E8001F21F040002168143141E894
:102760000002002AF3D100BFA06B50B17548A16BE5
:102770000865A06BFEF713F988B1A06B016D88475F
:102780000DE02046FFF76FFF09E009E02046FFF764
:102790006AFF04E02046FFF766FF002020647DE723
:1027A000206B012876D105F01000002872D006F0C9
:1027B00010000028FAD000BF0020009020680068B8
:1027C000009020684068009000BF00BF206840690A
:1027D00000F0400040285ED1A06B006840681FFAFE
:1027E00080F8B8F1000F54D0A08D404551DDA4F819
:1027F0002E80A06BC069B0F5807F43D000BF00BFC2
:1028000021680C3151E8001F21F4807021680C31DF
:1028100041E80002002AF3D100BF00BF00BF2168D9
:10282000143151E8001F21F001002168143141E802
:102830000002002AF3D100BF00BF00BF216814319D
:1028400051E8001F21F040002168143141E80002E6
:10285000002AF3D100BF202084F83E00002020632E
:1028600000BF00BF21680C3151E8001F21F01000AB
:1028700021680C3141E80002002AF3D100BFA06BAF
:10288000FEF737F8A08DE28D801A81B22046FFF75F
:10289000E9FE03E740E0A08DE18D401A1FFA80F8C1
:1028A000E08DC0B3B8F1000F35D000BF00BF216884
:1028B0000C3151E8001F21F4907021680C3141E87F
:1028C0000002002AF3D100BF00BF00BF216814310D
:1028D00051E8001F21F001002168143141E8000295
:1028E000002AF3D100BF202084F83E00002020639E
:1028F00000BF00BF21680C3151E8001F21F010001B
:1029000021680C3141E80002002AF3D100BF4146A2
:102910002046FFF7A7FEC1E605F0800030B106F0C3
:10292000800018B1204601F0E7FAB7E605F0400054
:1029300030B106F0400018B1204601F028F9ADE6AC
:1029400000BFABE6593A000810B504460CB90120A7
:1029500010BDA06900B100E000BF94F83D0028B9A7
:10296000002084F83C00204600F028F8242084F859
:102970003D002068C06820F400502168C8602046EF
:1029800001F0A4F92068006920F4904021680861F2
:102990002068406920F02A00216848612068C068EA
:1029A00040F400502168C86000202064202084F892
:1029B0003D0084F83E000020CAE7000010B586B054
:1029C0000446142101A8FDF73DFC7B49206888429C
:1029D00076D100BF002000907848006840F01000D9
:1029E000764908600846006800F01000009000BFBB
:1029F00000BF00BF0020009070481438006840F00D
:102A000001006E49143908600846006800F00100B2
:102A1000009000BF00BF4FF4C06001900220029000
:102A200000200390032004900720059001A964482A
:102A3000FEF7AAF96348644908604FF000604860F7
:102A4000002161488160C1604FF480610161002113
:102A500041618161C16101624162FEF7D5F808B14F
:102A6000FDF744FF00BF5848A063846300BF55488A
:102A70007830564908604FF0006048604021534864
:102A800081600021C1604FF48061016100214161DA
:102A90008161C16101624162FEF7B6F808B1FDF7DC
:102AA00025FF00BF49486063846300BF00221146D0
:102AB0002520FEF7E7FA2520FEF7D4FA79E0FFE7B4
:102AC00043492068884274D100BF002000903B48F1
:102AD000006840F02000394908600846006800F0AE
:102AE0002000009000BF00BF00BF002000903348CE
:102AF0001438006840F00100304914390860084675
:102B0000006800F00100009000BF00BF4FF4C0500B
:102B100001900220029000200390032004900820DE
:102B2000059001A92648FEF72FF92648603029496B
:102B300008604FF0206048604021264881600021F5
:102B4000C1604FF480610161002141618161C16117
:102B500001624162FEF758F808B1FDF7C7FE00BFF9
:102B60001C486063846300BF164818381A4908601F
:102B700080054860002118488160C1604FF4806181
:102B80000161002141618161C16101624162FEF721
:102B90003BF808B1FDF7AAFE00BF0F48A0638463AD
:102BA00000BF002211464720FEF76CFA4720FEF7CF
:102BB00059FA06B010BD0000001001404438024030
:102BC00000000240406402402C0300208C030020DF
:102BD00000140140EC0300204C040020704700006A
:102BE000F7B50446154694F83D00202846D10198D3
:102BF00000B10DB90120FEBD00BF94F83C000128D2
:102C000001D10220F7E7012084F83C0000BF0198C1
:102C10002062A584E58400202064212084F83D0002
:102C20001748616BC8631748616B08641648616B8D
:102C3000C8640020616B086501AE23681A1D316805
:102C40002B46606BFEF756F86FF040002168086075
:102C500000BF002084F83C0000BF00BF00BF216817
:102C6000143151E8001F41F080002168143141E81F
:102C70000002002AF3D100BF0020BCE70220BAE71F
:102C8000BD3A0008153B00086D3A000870477047D0
:102C900000BFFEE708B500BF00200090164800689E
:102CA00040F48000144908600846006800F4800081
:102CB000009000BF00BF002211463920FEF7E2F964
:102CC0003920FEF7CFF9002211463A20FEF7DAF953
:102CD0003A20FEF7C7F9002211464520FEF7D2F947
:102CE0004520FEF7BFF9002211464620FEF7CAF93B
:102CF0004620FEF7B7F908BD3038024000B587B06E
:102D0000142102A8FDF79EFA00BF00200190304870
:102D1000006840F004002E4908600846006800F092
:102D20000400019000BF00BF00BF002001900846D2
:102D3000006840F0010008600846006800F00100EB
:102D4000019000BF00BF00BF00200190084600684E
:102D500040F0020008600846006800F002000190A0
:102D600000BF00BF00224FF460411A48FEF7FAF896
:102D7000002280211848FEF7F5F8002243F21001E6
:102D80001648FEF7EFF84FF46040029001200390E0
:102D900000200490059002A90E48FDF7F5FF802061
:102DA00002900120039000200490059002A90A4897
:102DB000FDF7EAFF43F2100002900120039000208B
:102DC0000490059002A90548FDF7DEFF07B000BD9D
:102DD0003038024000080240000002400004024077
:102DE00010B5002211461C20FEF74CF91C20FEF7FE
:102DF00039F910BD00B587B01C216846FDF722FAED
:102E00001448154908604FF4A0704860002112482A
:102E1000816044F62061C160002101618161FEF79B
:102E20007BFD08B1FDF762FD0B48FFF7CEF908B155
:102E3000FDF75CFD002000900190029004900022BC
:102E400069460548FFF788F908B1FDF74FFD07B05F
:102E500000BD0000004401401402002000B587B00E
:102E60001C216846FDF7EEF913481449086020203C
:102E7000486000211148816044F63821C16000217A
:102E800001618161FEF748FD08B1FDF72FFD0B4898
:102E9000FFF79BF908B1FDF729FD00200090019094
:102EA00002900490002269460448FFF755F908B1E2
:102EB000FDF71CFD07B000BD004801405C0200208A
:102EC00000B58BB0242102A8FDF7BCF900200090CA
:102ED00001904FF080401B490860002048600021AD
:102EE00018488160491EC160002101618161022092
:102EF000029000200390012004900020059006908D
:102F0000079001200890002009900A9002A90D481E
:102F1000FEF778FD08B1FDF7E9FC00200090019074
:102F200069460848FEF7AAFC08B1FDF7DFFC4FF040
:102F30008040C06840F004004FF08041C8600BB092
:102F400000BD0000AC00002000B589B00020079053
:102F500008901C216846FDF775F916481649086067
:102F60004FF4FA5048600021134881604FF6FF711A
:102F7000C160002101618161FFF727F908B1FDF708
:102F8000B5FC00200790089007A90B48FEF776FCD7
:102F900008B1FDF7ABFC0020009001900290049076
:102FA000002269460448FFF7D7F808B1FDF79EFCF8
:102FB00009B000BD00040040F400002000B589B055
:102FC0000020079008901C216846FDF73BF9244833
:102FD000244908602020486000212248816044F68E
:102FE0003821C160002101618161FFF7BDF908B19D
:102FF000FDF77CFC00200790089007A91948FEF710
:103000003DFC08B1FDF772FC6020009000200190AB
:1030100002900490002269461248FFF723F908B194
:10302000FDF764FC042269460E48FFF71BF908B15E
:10303000FDF75CFC082269460A48FFF713F908B15E
:10304000FDF754FC0C2269460648FFF70BF908B15E
:10305000FDF74CFC0348FFF727F809B000BD00005E
:10306000000800403C01002000B58BB0242102A8DC
:10307000FDF7E8F800200090019017481749086014
:1030800000204860002115488160491EC160002170
:1030900001618161022002900020039001200490D0
:1030A00000200590069007900120089000200990CC
:1030B0000A9002A90948FEF7A5FC08B1FDF716FC25
:1030C00000200090019069460448FEF7D7FB08B144
:1030D000FDF70CFC0BB000BD000C0040840100208B
:1030E00000B587B01C216846FDF7ACF816481749B3
:1030F0000860801548600021144881604FF47A719F
:10310000C160002101618161FFF72EF908B1FDF76F
:10311000EDFB6020009000200190029004900022BE
:1031200069460A48FFF79EF808B1FDF7DFFB042265
:1031300069460648FFF796F808B1FDF7D7FB034844
:10314000FEF7B2FF07B000BD00400140CC010020F7
:1031500010B51548154908604FF4E130486000216A
:1031600012488160C16001610C21416100218161CF
:10317000C161FFF7E9FB08B1FDF7B8FB2520002886
:1031800009DB00F01F02012191404209920002F187
:10319000E022C2F8001100BF0348C06840F02400DC
:1031A0000149C86010BD000000100140A4020020C9
:1031B00010B50B480B4908604FF4E130486000211E
:1031C00008488160C16001610C2141610021816179
:1031D000C161FFF7B9FB08B1FDF788FB10BD000026
:1031E00000140140E802002000BFFEE700BFFEE738
:1031F00070B52DED048BB0EE408AF0EE608A044687
:1032000018EE100AFDF7EFF841EC190B53EC192BEF
:103210000EA1204601F0D2F9C5B22C442020207026
:10322000641C18EE900AFDF7DEF841EC190B53EC24
:10323000192B06A1204601F0C1F9C6B234440D2075
:103240002070A81C3044BDEC048B70BD25660000C6
:103250002DE9F04105460E4614462A460BA12046AC
:1032600001F0ACF9C7B23C4420202070641C324607
:1032700006A1204601F0A2F900F0FF0844440D2009
:103280002070B81C4044BDE8F081000025640000B7
:1032900070B52DED048BB0EE408AF0EE608A0446E6
:1032A00024202070641C18EE100AFDF79CF841ECF5
:1032B000190B53EC192B0FA1204601F07FF9C5B271
:1032C0002C4420202070641C18EE900AFDF78BF827
:1032D00041EC190B53EC192B06A1204601F06EF9B5
:1032E000C6B234443B202070281D3044BDEC048B12
:1032F00070BD0000256600007047704740F666020A
:1033000000FB02F1B422B1FBF2F202F5AF72014B05
:103310001A6070473448014040F6660200FB02F133
:10332000B422B1FBF2F202F5AF72014B1A607047A2
:103330003408004040F6660200FB02F1B422B1FB03
:10334000F2F202F5AF72014B1A6070473808004084
:1033500040F6660200FB02F1B422B1FBF2F202F584
:10336000AF72014B1A6070473C080040154890ED61
:10337000000A1548D0ED000A30EE600ADFED130AAE
:1033800020EE200A124880ED000A124890ED000A53
:103390001148D0ED000A30EE600ADFED0C0A20EE95
:1033A000200A0E4880ED000A064890ED000A064803
:1033B00080ED000A074890ED000A074880ED000AFA
:1033C0007047000040000020080000200000484234
:1033D00048000020440000200C0000204C00002089
:1033E00010B501F09DFD01F061FE50205349486386
:1033F00000215348FFF720F85020504988630421EA
:103400004F48FFF719F800204E4908604E49086000
:103410003C214E48FEF7F8FB6FF000404FF0804132
:103420004863401E88633C214948FEF7EDFB6FF07E
:1034300000404FF080414863401E886301204549A9
:10344000086000214448FFF76DF8424828380068BA
:1034500040F001003F492839086000213F48FEF74D
:103460009BFC04213D48FEF797FC08213B48FEF7F2
:1034700093FC0C213948FEF78FFC40F2DC503849B0
:10348000086000213748FFF74DF8354828380068B4
:1034900040F0010032492839086040F2DC503249DE
:1034A000086000213148FEF7C7FF40F2DC502E498A
:1034B000091D086004212D48FEF7BEFF40F2DC50D4
:1034C00029490831086008212848FEF7B5FF002087
:1034D00025490C3108600C212448FEF7ADFF7D2002
:1034E000FFF70CFFB420FFF717FFB420FFF722FF10
:1034F000A020FFF72DFF7D201D490880B4204880C3
:103500008880A020C8805D2008819FED1A0A1A4893
:1035100080ED000A9FED190A194880ED000A9FED21
:10352000190A194880ED000A9FED180A184880ED25
:10353000000A9FED180A80ED000A10BD004001400E
:10354000CC010020380000203C000020AC0000200E
:10355000840100203444014014020020F4000020C3
:10356000344801405C020020340800403C01002047
:103570002605002000009644740000200000FA4355
:1035800078000020000096437C000020CDCC4C3D0C
:10359000540000200000000010B5394800683221B6
:1035A000B0FBF1F201FB120028B93648007840F078
:1035B000020034490870324800681421B0FBF1F26F
:1035C00001FB120028B92F48007840F004002D4973
:1035D00008702B4800683221B0FBF1F201FB1200A9
:1035E00028B92848007840F0080026490870244887
:1035F00000684FF4FA71B0FBF1F201FB120020B940
:103600004FF400512048FDF7A3FC1D480068401C02
:103610001B4908601B48007800F02000C8B11B4817
:1036200000681B49096888420ED31648007820F0CC
:103630002000144908700846007840F040000870E7
:1036400000201249086004E010480068401C0F493F
:1036500008600B48006847F22F51884202D10020D1
:10366000074908600748007800F0100020B10948B9
:103670000068401C07490860FDF780FC10BD000091
:103680009000002034000020000802409400002038
:10369000880000208C00002000B593B0302107A8DE
:1036A000FCF7D0FD142102A8FCF7CCFD00BF0020E0
:1036B00001902348006840F0805021490860084686
:1036C000006800F08050019000BF00BF00BF0020E4
:1036D00001901C48006840F440401A4908600846C0
:1036E000006800F44040019000BF00BF0220079036
:1036F00001200A9010200B9002200D9000210E91C5
:1037000008210F9140211091022111910421129161
:1037100007A8FDF749FE08B1FDF7E8F80F20029071
:103720000220039080200490002005900690012143
:1037300002A8FDF7F9FC08B1FDF7D8F813B000BDF9
:1037400040380240007000400348006840F47000B8
:10375000014908607047000088ED00E010B51021B5
:103760000848FDF7F5FB0848006800F0010020B1AB
:10377000012210210348FDF7F5FB0448FEF7C8FBC2
:1037800010BD000000040240104801405C0200200F
:1037900010B580210748FDF7DBFB0748006800F003
:1037A000010010B10020054908600548FEF7B0FB94
:1037B00010BD0000000002401044014024040040FD
:1037C0001402002010B50248FEF7A2FB10BD000055
:1037D000AC00002010B50248FEF79AFB10BD0000B7
:1037E0008401002010B50268204B98420BD0B0F144
:1037F000804F08D01E4B984205D01E4B984202D0F5
:103800001D4B984203D122F070024B681A43174BAC
:10381000984214D0B0F1804F11D0154B98420ED081
:10382000144B98420BD0144B984208D0134B98423B
:1038300005D0134B984202D0124B984203D122F488
:103840004072CB681A4322F080034C6943EA0402B9
:1038500002608B68C3620B688362044B984201D19B
:103860000B6903630123436110BD000000000140A8
:103870000004004000080040000C004000400140EF
:10388000004401400048014030B501F01F0501240B
:1038900004FA05F3046A9C430462046A01F01F05FC
:1038A00002FA05F52C43046230BD000030B5056A0C
:1038B00025F001050562026A4368846924F07004FA
:1038C00024F003040D682C4322F002028D682A4381
:1038D0000D4DA84206D100BF22F00802CD682A4350
:1038E00022F00402084DA84207D123F4807323F488
:1038F00000734D692B438D692B43436084614D6890
:103900004563026230BD00000000014030B5056A29
:1039100025F010050562026A4368846924F4E044D6
:1039200024F440740D6844EA052422F020028D68D6
:1039300042EA05120E4DA84207D100BF22F08002D4
:10394000CD6842EA051222F04002094DA84209D191
:1039500023F4806323F400634D6943EA85038D6992
:1039600043EA8503436084614D688563026230BD2C
:103970000000014030B5056A25F480750562026AD1
:103980004368C46924F0700424F003040D682C43D8
:1039900022F400728D6842EA05220F4DA84207D139
:1039A00000BF22F40062CD6842EA052222F4806260
:1039B000094DA84209D123F4805323F400534D69E3
:1039C00043EA05138D6943EA05134360C4614D68FA
:1039D000C563026230BD00000000014030B5056AD9
:1039E00025F480550562036A4468C26922F4E04206
:1039F00022F440720D6842EA052223F400538D68D8
:103A000043EA0533064DA84204D124F480444D69AD
:103A100044EA85144460C2614D680564036230BDA8
:103A20000000014010B55A20094908704120487033
:103A3000452088704220C870492008714320487191
:103A40000D20887107220348FFF7CAF810BD000057
:103A5000CC040020A402002070B50546AC6B002009
:103A6000E085E0842046FEF7FEFD70BD70B5064699
:103A70000025B46B20684069C0F3C01594F83D0080
:103A8000212805D125B10020E084204600F08FF8E0
:103A900020684069C0F3801594F83E00222805D1C3
:103AA00025B10020E085204600F03BF8206C40F076
:103AB000100020642046FEF7D6FD70BD70B50546A7
:103AC000AC6B2868006800F48070F8B90020E084CE
:103AD00000BF00BF2168143151E8001F21F08000B1
:103AE0002168143141E80002002AF3D100BF00BF71
:103AF00000BF21680C3151E8001F41F040002168EF
:103B00000C3141E80002002AF3D102E02046FFF721
:103B1000BDF870BD70B50446A56B2846FFF7B7F831
:103B200070BD00BF00BF02680C3252E8002F22F4C3
:103B3000907102680C3242E80013002BF3D100BFF1
:103B400000BF00BF0268143252E8002F22F00101CA
:103B50000268143242E80013002BF3D100BF016B5E
:103B600001290ED100BF00BF02680C3252E8002FBD
:103B700022F0100102680C3242E80013002BF3D14E
:103B800000BF202180F83E1000210163704710B56E
:103B900004462068C06820F040002168C8602020EA
:103BA00084F83D002046FFF771F8002010BD00BFEB
:103BB00000BF02680C3252E8002F22F0C0010268F8
:103BC0000C3242E80013002BF3D100BF202180F813
:103BD0003D107047F8B5044694F83E00222873D192
:103BE000A068B0F5805F0CD1206950B90025A66AA5
:103BF00020684068C0F308003080A06A801CA06282
:103C000015E0A56A0026A068B0F5805F03D0A06823
:103C100028B9206918B920684068287004E0206835
:103C2000406800F07F002870A06A401CA062E08D10
:103C3000401E80B2E085002844D12068C06820F092
:103C400020002168C8602068C06820F48070216866
:103C5000C8602068406920F0010021684861202088
:103C600084F83E00206B012826D10020206300BF8D
:103C700000BF21680C3151E8001F21F010002168BD
:103C80000C3141E80002002AF3D100BF206800682F
:103C900000F0100010280AD100BF0020009020681A
:103CA0000068009020684068009000BF00BFA18DB0
:103CB0002046FEF7D7FC02E02046FEF78FFF0020EB
:103CC000F8BD01E00020FBE70220F9E72DE9F84FFD
:103CD00004462068006920F44050E16808432168E8
:103CE00008612169A068084361690843E1690843E4
:103CF00000902068C06849F20C618843009908432D
:103D00002168C8602068406920F44070A1690843B8
:103D10002168486176492068884203D07549206847
:103D2000884203D1FDF7D8FA814602E0FDF7C4FAD4
:103D30008146E069B0F5004F6CD102206168A0FBBC
:103D4000015003461920A9FB007001462A46384657
:103D5000FCF740FA6421B0FBF1F04FEA001A0220B0
:103D60006168A0FB01510B461920A9FB00712A468E
:103D70003846FCF72FFA834602206168A0FB015009
:103D800003461920A9FB00712A463846FCF722FA9F
:103D90006421B0FBF1F000EBC00101EB0010ABEBD4
:103DA0008000322101EBC0006421B0FBF1F000F093
:103DB000F8000AEB400A02206168A0FB01500346AC
:103DC0001920A9FB007001462A463846FCF702FA82
:103DD000834602206168A0FB015003461920A9FB1D
:103DE00000712A463846FCF7F5F96421B0FBF1F082
:103DF00000EBC00101EB0010ABEB8000322101EBC6
:103E0000C0006421B0FBF1F000F0070050442168CD
:103E100088606AE004206168A0FB01500346192015
:103E2000A9FB007001462A463846FCF7D3F98246C2
:103E300004206168A0FB015003461920A9FB007013
:103E400001462A463846FCF7C5F96421B0FBF1F07B
:103E500000EBC00101EB0010AAEB8000322101EB66
:103E600000106421B0FBF1F000F0F00A042061685A
:103E7000A0FB017003461920A9FB00513A462846D1
:103E8000FCF7A8F96421B0FBF1F00AEB001A04205A
:103E90006168A0FB01510B461920A9FB00712A465D
:103EA0003846FCF797F9834604206168A0FB01506F
:103EB00003461920A9FB007001462A463846FCF744
:103EC00089F96421B0FBF1F000EBC00101EB0010B7
:103ED000ABEB8000322101EB00106421B0FBF1F06C
:103EE00000F00F00504421688860BDE8F88F0000A2
:103EF0000010014000140140014691F83D002128C6
:103F000028D18868B0F5805F0BD1086948B90A6A82
:103F10001088C0F308000B685860086A801C0862AB
:103F200005E00B6A581C086218780B685860C88C4A
:103F3000401E80B2C88458B90868C06820F080006C
:103F40000B68D8600868C06840F040000B68D86013
:103F5000002070470220FCE710B522484068224943
:103F6000224A1278885421480078401C1F49087062
:103F700008460078401E1C49085C202804D11C48D3
:103F80000078401C1A49087018480078401E1649ED
:103F9000085C5F2801D1012000E000201349097866
:103FA000491E114A515C0D2901D1012100E0002177
:103FB000084398B10D4800780E49087000200B495D
:103FC00008700B4800780C490870002008490870F8
:103FD0000A48007840F00100084908700848FEF7D8
:103FE00043FB10BD00100140AC04002098000020ED
:103FF00099000020350000208400002034000020BB
:10400000A402002010B50248FEF72EFB10BD0000F0
:10401000E802002070B500240025E148007801285E
:1040200027D1E04880782D2812D1032009E0DD490E
:10403000095C21F0300104EB840201EB4204411CD5
:10404000C8B2D9490978491E8142F0DC644210E0C7
:10405000022009E0D349095C21F0300104EB84021D
:1040600001EB4204411CC8B2CF490978491E814284
:10407000F0DCCB48007802284FD1CA4989782D2935
:1040800011D1032009E0C749095C21F0300104EB9C
:10409000840201EB4204411CC8B2C249095C2029D8
:1040A000F1D164420FE0022009E0BE49095C21F031
:1040B000300104EB840201EB4204411CC8B2B9494F
:1040C000095C2029F1D1B74A411C515C2D2912D13C
:1040D000811CC8B209E0B349095C21F0300105EB4D
:1040E000850201EB4205411CC8B2AE49095C5F295B
:1040F000F1D16D4210E0411CC8B209E0A949095C48
:1041000021F0300105EB850201EB4205411CC8B2EC
:10411000A449095C5F29F1D100BFA2480078522868
:1041200050D00BDCA0F144000C281CD2DFE800F0DA
:104130002A1C1B1B1B1BFD1B70571B1564287CD0E6
:1041400006DC53287AD0542879D056280BD129E0A0
:10415000692875D07028F9D173E021B228B200F037
:10416000B3FFFFF75FFC18E1904A9148016891485E
:104170000068FFF76DF8064632468C498E48FEF718
:104180002FFD0AE189488D49D1ED000A8C4991ED56
:10419000000AFFF72DF80646324684498648FEF7A6
:1041A0001FFDFAE081488749D1ED000A864991ED6B
:1041B000000AFFF71DF8064632467C497E48FEF7A6
:1041C0000FFDEAE000204FF0804148627F4908601F
:1041D0007749086077490860FFF724FCDDE000EECE
:1041E000104AB8EEC00ADFED7A0A80EE201A79484C
:1041F00080ED001A00EE105AB8EEC00ADFED740A26
:1042000080EE201A744880ED001AFFF70BFCC4E022
:104210009FED720A6F4880ED000A9FED700A6E48AC
:1042200080ED000A6E4804606E48007840F020007F
:104230006C490870FFF7F6FBAFE016E01FE064E0A2
:1042400009E000EE104AB8EEC00A674880ED000AA7
:10425000FFF7E8FBA1E000EE104AB8EEC00A6348A1
:1042600080ED000AFFF7DEFB97E000EE104AB8EEA3
:10427000C00A5F4880ED000AFFF7D4FB8DE0062CF2
:104280003BD2DFE804F03A03070B0F13A8B2FFF7A5
:1042900035F832E0A8B2FFF73FF82EE0A8B2FFF7FA
:1042A00049F82AE0A8B2FFF753F826E0002D11DD07
:1042B000C8206843092190FBF1F04949086049484A
:1042C000007840F020004749087040F26E5049499C
:1042D000086011E06842C82148430921B0FBF1F0B1
:1042E0003F4908603F48007840F020003D49087091
:1042F0004FF4B9603F49086000BF00BF601E3E4AEE
:1043000022F81050FFF78EFB47E0601E3A4931F863
:1043100010203AA1254800F051F986B20D2023491A
:104320008855701C82B2244800E002E0FEF758FC79
:1043300033E024B1012C10D0022C2CD11CE03048E9
:104340002EA10268194800F039F986B22548007894
:1043500020F010002349087000BF2248007840F088
:104360002000204908704FF47A701D4908602148E8
:104370000560FFF757FB0EE01A48007840F0200078
:10438000184908704FF47A7015490860194805609B
:10439000FFF748FB00BF00BF00BF00BF70BD0000BB
:1043A00084000020AC04002035000020CC04002054
:1043B000380000203C000020A4020020440000201F
:1043C000400000204C00002048000020240C004049
:1043D00000007A445000002054000020CDCCCC3D99
:1043E0008800002034000020740000207C000020A1
:1043F00078000020400800402605002025640000C9
:104400008C00002010B52DED0E8BF0EE408AB0EE42
:10441000609A38EEC90AB0EE408A2E4890ED000A44
:1044200020EE080A10EE101A0846FBF7DCFF41ECFC
:104430001B0B294890ED000A20EE080A10EE101A16
:104440000846FBF7D0FF41EC1D0B244890ED000B14
:1044500053EC102B51EC1D0BFBF7FFFE41EC1A0B3C
:104460001F4890ED000A38EE400A1E48D0ED000AC1
:1044700020EE200A10EE101A0846FBF7B4FF41ECBC
:104480001C0B53EC1A2B51EC1B0BFBF7E6FE41EC1B
:104490001E0B53EC1C2BFBF7E0FE41EC1D0BFBF756
:1044A00083FF04B20E4880ED008A0C4880ED00AB1B
:1044B0000A2C01DA012000E0002014F10A0F01DDCE
:1044C000012100E00021084000B100242046BDEC9D
:1044D0000E8B10BD740000207C000020180000200E
:1044E000100000207800002010B52DED0E8BF0EEAE
:1044F000408AB0EE609A38EEC90AB0EE408A284889
:1045000090ED000A20EE080A10EE101A0846FBF79C
:104510006AFF41EC1B0B234890ED000A20EE080ACD
:1045200010EE101A0846FBF75EFF41EC1D0B1E480B
:1045300090ED000B53EC102B51EC1D0BFBF78DFE97
:1045400041EC1A0B194890ED000A38EE400A184861
:10455000D0ED000A20EE200A10EE101A0846FBF7F4
:1045600042FF41EC1C0B53EC1A2B51EC1B0BFBF7DD
:1045700074FE41EC1E0B53EC1C2BFBF76EFE41EC62
:104580001D0BFBF711FF04B20A480480074880EDB9
:10459000008A054880ED00AB2046BDEC0E8B10BDB7
:1045A000740000207C00002028000020240000204F
:1045B000780000203000002000BFFEE70FB4084B59
:1045C00010B504A902AA039800F0FAF8044602A95B
:1045D000002000F078FC204610BC5DF814FB0000C1
:1045E000C74E000802480068C0F302207047000070
:1045F0000CED00E010B5002804DB0A07130E054A95
:10460000135406E00A07140E034A00F00F031B1FA1
:10461000D45410BD00E400E018ED00E002E008C84A
:10462000121F08C1002AFAD170477047002001E02C
:1046300001C1121F002AFBD1704700002DE9FF5F66
:1046400082B00021DDE90430020DDDF840B0034303
:1046500018D044F61050A2F2FF32424315141198BC
:1046600001281FD0A5EB0B00401C5FEA000A4FF0A9
:1046700000064E4FDFF83891B046504615D5CAF1C6
:10468000000413E0119801244AA3012801D16FEA24
:104690000B010298119AC0E90031C0E9024206B04C
:1046A000BDE8F09FCBF10000DFE704460021404A5F
:1046B000491842EB0450CDE9001012E0E00707D0A2
:1046C00032463B4640464946FBF744FF8046894612
:1046D00032463B4610461946FBF73CFF06460F465E
:1046E0006410002CEAD1DDE90401DDE90023BAF110
:1046F000000F06DAFBF72EFF42464B46FBF72AFF78
:1047000005E0FBF799FF42464B46FBF795FF044651
:104710000E460022284BFCF717F803D84FF0FF3065
:10472000014607E00022254B20463146FBF795FD68
:10473000FBF7F1FF102409E0002C0ADB0A2200231A
:10474000FBF748FD039B30321A55641E50EA010204
:10475000F2D1641C039AC4F111031444119A012A82
:1047600003D0012208430DD10AE0084304D0002001
:104770004FF0110B119072E7A3EB0B056D1E0DE0CE
:104780005B4504DD4FF0000205F1010504E003DAAA
:104790004FF00002A5F10105002AECD00298119912
:1047A000C0E90231C0E9004579E70000000014408B
:1047B0000000F03F300000000000F0430000E03F48
:1047C0002DE9FF4F95B09A46884606460025EEE152
:1047D000252877D100242746F94A0121039400E0D7
:1047E000044316F8013F203B01FA03F01042F7D1D1
:1047F00030782A2811D06FF02F033078A0F13002E2
:10480000092A16D8039A44F0020402EB820203EB51
:1048100042021044761C0390EFE758F8042B0392F1
:10482000002A03DA504244F40054039044F0020496
:10483000761C30782E2816D116F8010F44F00404A7
:104840002A280DD06FF02F023078A0F13003092B09
:1048500009D807EB870302EB4303C718761CF3E77D
:1048600058F8047B761C30786C280FD006DC4C2876
:1048700017D068280DD06A2814D104E0742810D00D
:104880007A280FD10DE044F400140AE044F48014B7
:1048900001E044F440147278824202D104F580149D
:1048A000761C761C307866280BD013DC582877D01D
:1048B00009DC002875D04528F6D04628F4D04728D2
:1048C0001AD193E118E0632835D0642879D065289F
:1048D00012D18BE1702873D008DC6728F1D06928E9
:1048E0006FD06E280DD06F2806D1ACE073282CD085
:1048F000752874D0782853D05246179990476D1C6C
:1049000054E1C4F30250022809D003280DD0D8F88E
:10491000001004280DD00D6008F1040846E1D8F815
:104920000010EA17C1E90052F6E7D8F800100D8030
:10493000F2E70D70F0E718F8041B8DF80010002066
:104940008DF80100EB46012003E058F804BB4FF05E
:10495000FF3061074FF0000102D40DE009F10101C1
:104960008946B9420FDA8145F8DB1BF809100029A6
:10497000F4D108E009F1010189468142FADB1BF814
:1049800009100029F6D103985346A0EB09072146E8
:104990003846179A00F080FA284400EB090507E032
:1049A00044E008E10DE01BF8010B524617999047CF
:1049B000B9F10109F7D2534621463846179AF2E079
:1049C00039E00A21C4F302524FF0000B0091022A91
:1049D00006D058F8040BC117032A09D00AE023E0D7
:1049E00008F1070020F00702F2E80201904605E016
:1049F00000B2C117042A01D140B2C117002906DA5A
:104A00000A460021404261EB02012D2202E022050C
:104A100004D52B228DF80420012203E0E20701D007
:104A20002022F7E7914657E00A2100E010214FF0DD
:104A3000000B00910BE010214FF0000B44F0040438
:104A40000827009103E008204FF0000B0090C4F30A
:104A50000252022A05D058F8040B0021032A08D07C
:104A600008E008F1070020F00702F2E80201904692
:104A700003E080B2042A00D1C0B24FF0000922073F
:104A80002AD53278702A07D0DDF800C08CF0100CDF
:104A90005CEA0B0C05D00EE040228DF804200122C8
:104AA00008E050EA010306D030238DF804308DF879
:104AB000052002229146009B83F0080353EA0B0372
:104AC0000AD150EA010201D1620705D530228DF8E2
:104AD00004204FF001097F1E3278582A04D039A2F1
:104AE0000C920CAA02920BE03BA2F9E75B46009AFB
:104AF000FBF770FB0C9B9B5C029A521E0292137098
:104B000050EA0102F2D1029804A9081A00F1200B20
:104B1000600702D524F4803400E001275F4502DD00
:104B2000A7EB0B0000E0002000EB0B0100900398C6
:104B30004944401A0390E00306D453462146179A8D
:104B4000039800F0A9F90544002706E001A85246A1
:104B5000C05D179990476D1C7F1C4F45F6DBE00345
:104B60000CD553462146179A039800F095F9054451
:104B700004E030205246179990476D1C0099481E5A
:104B800000900029F5DC08E002980299524600786E
:104B9000491C0291179990476D1CBBF10001ABF1C4
:104BA000010BF1DC5BE100F065F90544761C30781F
:104BB00000287FF40DAE19B02846BDE8F08F000044
:104BC00009280100303132333435363738396162E3
:104BD00063646566000000003031323334353637A7
:104BE000383941424344454600000000600700D484
:104BF000062708F1070020F00700F0E802238046AE
:104C000003F0004C5FEA0C0001D097A009E02005FA
:104C100001D596A005E0E00701D095A001E0AFF234
:104C20004C001390307823F0004365280CD006DC4C
:104C3000452809D046281DD047287FD13BE066286B
:104C400018D067287AD136E00021112F01DB11201E
:104C500000E0781CCDE9000104A90CA8FFF7EEFCE8
:104C6000DDE90D010C9A4FF0000B07F101091092DC
:104C700000914EE04FF000400097CDE9011004A9EB
:104C80000CA8FFF7DBFCDDE90D020C9B0F994FF040
:104C9000000B91461093009211B9791C00EB0109A9
:104CA000B7EB090003D4C0F1FF3B07F10109A9EB01
:104CB0000700019042E0012F00DA01270021112FA7
:104CC00001DD112000E03846CDE9000104A90CA85F
:104CD000FFF7B4FCDDE90D010C9A00914FF0000BD9
:104CE000B946109221070FD4009A4A4503DA91463B
:104CF00001E0A9F10109B9F1010F05DD109AA9F14F
:104D00000101515C3029F4D0B84202DA10F1040FED
:104D100003DA0121CDE9011010E0002803DC83440F
:104D2000A9EB000102E0411C494500DD8946A0EBEA
:104D30000B00401C01904FF000400290200705D46A
:104D40000198484502DB4FF0FF30019000208DF8BC
:104D50004B0002980DF14B07B0F1004F25D0022017
:104D60000C902B200D90029800280CDA4042029003
:104D70002D200D9007E00A210298FBF747FB303108
:104D8000029007F8011D0C99481E0C900029F2DCD6
:104D900002980028EFD1791E0D980870307800F045
:104DA000200040F0450007F8020D11A8C01BC01DEF
:104DB00002901398007800B1012000EB09010198DE
:104DC00001EBE071029801440398401A401E0390E1
:104DD000E00306D453462146179A039800F05CF886
:104DE00005441398007818B15246179990476D1CE6
:104DF000E00323D553462146179A039800F04CF858
:104E000005441BE0BBF1000F07DB0098584504DDAB
:104E10001098179910F80B0001E0179930205246AE
:104E2000904701980BF1010B401E05F1010501901F
:104E300004D12E205246179990476D1CB9F10001FC
:104E4000A9F10109DEDC05E017F8010B52461799BC
:104E500090476D1C0299481E02900029F4DC5346CD
:104E60002146179A03989EE62D0000002B000000B3
:104E7000200000002DE9F041044600251E4617469B
:104E8000880404D405E039462020B0476D1C641E18
:104E9000F9D52846BDE8F0812DE9F041044600250A
:104EA0001E469046C80301D5302700E0202788041D
:104EB00004D505E041463846B0476D1C641EF9D55F
:104EC0002846BDE8F0810A68531C0B6010707047DB
:104ED00010B5044606488463002281140548FCF797
:104EE00041F8012251030348FCF73CF810BD0000D3
:104EF000004001400004024010B5044606488463A7
:104F0000012281140548FCF72DF800224FF40051CE
:104F10000248FCF727F810BD0040014000040240A1
:104F200010B5012211030448FCF71CF801225103BB
:104F30000148FCF717F810BD00040240FCF72AF8FE
:104F4000FEF7AAFBFDF7DAFEFDF7A4FEFDF7B8FFBA
:104F5000FEF734F8FEF788F8FEF7C2F8FEF7F8F827
:104F6000FDF7F2FFFDF746FFFDF778FFFEF720F9AA
:104F7000FDF736FFFEF734FA5EE03048007800F0C7
:104F8000010038B1FFF746F82C48007820F0010006
:104F90002A4908702948007800F00400B8B1FEF7EB
:104FA000E5F927482749D1ED000A274991ED000A84
:104FB000FEF76EF90446224621492448FDF710FE0B
:104FC0001E48007820F004001C49087000BF1B48F0
:104FD000007800F00800D0B11B48D0ED000A1C4852
:104FE00090ED000AFFF70EFA04461648D0ED000ACD
:104FF000184890ED000AFFF777FA0546214600F0C1
:1050000063F80E48007820F008000C4908700B483F
:10501000007800F0400078B19FED0F0A0D4880ED58
:10502000000A9FED0D0A0A4880ED000A0348007847
:1050300020F04000014908709FE700003400002084
:10504000CC0400204C00002048000020E802002092
:1050500050000020540000200000000010B504465D
:105060000648446300224FF480410548FBF77AFF6D
:105070000122D1030248FBF775FF10BD004001403B
:105080000008024010B5044606484463012291031B
:105090000548FBF767FF00224FF400410248FBF789
:1050A00061FF10BD004001400008024010B5012220
:1050B00091030448FBF756FF0122D1030148FBF797
:1050C00051FF10BD0008024070B504460D46211E78
:1050D00001DB0A4600E04A42642A01DD012200E0C9
:1050E0000022281E01DB034600E04342642B01DD61
:1050F000012300E000231A43DAB1002C03DDA0B243
:10510000FFF7FAFE07E014B9FFF70AFF03E0614278
:1051100088B2FFF7DDFE002D03DDA8B2FFF7B2FF76
:1051200007E015B9FFF7C2FF03E0694288B2FFF755
:1051300095FF70BD00061016000610160000000056
:105140000000000001020304060708090000000037
:10515000010203047451000800000020AC000000AC
:105160001C46000820520008AC0000208408000003
:105170002C460008000000000000000000000000B5
:10518000000000000000000000000000000000001F
:10519000000000000000000000000000000000000F
:1051A00000000000000000000000000000000000FF
:1051B00000000000000000000000000000000000EF
:1051C00000000000000000000000000000000000DF
:1051D00000000000000000000000000000000000CF
:1051E00000000000000000000000000000000000BF
:1051F00000000000000000000000000000000000AF
:10520000000000000000000000000000000000009E
:105210000000000010000000010000000024F40065
:040000050800019955
:00000001FF
